:020000040000fa
:080000000002040000000000f2
:020000040000fa
:04000800de03000013
:020000040000fa
:04000c00de0300000f
:020000040000fa
:04001000de0300000b
:020000040000fa
:04001400de03000007
:020000040000fa
:04001800de03000003
:020000040000fa
:04001c00de030000ff
:020000040000fa
:04002000de030000fb
:020000040000fa
:04002400de030000f7
:020000040000fa
:04002800de030000f3
:020000040000fa
:04002c00de030000ef
:020000040000fa
:04003000de030000eb
:020000040000fa
:0400340002030000c3
:020000040000fa
:04003800de030000e3
:020000040000fa
:04003c00de030000df
:020000040000fa
:04004000de030000db
:020000040000fa
:04004400de030000d7
:020000040000fa
:04004800fa020000b8
:020000040000fa
:04004c00de030000cf
:020000040000fa
:04005000de030000cb
:020000040000fa
:040054009a0300000b
:020000040000fa
:040058007003000031
:020000040000fa
:04005c004c03000051
:020000040000fa
:04006000de030000bb
:020000040000fa
:04006400de030000b7
:020000040000fa
:04006800de030000b3
:020000040000fa
:04006c00de030000af
:020000040000fa
:04007000de030000ab
:020000040000fa
:04007400de030000a7
:020000040000fa
:04007800de030000a3
:020000040000fa
:04007c00de0300009f
:020000040000fa
:04008000de0300009b
:020000040000fa
:04008400de03000097
:020000040000fa
:04008800de03000093
:020000040000fa
:04008c00de0300008f
:020000040000fa
:04009000de0300008b
:020000040000fa
:040094002203000043
:020000040000fa
:04009800de03000083
:020000040000fa
:04009c00de0300007f
:020000040000fa
:0400a000de0300007b
:020000040000fa
:0400a400de03000077
:020000040000fa
:0400a800de03000073
:020000040000fa
:0400ac00de0300006f
:020000040000fa
:0400b000de0300006b
:020000040000fa
:0400b400de03000067
:020000040000fa
:0400b800de03000063
:020000040000fa
:0400bc00de0300005f
:020000040000fa
:0400c000de0300005b
:020000040000fa
:0400c400de03000057
:020000040000fa
:0400c800de03000053
:020000040000fa
:0400cc00de0300004f
:020000040000fa
:0400d000de0300004b
:020000040000fa
:0400d400de03000047
:020000040000fa
:0400d800de03000043
:020000040000fa
:0400dc00de0300003f
:020000040000fa
:0400e000de0300003b
:020000040000fa
:0400e400de03000037
:020000040000fa
:0400e800de03000033
:020000040000fa
:0400ec00de0300002f
:020000040000fa
:0400f000de0300002b
:020000040000fa
:0400f400de03000027
:020000040000fa
:0400f800de03000023
:020000040000fa
:0400fc00de0300001f
:020000040000fa
:04010000de0300001a
:020000040000fa
:04010400de03000016
:020000040000fa
:04010800de03000012
:020000040000fa
:04010c00de0300000e
:020000040000fa
:04011000de0300000a
:020000040000fa
:04011400de03000006
:020000040000fa
:04011800de03000002
:020000040000fa
:04011c00de030000fe
:020000040000fa
:04012000de030000fa
:020000040000fa
:04012400de030000f6
:020000040000fa
:04012800de030000f2
:020000040000fa
:04012c00de030000ee
:020000040000fa
:04013000de030000ea
:020000040000fa
:04013400de030000e6
:020000040000fa
:04013800de030000e2
:020000040000fa
:04013c00de030000de
:020000040000fa
:04014000de030000da
:020000040000fa
:04014400de030000d6
:020000040000fa
:04014800de030000d2
:020000040000fa
:04014c00de030000ce
:020000040000fa
:04015000de030000ca
:020000040000fa
:04015400de030000c6
:020000040000fa
:04015800de030000c2
:020000040000fa
:04015c00de030000be
:020000040000fa
:04016000de030000ba
:020000040000fa
:04016400de030000b6
:020000040000fa
:04016800de030000b2
:020000040000fa
:04016c00de030000ae
:020000040000fa
:04017000de030000aa
:020000040000fa
:04017400de030000a6
:020000040000fa
:04017800de030000a2
:020000040000fa
:04017c00de0300009e
:020000040000fa
:04018000de0300009a
:020000040000fa
:04018400de03000096
:020000040000fa
:04018800de03000092
:020000040000fa
:04018c00de0300008e
:020000040000fa
:04019000de0300008a
:020000040000fa
:04019400de03000086
:020000040000fa
:04019800de03000082
:020000040000fa
:04019c00de0300007e
:020000040000fa
:0401a000de0300007a
:020000040000fa
:0401a400de03000076
:020000040000fa
:0401a800de03000072
:020000040000fa
:0401ac00de0300006e
:020000040000fa
:0401b000de0300006a
:020000040000fa
:0401b400de03000066
:020000040000fa
:0401b800de03000062
:020000040000fa
:0401bc00de0300005e
:020000040000fa
:0401c000de0300005a
:020000040000fa
:0401c400de03000056
:020000040000fa
:0401c800de03000052
:020000040000fa
:0401cc00de0300004e
:020000040000fa
:0401d000de0300004a
:020000040000fa
:0401d400de03000046
:020000040000fa
:0401d800de03000042
:020000040000fa
:0401dc00de0300003e
:020000040000fa
:0401e000de0300003a
:020000040000fa
:0401e400de03000036
:020000040000fa
:0401e800de03000032
:020000040000fa
:0401ec00de0300002e
:020000040000fa
:0401f000de0300002a
:020000040000fa
:0401f400de03000026
:020000040000fa
:0401f800de03000022
:020000040000fa
:0401fc00de0300001e
:020000040000fa
:04020000de03000019
:020000040000fa
:04020400de03000015
:020000040000fa
:04020800de03000011
:020000040000fa
:04020c00de0300000d
:020000040000fa
:04021000de03000009
:020000040000fa
:04021400de03000005
:020000040000fa
:04021800de03000001
:020000040000fa
:04021c00de030000fd
:020000040000fa
:04022000de030000f9
:020000040000fa
:04022400de030000f5
:020000040000fa
:04022800de030000f1
:020000040000fa
:04022c00de030000ed
:020000040000fa
:04023000de030000e9
:020000040000fa
:04023400de030000e5
:020000040000fa
:04023800de030000e1
:020000040000fa
:04023c00de030000dd
:020000040000fa
:04024000de030000d9
:020000040000fa
:04024400de030000d5
:020000040000fa
:04024800de030000d1
:020000040000fa
:04024c00de030000cd
:020000040000fa
:04025000de030000c9
:020000040000fa
:04025400de030000c5
:020000040000fa
:04025800de030000c1
:020000040000fa
:04025c00de030000bd
:020000040000fa
:04026000de030000b9
:020000040000fa
:04026400de030000b5
:020000040000fa
:04026800de030000b1
:020000040000fa
:04026c00de030000ad
:020000040000fa
:04027000de030000a9
:020000040000fa
:04027400de030000a5
:020000040000fa
:04027800de030000a1
:020000040000fa
:04027c00de0300009d
:020000040000fa
:04028000de03000099
:020000040000fa
:100400000f1d21000eff2c000e01880000000000cf
:10041000000020000000e000020032000001200087
:100420002002880014000700e60007000000e0003a
:1004300003003a00c0cc2100010020000200370078
:100440000000200001002000810f70000100320038
:100450000f000700000020000000e0000200320052
:100460000000020000000000700702000000000011
:100470000040da000000fe00200020000000e00044
:1004800002003200100020009001880000000600e9
:10049000a1028800800478000000eb001f003700f4
:1004a000e284440054a0b4009905ba00e2844400f8
:1004b00054a0b4009906ba00e284440054a0b400e9
:1004c0000006eb00476fde00fd07b200ae018800ba
:1004d000636ce10003003a000ad801000000eb0061
:1004e0000e003700606ce10008003a00004deb00a0
:1004f0000a05e800020039003420ec000af0a000f0
:100500008b05e900f9ff3e00040037006168e10057
:10051000010032000086eb000b00070019c7ba008b
:100520000e04e0001905ba0003003a000a00e000da
:10053000dbff3a0000000600fe07b200ae028800b2
:100540008a047800f5ff37000cd0a300e20f4d00bd
:100550001c00390089027800354dba000a05e80010
:10056000020039003420ec000af0a0008b05e900fd
:100570000f003200254dba000a05e80002003900dc
:100580003420ec000af0a0008b05e90008003200de
:100590000c00e0000600320015cdba000a05e800a4
:1005a000020039003420ec000af0a0008b05e900bd
:1005b0008984e80054a0b4000b00e000e2ff3a0098
:1005c000000006009902ba00055d78008b05e9007d
:1005d000f7ff3200c82ade00055d78008b05e900d0
:1005e000f3ff32000c00e000f1ff320019ddba0029
:1005f000eeff37000000fa000108a9000080fa00b1
:10060000004006003600f800809fbe00829fbe00ba
:10061000849fbe00869fbe000000fa000068a9000b
:100620002e0c07005d0a07000080fa004f03be0091
:100630004f02be004f01be004f00be003600f90061
:10064000004006003600f800809fbe00829fbe007a
:10065000849fbe00869fbe000000fa000368a900c8
:10066000508080006180800061004000e080480090
:100670005080880061808800d20207000080fa0064
:100680004f03be004f02be004f01be004f00be0030
:100690003600f90000400600801f78000000fa00d4
:1006a00001a8a90000188000308e88001018800072
:1006b000408e880020188000508e880030188000fe
:1006c000608e880040188000708e880010c0b300d3
:1006d0001ff0b7000080fa004f00780000400600cd
:1006e0003600f800809fbe00829fbe00849fbe003f
:1006f000869fbe000000fa000188a900818080006a
:1007000070808000808f500002003200970b07003d
:10071000010037001270ef000080fa004f03be00a6
:100720004f02be004f01be004f00be003600f90070
:10073000004006003600f800809fbe00829fbe0089
:10074000849fbe00869fbe000000fa000168a900d9
:1007500010118000640060000000e0000100320021
:100760002242a90010118000620060000000e00039
:10077000060032002222a900050037003011800057
:1007800000407800e50b0700010037000000000082
:1007900010118000610060000000e000f7ff3a00e7
:1007a0000080fa004f03be004f02be004f01be00a2
:1007b0004f00be003600f900004006000040da009d
:1007c0000000fe000000050003f0a200889fbe00ac
:1007d0008a9fbe008c1f78001b0107002201330096
:1007e0006450e1004f0032006420e100520032000a
:1007f00003826c0007003b000905d0000306d0000f
:10080000820f54000c065d00020039000200320025
:1008100089017800030678008582550004003d00b8
:100820000003fd008103fd008502ea008b85420084
:10083000840f720002003b0060001000e08018008e
:100840006011b8000005eb007a28e1000a003900c9
:1008500006007800c75ddd00f707b20087807500ed
:100860002d003700828171000a0178006105600067
:100870008180d1000080d3008502e900f9ff3b00b0
:10088000060440008784480002003b006004140016
:10089000e0841c000988a300070032008a817100ef
:1008a00082817100610164008904d1000884d30051
:1008b0008b05e800170037000978a30013003a0001
:1008c0000b00e000130034008b05e900080444002d
:1008d00089844c000a4474000978a3000d003a0092
:1008e0000b00e000070034008b05e9000804440019
:1008f00089844c0001003a000b0020000978a30015
:10090000f7ff32000001eb00020037008281710026
:100910000a017800910007000cf0a70001f0a00088
:10092000da0037006420e10002003a00838f6c0097
:10093000da0033000801be000200be00d300370019
:10094000889fbe008a9fbe008c1f7800be000700f3
:10095000c500330003866c006450e1002e003200b5
:100960006420e100330032006150e1002f003200ca
:100970006120e1003100320085855500eb07b000b1
:100980000900200008042000050037000804440086
:1009900089844c000a0031000603430087834b0022
:1009a0000001530081815b00f8ff33000203be00a9
:1009b0000800a0000804440089844c00f6ff3900b8
:1009c000c639dd00830173000100320013002000ee
:1009d0008904d1000884d3000998a30005003200df
:1009e0000800a7000300a0008904d1000884d300f8
:1009f0008b05e8008904d1000884d3000001eb00d6
:100a00000281d2005500070001f0a1000cf0a70000
:100a100001f0a0009d0037006420e1009f0032003b
:100a20000801be000200be00f7ff37006120e100b0
:100a30009a0032006000b800f3ff37000000200089
:100a400001f82700f0ff370014002000ca0037002b
:100a5000f4ff2f00c80037000001be00650007004a
:100a60000470a70003f0a1006509b1001600320070
:100a70000d0035006828e10006003500f0ff2f006a
:100a8000f1ff27000300e00013003b0001002800f5
:100a90000000050000004000818048008502e90058
:100aa000fcff3a0008003700f88f420002003c00cb
:100ab0008000eb00000005008100d1000080d30021
:100ac0008502e800fcff3a000300e00002003b0062
:100ad00060001000e0801800000006000001be0069
:100ae000440007000470a70003f0a10003f8a3006e
:100af00013003a006509b10010003200090035000a
:100b00006928e1000200350001002800000005000e
:100b100000004000818048008502e900fcff3a00a7
:100b200000000600f88f4200050035008100d1006a
:100b30000080d3008502e800fcff3a0000000600b8
:100b40008000eb00000005004f89de008201780084
:100b5000a40037006011b800b20037008100200007
:100b6000618055000b003d000b00200061fe2f004e
:100b70000100e1001d003400828171006101640008
:100b80008904d1000884d3000000e800faff3a008d
:100b9000710020006100640003007000020060002a
:100ba0000900320061044400e0844c000988a5007b
:100bb000050032008b05e8006808e10002003a00f9
:100bc0008904d1000884d300f20f20000258e1000c
:100bd00005003d00c75ddd00f907b20089807500a2
:100be00008007800000006000bf827008b00780052
:100bf00000000500c70ade00f107b200f50fb200e1
:100c000008003200e1cf4200020032000170a00073
:100c100024000500810f7000010032000408050067
:100c200044000500810f700002003a001400050026
:100c30008502e9000000400081c04800fcff3b0045
:100c40000170a000240005000004be00e9ff0700b9
:100c50000003be000405be000200be00e5ff070061
:100c6000844f7500000006000200be006450e100e1
:100c7000050036006420e100020036000968a30088
:100c800001003a000800be000160a0004f06780095
:100c90004f05be004f04be0000000600f0ff2f000d
:100ca000f1ff2700f9ff3700889fbe008a9fbe0032
:100cb0008c1f7800e4ff0700ebff330003866c0015
:100cc0006450e100240032006420e100270032007b
:100cd0006150e100220032006120e1002100320079
:100ce0008b854200eb07b1000134b800003ab80030
:100cf0000804420089844a00013ab8000030b80074
:100d00008880400009014a000400330000004000d0
:100d100081804800020149008b05e900c909dd0016
:100d2000830170000100320013002000c814de00af
:100d30004814dd004709de001200b200c808de00da
:100d40000884700085ff070001f0a1000cf0a700e7
:100d500001f0a000cdff37006120e100cfff32009d
:100d60000801be000200be00f7ff37006150e1003d
:100d7000fcff3a00c9ff3700889fbe008a9fbe0073
:100d8000841f7800b0ff07004f0078001100330087
:100d9000f0ff2f00838f6c0006003b000405650008
:100da0000a00a7000800370009f0a6001000200084
:100db00008003700820f5400838f5c000300390065
:100dc0001000200001003e000000200009f0a700f4
:100dd0000000ea004f05be004f04be000000e00026
:100de00000000600881f7800030478000300e0007c
:100df00007003d0060001000e0801800600119004d
:100e0000e081190002003b0001f02d0003003700d3
:100e10000400070008f0a70001f0a0004f047800cc
:100e200000000600889fbe008a9fbe0000827000fe
:100e30000402710004827100260032000004be002a
:100e40000200be006011b8006b092000950220006e
:100e50000182cf000a0039000541b1000082cf00b5
:100e6000070039000541b1000982cf0004003900b4
:100e70000541b1000882cf00010039000541b100f1
:100e800005425200120032000a003b0082817100cc
:100e9000610164008100d1000080d3008984d30007
:100ea0000884d3008b05e8000442e800f7ff3a000d
:100eb000070037000804440089844c000000480003
:100ec000818048008b05e9000442e900f9ff3a00ff
:100ed00022ff07004f05be004f04be0000000600c1
:020000040000fa
:100ee0000c00fa00889fbe00800a07006000b8006e
:100ef000d08d8800e18d88006000b800108e8800d9
:100f0000218e8800cb0a070008080700fa050700b1
:100f10001206070090060700b60907003f0a0700ff
:100f20000100370000000000f4090700e14f500005
:100f3000fcff3a00f5090700ec09070010079800cc
:100f40001e009000100078008000eb0001ff0700f9
:100f5000323323003305240053ff07000200200032
:100f60000358240076fe0700d2cc2c00c3042400d2
:100f70004dff070020079800310798002e019000d0
:100f8000be01900000002000812024006cfe0700bc
:100f900002002000030a24000bfe0700108d8800c9
:100fa000218d88001e0090000080e800100078006d
:100fb0008000eb00e7fe07003233230033052400f6
:100fc00039ff070002002000035824005cfe0700e0
:100fd000d2cc2c00c304240033ff07002007980064
:100fe000310798002e019000be0190000000200003
:100ff0008120240052fe070002002000030a240082
:10100000f1fd0700308d8800418d88001e009000a2
:1010100064004000100078008000eb00cdfe070067
:1010200032332300330524001fff07000200200095
:101030000358240042fe0700d2cc2c00c304240035
:1010400019ff070020079800310798002e01900033
:10105000be019000000020008120240038fe07001f
:1010600002002000030a2400d7fd0700508d8800ed
:10107000618d88001e00900068004000100078001c
:101080008000eb00b3fe0700323323003305240059
:1010900005ff0700020020000358240028fe070077
:1010a000d2cc2c00c3042400fffe070020079800c8
:1010b000310798002e019000be0190000000200032
:1010c000812024001efe070002002000030a2400e5
:1010d000bdfd0700708d8800818d88001e00900086
:1010e00066004000100078008000eb0099fe0700c9
:1010f0003233230033052400ebfe070002002000fa
:10110000035824000efe0700d2cc2c00c304240098
:10111000e5fe070020079800310798002e01900097
:10112000be019000000020008120240004fe070082
:1011300002002000030a2400a3fd0700908d880010
:10114000a18d8800708d8000818d800063fe070076
:1011500080447800508d8000618d80005ffe070024
:1011600000447800308d8000418d80005bfe0700d8
:1011700000407800194f9800284f9800304f980091
:1011800069004700000178003100200000032000c2
:10119000980607000000eb00000f780005003700fc
:1011a00070090700004f98000e489000fd060700e8
:1011b0001e0fe800840907009e0f5000f8ff3c0056
:1011c00059ff37000000fa001170800000802000f5
:1011d000008060000000e000ac0032001cd0bf00c6
:1011e0000080fb00cf80de005201200003002000c1
:1011f000820f5000838f5800a2003e0000060100bd
:10120000150037001e003700270037003300370075
:10121000430037004e0037004f0037005a003700b8
:1012200079003700850037008600370092003700cc
:101230005700370063003700640037007000370044
:10124000900037008f0037008e0037008d00370088
:1012500024003700300037000a30ef000c30ef0078
:1012600012c0b3006000b800ed0707000041eb00ba
:101270006000b800ea07070010c0b3001cf0b70018
:101280005280800063808000803e200001002000aa
:10129000800f5100818f59008700360020c0b300b5
:1012a0001cf0b7008500370012c0b300000020001a
:1012b000011f2400da0707000041eb0000002000b6
:1012c000011f2400d607070030c0b3001cf0b70090
:1012d00064cea90064eea900780037007900070009
:1012e0007600370012c0b300000020000122240065
:1012f000cb0707000041eb00000020000122240082
:10130000c707070050c1b3001cf0b70064cea900a6
:1013100064eea800690037006a0007006700370024
:1013200012c0b30000002000011a2400bc0707000f
:101330000041eb006000b800b907070050c0b300df
:101340001cf0b70064cea90064eea9005b00370072
:101350005c0007005900370012c0b3006000b800fd
:10136000af0707000041eb0000002000011a240035
:10137000ab07070064cea90064eea90070c0b300fb
:101380001cf0b7004d0037004e0007004b0037003f
:1013900012c0b3000000200001122c00a0070700bb
:1013a0000041eb0000002000011a24009c07070008
:1013b000d0c0b3001cf0b70064cea90064eea90051
:1013c0003e0037003f0007003c00370012c0b3006a
:1013d00000002000011a2400910707000041eb00e3
:1013e0000000200001122c008d07070064cea90028
:1013f00064eea900d0c0b3001cf0b7002f00370086
:10140000300007002d00370012c0b300000020009c
:10141000011a2400820707000041eb0000002000b1
:10142000011a2c007e07070090c0b3001cf0b70023
:1014300064cea90064eea900200037002100070057
:101440001e00370012c0b30000002000011a2c005b
:10145000730707000041eb0000002000011a240080
:101460006f070700b0c0b3001cf0b70064cea9003e
:1014700064eea90011003700120007000000000010
:101480000e0037001c70ef000c0037000a30ef0030
:101490000c30ef0012c0b3006000b8006007070016
:1014a0000041eb006000b8005d07070020c0b300fa
:1014b0001cf0b70001003700000000000080fa00b7
:1014c000000006001200fa00889fbe008a1f780004
:1014d0000040eb00004f78006001200010079800ea
:1014e00000022000200798005002200030079800da
:1014f000000220004007980060012000500798007b
:10150000988d8000a98d80001e009000cf80de00a5
:101510008dfd07001ac0b3000001be000800be0028
:101520004bfd07000000e00001003c000045eb001f
:101530000a04e0003b003200788d8000898d800035
:101540002e009000cf80de007ffd07001ac0b300a0
:101550000001be000800be003dfd07000000e000e5
:1015600001003c000045eb000a04e0002d003200c1
:10157000588d8000698d80003e009000cf80de0095
:1015800071fd07001ac0b3000001be000800be00d4
:101590002dfd07000000e000010035000045eb00d4
:1015a0000a04e0001f003200388d8000498d800061
:1015b0004e009000cf80de0063fd07001ac0b3002c
:1015c0000001be000800be0021fd07000000e00091
:1015d00001003c000045eb000a04e000110032006d
:1015e000188d8000298d80005e009000cf80de0085
:1015f00055fd07001ac0b3000001be000800be0080
:1016000013fd07000000e00001003c000045eb0076
:101610000a04e0000300320030c0b300004f78003d
:10162000e1033700708d8000818d800018c0b30009
:10163000020020000317240003fd07000000e00063
:10164000010035000044eb000804e0000e00320009
:10165000308d8000418d800018c0b3000200200052
:1016600003172400f8fc07000000e000010035002b
:101670000044eb000804e0000300320030c0b30077
:10168000004f7800c8033700988d8000a98d800036
:101690001e009000cf80de002bfd07001ac0b300b3
:1016a0000001be000800be00e9fc07000000e000e9
:1016b00001003c000045eb000a04e0003b00320062
:1016c000788d8000898d80002e009000cf80de0014
:1016d0001dfd07001ac0b3000001be000800be00d7
:1016e000dbfc07000000e00001003c000045eb00cf
:1016f0000a04e0002d003200588d8000698d8000c2
:101700003e009000cf80de000ffd07001ac0b3003e
:101710000001be000800be00cdfc07000000e00094
:1017200001003c000045eb000a04e0001f0032000d
:10173000388d8000498d80004e009000cf80de0003
:1017400001fd07001ac0b3000001be000800be0082
:10175000bffc07000000e00001003c000045eb007a
:101760000a04e00011003200188d8000298d8000ed
:101770005e009000cf80de00f3fc07001ac0b300cb
:101780000001be000800be00b1fc07000000e00040
:1017900001003c000045eb000a04e00003003200b9
:1017a00060c0b300004f78007f033700988d800041
:1017b000a98d80001e009000cf80de00e2fc0700b3
:1017c0001ac0b3000001be000800be00a0fc070064
:1017d0000000e00001003c000045eb000a04e000ce
:1017e0003b003200788d8000898d80002e009000b3
:1017f000cf80de00d4fc07001ac0b3000001be0099
:101800000800be0092fc07000000e00001003c0060
:101810000045eb000a04e0002d003200588d8000e6
:10182000698d80003e009000cf80de00c6fc07007e
:101830001ac0b3000001be000800be0084fc07000f
:101840000000e00001003c000045eb000a04e0005d
:101850001f003200388d8000498d80004e009000be
:10186000cf80de00b8fc07001ac0b3000001be0044
:101870000800be0076fc07000000e00001003c000c
:101880000045eb000a04e00011003200188d8000d2
:10189000298d80005e009000cf80de00aafc07004a
:1018a0001ac0b3000001be000800be0066fc0700bd
:1018b0000000e000010035000045eb000a04e000f4
:1018c0000300320050c0b300004f780036033700e9
:1018d000988d8000a98d80001e009000cf80de00d2
:1018e00099fc07001ac0b3000001be000800be004a
:1018f00057fc07000000e00001003c000045eb0041
:101900000a04e0003b003200788d8000898d800061
:101910002e009000cf80de008bfc07001ac0b300c1
:101920000001be000800be0049fc07000000e00006
:1019300001003c000045eb000a04e0002d003200ed
:10194000588d8000698d80003e009000cf80de00c1
:101950007dfc07001ac0b3000001be000800be00f5
:101960003bfc07000000e00001003c000045eb00ec
:101970000a04e0001f003200388d8000498d80008d
:101980004e009000cf80de006ffc07001ac0b3004d
:101990000001be000800be002bfc07000000e000b4
:1019a000010035000045eb000a04e00011003200a0
:1019b000188d8000298d80005e009000cf80de00b1
:1019c00061fc07001ac0b3000001be000800be00a1
:1019d0001dfc07000000e000010035000045eb00a1
:1019e0000a04e0000300320020c0b300004f78007a
:1019f000ed023700988d8000a98d80001e009000b8
:101a0000cf80de0050fc07001ac0b3000001be000a
:101a10000800be000efc07000000e00001003c00d2
:101a20000045eb000a04e0003b003200788d8000a6
:101a3000898d80002e009000cf80de0042fc0700e0
:101a40001ac0b3000001be000800be0000fc070081
:101a50000000e00001003c000045eb000a04e0004b
:101a60002d003200588d8000698d80003e0090006e
:101a7000cf80de0034fc07001ac0b3000001be00b6
:101a80000800be00f2fb07000000e00001003c007f
:101a90000045eb000a04e0001f003200388d800092
:101aa000498d80004e009000cf80de0026fc0700ac
:101ab0001ac0b3000001be000800be00e2fb070030
:101ac0000000e000010035000045eb000a04e000e2
:101ad00011003200188d8000298d80005e0090007a
:101ae000cf80de0018fc07001ac0b3000001be0062
:101af0000800be00d6fb07000000e00001003c002b
:101b00000045eb000a04e0000300320020c0b300ef
:101b1000004f7800a4023700988d8000a98d8000c6
:101b20001e009000cf80de0007fc07001ac0b30043
:101b30000001be000800be00c3fb07000000e0007b
:101b4000010035000045eb000a04e0003b003200d4
:101b5000788d8000898d80002e009000cf80de007f
:101b6000f9fb07001ac0b3000001be000800be0068
:101b7000b7fb07000000e00001003c000045eb005f
:101b80000a04e0002d003200588d8000698d80002d
:101b90003e009000cf80de00ebfb07001ac0b300d0
:101ba0000001be000800be00a9fb07000000e00025
:101bb00001003c000045eb000a04e0001f00320079
:101bc000388d8000498d80004e009000cf80de006f
:101bd000ddfb07001ac0b3000001be000800be0014
:101be0009bfb07000000e00001003c000045eb000b
:101bf0000a04e00011003200188d8000298d800059
:101c00005e009000cf80de00cffb07001ac0b3005b
:101c10000001be000800be008dfb07000000e000d0
:101c200001003c000045eb000a04e0000300320024
:101c300040c0b300004f78005b023700988d8000f1
:101c4000a98d80001e009000cf80de00befb070043
:101c50001ac0b3000001be000800be007afb0700f6
:101c60000000e000010035000045eb000a04e00040
:101c70003b003200788d8000898d80002e0090001e
:101c8000cf80de00b0fb07001ac0b3000001be0029
:101c90000800be006cfb07000000e00001003500fa
:101ca0000045eb000a04e0002d003200588d800052
:101cb000698d80003e009000cf80de00a2fb07000f
:101cc0001ac0b3000001be000800be0060fb0700a0
:101cd0000000e00001003c000045eb000a04e000c9
:101ce0001f003200388d8000498d80004e0090002a
:101cf000cf80de0094fb07001ac0b3000001be00d5
:101d00000800be0052fb07000000e00001003c009c
:101d10000045eb000a04e00011003200188d80003d
:101d2000298d80005e009000cf80de0086fb0700da
:101d30001ac0b3000001be000800be0044fb07004b
:101d40000000e00001003c000045eb000a04e00058
:101d50000300320010c0b300004f780012023700b9
:101d6000988d8000a98d80001e009000cf80de003d
:101d700075fb07001ac0b3000001be000800be00da
:101d800033fb07000000e00001003c000045eb00d1
:101d90000a04e0003b003200788d8000898d8000cd
:101da0002e009000cf80de0067fb07001ac0b30052
:101db0000001be000800be0023fb07000000e00099
:101dc000010035000045eb000a04e0002d00320060
:101dd000588d8000698d80003e009000cf80de002d
:101de00059fb07001ac0b3000001be000800be0086
:101df00017fb07000000e00001003c000045eb007d
:101e00000a04e0001f003200388d8000498d8000f8
:101e10004e009000cf80de004bfb07001ac0b300dd
:101e20000001be000800be0009fb07000000e00042
:101e300001003c000045eb000a04e0001100320004
:101e4000188d8000298d80005e009000cf80de001c
:101e50003dfb07001ac0b3000001be000800be0031
:101e6000fbfa07000000e00001003c000045eb0029
:101e70000a04e0000300320010c0b300004f7800f5
:101e8000c9013700988d8000a98d80001e00900048
:101e9000cf80de002cfb07001ac0b3000001be009b
:101ea0000800be00eafa07000000e00001003c0064
:101eb0000045eb000a04e0003b003200788d800012
:101ec000898d80002e009000cf80de001efb070071
:101ed0001ac0b3000001be000800be00dcfa070013
:101ee0000000e00001003c000045eb000a04e000b7
:101ef0002d003200588d8000698d80003e009000da
:101f0000cf80de0010fb07001ac0b3000001be0046
:101f10000800be00ccfa07000000e0000100350018
:101f20000045eb000a04e0001f003200388d8000fd
:101f3000498d80004e009000cf80de0002fb07003c
:101f40001ac0b3000001be000800be00befa0700c0
:101f50000000e000010035000045eb000a04e0004d
:101f600011003200188d8000298d80005e009000e5
:101f7000cf80de00f4fa07001ac0b3000001be00f3
:101f80000800be00b2fa07000000e00001003c00bb
:101f90000045eb000a04e0000300320030c0b3004b
:101fa000004f780080013700988d8000a98d800057
:101fb0001e009000cf80de00e3fa07001ac0b300d5
:101fc0000001be000800be00a1fa07000000e0000a
:101fd00001003c000045eb000a04e0003b00320039
:101fe000788d8000898d80002e009000cf80de00eb
:101ff000d5fa07001ac0b3000001be000800be00f9
:1020000091fa07000000e000010035000045eb00f8
:102010000a04e0002d003200588d8000698d800098
:102020003e009000cf80de00c7fa07001ac0b30060
:102030000001be000800be0083fa07000000e000b7
:10204000010035000045eb000a04e0001f003200eb
:10205000388d8000498d80004e009000cf80de00da
:10206000b9fa07001ac0b3000001be000800be00a4
:1020700077fa07000000e00001003c000045eb009b
:102080000a04e00011003200188d8000298d8000c4
:102090005e009000cf80de00abfa07001ac0b300ec
:1020a0000001be000800be0069fa07000000e00061
:1020b00001003c000045eb000a04e0000300320090
:1020c00030c0b300004f780037013700988d800092
:1020d000a98d80001e009000cf80de009afa0700d4
:1020e0001ac0b3000001be000800be0058fa070085
:1020f0000000e00001003c000045eb000a04e000a5
:102100003b003200788d8000898d80002e00900089
:10211000cf80de008cfa07001ac0b3000001be00b9
:102120000800be0048fa07000000e000010035008a
:102130000045eb000a04e0002d003200588d8000bd
:10214000698d80003e009000cf80de007efa07009f
:102150001ac0b3000001be000800be003afa070032
:102160000000e000010035000045eb000a04e0003b
:102170001f003200388d8000498d80004e00900095
:10218000cf80de0070fa07001ac0b3000001be0065
:102190000800be002cfa07000000e0000100350036
:1021a0000045eb000a04e00011003200188d8000a9
:1021b000298d80005e009000cf80de0062fa07006b
:1021c0001ac0b3000001be000800be0020fa0700dc
:1021d0000000e00001003c000045eb000a04e000c4
:1021e0000300320030c0b300004f7800ee0037002b
:1021f000988d8000a98d80001e009000cf80de00a9
:1022000051fa07001ac0b3000001be000800be006a
:102210000ffa07000000e00001003c000045eb0061
:102220000a04e0003b003200788d8000898d800038
:102230002e009000cf80de0043fa07001ac0b300e2
:102240000001be000800be0001fa07000000e00027
:1022500001003c000045eb000a04e0002d003200c4
:10226000588d8000698d80003e009000cf80de0098
:1022700035fa07001ac0b3000001be000800be0016
:10228000f1f907000000e000010035000045eb0017
:102290000a04e0001f003200388d8000498d800064
:1022a0004e009000cf80de0027fa07001ac0b3006e
:1022b0000001be000800be00e3f907000000e000d6
:1022c000010035000045eb000a04e0001100320077
:1022d000188d8000298d80005e009000cf80de0088
:1022e00019fa07001ac0b3000001be000800be00c2
:1022f000d5f907000000e000010035000045eb00c3
:102300000a04e0000300320020c0b300004f780050
:10231000a5003700988d8000a98d80001e009000d8
:10232000cf80de0008fa07001ac0b3000001be002b
:102330000800be00c4f907000000e00001003500fd
:102340000045eb000a04e0003b003200788d80007d
:10235000898d80002e009000cf80de00faf9070002
:102360001ac0b3000001be000800be00b6f90700a5
:102370000000e000010035000045eb000a04e00029
:102380002d003200588d8000698d80003e00900045
:10239000cf80de00ecf907001ac0b3000001be00d8
:1023a0000800be00a8f907000000e00001003500a9
:1023b0000045eb000a04e0001f003200388d800069
:1023c000498d80004e009000cf80de00def90700ce
:1023d0001ac0b3000001be000800be009af9070051
:1023e0000000e000010035000045eb000a04e000b9
:1023f00011003200188d8000298d80005e00900051
:10240000cf80de00d0f907001ac0b3000001be0083
:102410000800be008ef907000000e00001003c004b
:102420000045eb000a04e0000300320010c0b300d6
:10243000004f78005c003700988d8000a98d8000e7
:102440001e009000cf80de00bff907001ac0b30065
:102450000001be000800be007bf907000000e0009c
:10246000010035000045eb000a04e0003b003200ab
:10247000788d8000898d80002e009000cf80de0056
:10248000b1f907001ac0b3000001be000800be0089
:102490006ff907000000e00001003c000045eb0080
:1024a0000a04e0002d003200588d8000698d800004
:1024b0003e009000cf80de00a3f907001ac0b300f1
:1024c0000001be000800be0061f907000000e00046
:1024d00001003c000045eb000a04e0001f00320050
:1024e000388d8000498d80004e009000cf80de0046
:1024f00095f907001ac0b3000001be000800be0035
:1025000053f907000000e00001003c000045eb002b
:102510000a04e00011003200188d8000298d80002f
:102520005e009000cf80de0087f907001ac0b3007c
:102530000001be000800be0043f907000000e000f3
:10254000010035000045eb000a04e0000300320002
:102550000040eb00004f780013003700588d8000da
:10256000698d80003e009000cf80de0076f9070084
:102570001ac0b3000001be000800be0032f9070017
:102580000000e000010035000045eb000a04e00017
:102590000300320030c0b300004f78000200370063
:1025a0000040eb00004f78001e4078000004e0007f
:1025b00003003a0020c0b3001df0b700230037002d
:1025c0001e407800e64f500003003a0040c1b300bf
:1025d0001df0b7001d0037001e407800e24f50008c
:1025e00003003a0040c0b3001df0b70017003700e9
:1025f0001e407800e54f500003003a00e0c0b300f1
:102600001df0b700110037001e407800e14f500068
:1026100003003a0060c0b3001df0b7000b003700a4
:102620001e407800e44f500003003a00c0c0b300e1
:102630001df0b700050037001e407800e34f500042
:1026400002003a0080c0b3001df0b7001dd0bf00eb
:102650008080fb001cd0bf000080fb000000e90070
:10266000808f5000200032001dd0bf001cf0b7004a
:10267000c501210095427800508080006180800073
:102680004808de00004278005080800061808000b1
:102690004008de008041780050808000618080002a
:1026a0004809dd004800de0000007100c808de00b7
:1026b00000417800508080006180800000407800f8
:1026c000454f9800544f9800634f9800724f980000
:1026d000005798006c00470000017800510020006e
:1026e00000052000430107004f0578004f04be009d
:1026f0000080fa00000006000000fa0013e1a900c3
:1027000011e1a9001061a8001021a9008108800032
:10271000f0fc2f0000806000800888000a21ef0094
:102720000621ef00202620007008880000a0250068
:10273000600888002142800080ff2f000080600038
:102740000000a000204288000108a9002108a8007c
:1027500011e1a8000080fa00000006000000fa0065
:1027600005e1a9000421a90000002000812c24001b
:10277000050007000068a9002068a80005e1a8007e
:102780000080fa00000006000400fa00881f7800ac
:10279000008fbe0021088000f0fc2f000080600048
:1027a000200888001e0178009e0190000068290022
:1027b00081c1240062f8070018c0b30002f02f00a6
:1027c000f3772400a2f807000000e00001003c00bd
:1027d0000044eb000804e0005400320021088000af
:1027e000f0fc2f00008060000040a000200888005e
:1027f0001e0178009e0190000068290081c124001c
:102800004ff8070002002000031024004cf80700d6
:1028100018c0b30002f02f00f37724008cf80700f3
:102820000000e00001003c000044eb000804e00070
:102830003200320021088000f0fc2f000080600090
:102840000050a000200888001e0178009e01900022
:102850000068290081c1240039f807000200200027
:102860000328240036f8070018c0b30002f02f0038
:10287000f377240076f807000000e00001003c0038
:102880000044eb000804e000100032002108800042
:102890000003200001007000200888001e0178005d
:1028a0009e0190000068290081c1240024f80700df
:1028b000020020000338240021f8070066f8070012
:1028c0000000780010088800200037001e01780002
:1028d0009e0190000068290081c1240018f80700bb
:1028e000020020000328240015f807005af807000a
:1028f0000000780010088800140037001e017800de
:102900009e0190000068290081c124000cf8070096
:10291000020020000310240009f807004ef8070009
:102920000000780010088800080037001e017800b9
:102930009e0190000068290081c1240000f8070072
:1029400045f8070000007800100888004f04780060
:102950000080fa00000006000000fa001fe1a90054
:102960001e21a90000002000a14724000500070047
:102970000368a9002368a8001fe1a8000080fa00ee
:10298000000006000400fa00881f7800008fbe00d7
:10299000f1088000f0fc2f0000806000f008880043
:1029a0001e0178009e0190000068290081c124006a
:1029b000e3f7070018c0b30002f02f00f3772400fc
:1029c00023f807000000e00001003c000044eb0099
:1029d0000804e00054003200f1088000f0fc2f00f1
:1029e000008060000040a000f00888001e01780010
:1029f0009e0190000068290081c12400d0f70700e3
:102a00000200200003102400cdf7070018c0b30017
:102a100002f02f00f37724000df807000000e0001b
:102a200001003c000044eb000804e00032003200ea
:102a3000f1088000f0fc2f00008060000050a00032
:102a4000f00888001e0178009e01900000682900af
:102a500081c12400baf707000200200003282400e7
:102a6000b7f7070018c0b30002f02f00f377240077
:102a7000f7f707000000e00001003c000044eb0015
:102a80000804e00010003200f1088000000320007c
:102a900001007000f00888001e0178009e0190007f
:102aa0000068290081c12400a5f70700020020006a
:102ab00003382400a2f70700e7f7070000007800ba
:102ac000d0088800200037001e0178009e01900089
:102ad0000068290081c1240099f707000200200046
:102ae0000328240096f70700dbf7070000007800b2
:102af000d0088800140037001e0178009e01900065
:102b00000068290081c124008df707000200200021
:102b1000031024008af70700cff7070000007800b1
:102b2000d0088800080037001e0178009e01900040
:102b30000068290081c1240081f70700c6f707005b
:102b400000007800d00888004f0478000080fa0068
:102b5000000006000a00fa002007980031079800dc
:102b6000420798000040eb00004f7800e0cfb30030
:102b70001e4f68002e0090004880de000040780064
:102b80001e4f68002e009000004078001e4f680025
:102b90003e0090004880de00004078001e4f680034
:102ba0003e009000004078001e4f68000000eb00df
:102bb00010079800080037001e009000ce0090001b
:102bc00000804000104078001e4f68001e009000fa
:102bd0000000e800100798009e0090003e00900062
:102be000808f5000f4ff35001e4078000080fa000e
:102bf000000006000e00fa00889fbe004007980003
:102c000051079800620798000f0478000f007800c1
:102c1000800478005e009000660040008000e900bb
:102c2000210798000000e8000000e8000000d10043
:102c3000800040000f007800818747000000e80016
:102c40000000d10000004000300798000000eb00b9
:102c500010079800be0090001e0090000080400009
:102c6000e1cfb300014878001e0090000000e800aa
:102c7000100798004e0090004880de0080407800e9
:102c80003e0190001e0090000000410001487800c5
:102c90001e0090000000e800100798004e00900011
:102ca000804078003e0190001e009000000041002e
:102cb000014878001e0090000000e800100798000e
:102cc0005e0090004880de00804078003e01900069
:102cd0001e00900000004100014878001e00900096
:102ce0000000e800100798005e0090008040780027
:102cf0003e0190001e009000000041000148780055
:102d00001e0090000000e800100798000000eb0093
:102d1000000f78000c0037001e007800ee009000d5
:102d200000804000904078003e0190001e0090001e
:102d300000004100014878001e0090000000e800fb
:102d4000100798001e0fe8005e0090009e007800bb
:102d5000808f5000f0ff35006e019000de00900083
:102d60004e0090007bff07003e0190009e00900007
:102d700081004100804878001e0090000000e800bb
:102d8000100798003e0090009e009000bd010700d3
:102d900089077800880778004f04be000080fa0099
:102da000000006000400fa002047980030808000f0
:102db000e30f500023003200e30f500005003e00f7
:102dc000e10f500010003200e10f500015003e00ee
:102dd00007003700e50f500029003200e50f5000d2
:102de0001f003900e60f5000380032004000370065
:102df0002e409000e24f400040003a0010002000ba
:102e000030808800400037002e4090000080fb009a
:102e10004800dd000080880020002000308088000d
:102e2000390037002e4090008080fb000080800039
:102e30000080400000808800300020003080880042
:102e4000310037002e4090000080fb004800dd007c
:102e50001080880040002000308088002a00370061
:102e60002e4090008080fb00108080000080400099
:102e70001080880050002000308088002200370039
:102e80002180800010808000808f500008003d006d
:102e9000208080000112210000804000ae409000a0
:102ea00001487800208080000000e8002080880031
:102eb0002180800010808000808f5000110035003c
:102ec00060002000308088000f003700ae40900086
:102ed000014f7800118080000080800002122100e4
:102ee0001cff0700104798000630ef00060037006f
:102ef0000630ef0000000000030037000000000073
:102f000001003700000000000080fa000000060009
:102f10000600fa00000f78001107980022079800b9
:102f2000000000000080fa00000006000000fa0027
:102f30001160800080ff2f0000806000106088001a
:102f400000fa20002060880023aca800238ca80091
:102f500011618000f03f2f000080600000a0a00001
:102f6000106188003000200020618800c3aca800f8
:102f7000c38ca80011668000f03f2f000080600025
:102f800000a0a000106688003000200020668800a5
:102f900001eca8000080fa00000006000000fa0022
:102fa000889fbe00148e8000258e8000f08d8000ea
:102fb000018e800018c0b3000001be000400be00f6
:102fc000a1f607000000e000010035000044eb001e
:102fd0000804e0000d003200f88d8000098e8000aa
:102fe000148e8000258e8000a0808000b18080003b
:102ff0000001be000400be00f4f507000801be0099
:10300000c7000700108e8800218e8800148e800073
:10301000258e8000f08d8000018e800018c0b300e6
:103020000001be000400be0089f607000000e000b9
:1030300001003c000044eb000804e0000d003200f9
:10304000f88d8000098e8000148e8000258e80000f
:10305000a0808000b18080000001be000400be009e
:10306000d9f507000801be0095000700108e880002
:10307000218e8800108e8000218e800018c0b30041
:103080006011b80072f607000000e00001003c008b
:103090000044eb000804e00004003200c3cca900a7
:1030a00024eea800c3eca80003003700c3eca9007d
:1030b00024cea800c3cca800108e8000218e8000f2
:1030c000690007000200200003222400f6f6070032
:1030d00082f607000000780030668800d48d8000fa
:1030e000e58d8000b08d8000c18d800018c0b300d8
:1030f0000001be000400be0053f607000000e0001f
:10310000010035000044eb000804e0000d0032002f
:10311000b88d8000c98d8000d48d8000e58d800041
:10312000a0808000b18080000001be000400be00cd
:10313000a6f507000801be0079000700d08d8800c1
:10314000e18d8800d48d8000e58d8000b08d8000f9
:10315000c18d800018c0b3000001be000400be0095
:103160003bf607000000e00001003c000044eb00db
:103170000804e0000d003200b88d8000c98d800089
:10318000d48d8000e58d8000a0808000b18080001b
:103190000001be000400be008bf507000801be0060
:1031a00047000700d08d8800e18d8800d08d800019
:1031b000e18d800018c0b3006011b80024f607004c
:1031c0000000e00001003c000044eb000804e000c7
:1031d0000400320023cca90015eea80023eca800bf
:1031e0000300370023eca90015cea80023cca800cb
:1031f000d08d8000e18d80001b00070002002000c0
:1032000003222400a8f6070034f607000000780027
:10321000306188004f04be000080fa000000060004
:103220000600fa00008fbe00424798004e40900012
:103230000004e00005003a001e0178009e019000a5
:10324000b28d8800c38d8800050037001e0078000d
:103250009e00900001f0a200f08d8800018e880091
:103260000080fa00000006000400fa00881f7800c1
:10327000008fbe0018c0b3006011b8001e007800b7
:103280009e009000f2f507000000e00001003d0004
:103290000044eb000804e000030032001e00780048
:1032a0009e009000030037001e0078009e009000f2
:1032b00001f0a2004f0478000080fa000000060030
:1032c0000800fa00881f7800008fbe0022079800cf
:1032d0003307980018c0b3002e019000be01900083
:1032e0001e0078009e009000d9f507000000e00065
:1032f00001003c000044eb000804e0000300320041
:103300001e0078009e009000020037002e00900002
:10331000be0090004f0478000080fa000000060014
:103320000800fa00881f7800008fbe00220798006e
:103330003307980018c0b3002e019000be01900022
:103340001e0078009e009000bff507000000e0001e
:10335000010035000044eb000804e00003003200e7
:103360001e0078009e009000020037002e009000a2
:10337000be0090004f0478000080fa0000000600b4
:103380000c00fa00881f7800008fbe00220798000a
:1033900033079800440798005507980018c0b300f9
:1033a0004e019000de0190001e0078009e0090000b
:1033b000a7f507000000e00001003c000044eb001e
:1033c0000804e000040032004e019000de0190008d
:1033d000028fbe000e00370018c0b3002e0190000f
:1033e000be0190001e0078009e00900096f5070038
:1033f0000000e000010035000044eb000804e0009c
:10340000030032002e019000be019000028fbe002a
:103410001e0078009e0090004f0478000080fa00a3
:10342000000006000400fa00008fbe00b2fd20007c
:10343000930424001e0078009e00900040f50700d1
:10344000020020004333240017f607000080fa0032
:10345000000006000400fa00008fbe00b2fd20004c
:10346000930424001e0078009e0090000ef60700d2
:10347000020020004333240031f507000080fa00e9
:10348000000006000600fa001007980021079800c7
:103490000040eb00004f780050000700ae009000a5
:1034a000810f5000110035000040eb00004f780004
:1034b000060037001e80fb009e0090000080400048
:1034c000104078000b0007001e4fe8009e80fb00b4
:1034d0002e009000808f5000f6ff35002c00070072
:1034e0000004e00001003a00200007000080fa001c
:1034f000000006000200fa00004f78007080800093
:1035000001022100808040009e4878000000e80011
:10351000708088007180800000082000808f50003b
:1035200001003a000e30ef000080fa0000000600b3
:103530000200fa00808080000102210080804000ab
:10354000114f78000000e8008080880081808000b2
:1035500000082000808f500001003a001030ef007a
:103560001e4078000080fa00000006000200fa0009
:1035700010c0b30012f0b700edff0700004f780055
:103580001e80fb00201188000080fa000000060069
:103590000000fa0012d0bf000080fa000000060010
:1035a0000000fa007180800080808000808f5000d1
:1035b0000400350071808000808080000080500011
:1035c00004003700718080008080800000805000ff
:1035d0000008b0000080fa00000006000000fa00b9
:1035e000efff070001082000008050000080fa0073
:1035f000000006000000fa0021e3a9002143a80012
:1036000001198000f0cf2f000080600000198800b1
:103610002043a90001198000000e20000100700065
:103620000019880011198000f0ff2100008060005f
:10363000101988002343a80011198000f0cf2f0033
:1036400000806000101988001119800030f82f00e8
:10365000008060000040a000101988002203a9002b
:103660002223a90025e3a900f0c0b30024e3b7009a
:1036700021198000f00f2e008080600000f02000f3
:1036800001007000201988003303a9002e0ea80045
:103690002f6ea8006f2ea8001e2ea8004feea800c7
:1036a0003063a80030c3a8003163a80031e3a8004c
:1036b0002e03a8004119800000fc2f00008060004c
:1036c0004019880028e3a90001a8a90021a8a800a2
:1036d00021e3a8000080fa00000006000000fa00c4
:1036e0002023a8000080fa00000006000000fa0075
:1036f000601c21000080fa00000006000000fa00b3
:103700001fd0bf000080fa00000006000000fa0091
:103710001f70ef000080fa00000006000200fa00af
:10372000004f7800370007000000e0000b00340075
:10373000c0808000010a2100808040009e487800ff
:103740000000e800c0808800c180800000082000e0
:10375000808f500001003a001830ef000080fa001e
:10376000000006000200fa00d0808000010a21005b
:1037700080804000114f78000000e800d080880071
:10378000d180800000082000808f500001003a00a6
:103790001a30ef001e4078000080fa00000006009a
:1037a0000000fa00c1808000d0808000808f50002f
:1037b0000200320010c0b300010037000040eb00ef
:1037c0000080fa00000006000000fa00c1808000be
:1037d000d0808000808f500004003500c1808000c0
:1037e000d08080000080500004003700c18080003d
:1037f000d0808000008050000008b0000080fa00f7
:10380000000006000000fa00efff0700010820009a
:10381000008050000080fa00000006000000fa005e
:103820002002a9000111800090ff2f00008060009d
:103830000011880020a2a9002062a80050052000e5
:103840004011880023a2a90023e2a9000188a90051
:103850002188a80011118000f0f32f000080600083
:10386000101188000168a9002168a80021e2a800c1
:103870002342a8000080fa00000006000600fa00bb
:1038800010079800210798000040eb00004f7800d7
:103890000040eb00004f78000e00370000000000f1
:1038a0001111800000202000008060000000e00076
:1038b000fbff3a001e009000104078000080fb00e3
:1038c000201188001e0090000000e80010079800fa
:1038d0001e4fe8009e80fb002e009000808f50005d
:1038e000eeff35000080fa00000006000000fa003c
:1038f000f0032000303a8800213a8000f0f32f00d6
:1039000000806000203a8800213a800000fe2f00ed
:10391000008060000000a000203a88001200200013
:1039200080072000a109200033742000804978001e
:103930008149780082497800103a800000017800bf
:103940000200a00060042000710520002374200004
:1039500080497800814978008249780000000000a1
:10396000113a8000000027008080600000002100e4
:10397000808f5000faff3a0000000000113a8000ea
:1039800000022000008060000000e000fbff320029
:083990000080fa0000000600af
:020000040000fa
:103998001c10000002000000800000000810000059
:1039a8000600000080000000a011000026000000b2
:1039b80080000000141000000400000082000000d5
:1039c8000000200041000000c61100000a000000ad
:1039d800800000001e1000000200000080000000af
:1039e8002010000080000000800000000e10000081
:1039f8000600000080000000a01000008000000009
:103a08008000000018100000040000008000000082
:103a1800201100008000000080000000001000005d
:0c3a28000800000080000000000000000a
:020000040000fa
:103a34000000fa000e2eef001e2eef002e2eef00d7
:103a44003e2eef004e2eef005e2eef006e2eef00a6
:103a5400214ea90060cea90060eea900016ea80065
:103a640011cea90011eea90020cea90020eea900d4
:103a7400200ea800216ea800612ea800102ea80018
:103a840041cea8002136800000f82f00008060009d
:103a94008001b300203688001134800000fc2f0020
:103aa400008060000000a000103488000080fa004c
:043ab4000000060008
:020000040000fa
:02000004000af0
:04afe000cfff00009f
:020000040000fa
:02000004000af0
:04afe400ffff00006b
:020000040000fa
:02000004000af0
:04afe8007fff0000e7
:020000040000fa
:02000004000af0
:04afec005fff000003
:020000040000fa
:02000004000af0
:04aff00038ff000026
:020000040000fa
:02000004000af0
:04aff400ffff00005b
:00000001FF
