:020000040000fa
:080000000002040000000000f2
:020000040000fa
:0400080014040000dc
:020000040000fa
:04000c0014040000d8
:020000040000fa
:0400100014040000d4
:020000040000fa
:0400140014040000d0
:020000040000fa
:0400180014040000cc
:020000040000fa
:04001c0014040000c8
:020000040000fa
:0400200014040000c4
:020000040000fa
:0400240014040000c0
:020000040000fa
:0400280014040000bc
:020000040000fa
:04002c0014040000b8
:020000040000fa
:0400300014040000b4
:020000040000fa
:0400340002030000c3
:020000040000fa
:0400380014040000ac
:020000040000fa
:04003c0014040000a8
:020000040000fa
:0400400014040000a4
:020000040000fa
:0400440014040000a0
:020000040000fa
:04004800fa020000b8
:020000040000fa
:04004c001404000098
:020000040000fa
:040050001404000094
:020000040000fa
:04005400d0030000d5
:020000040000fa
:04005800a6030000fb
:020000040000fa
:04005c00820300001b
:020000040000fa
:040060001404000084
:020000040000fa
:040064001404000080
:020000040000fa
:04006800140400007c
:020000040000fa
:04006c001404000078
:020000040000fa
:040070001404000074
:020000040000fa
:040074001404000070
:020000040000fa
:04007800140400006c
:020000040000fa
:04007c001404000068
:020000040000fa
:040080001404000064
:020000040000fa
:040084001404000060
:020000040000fa
:04008800140400005c
:020000040000fa
:04008c001404000058
:020000040000fa
:040090001404000054
:020000040000fa
:040094006a030000fb
:020000040000fa
:04009800140400004c
:020000040000fa
:04009c001404000048
:020000040000fa
:0400a0001404000044
:020000040000fa
:0400a4001404000040
:020000040000fa
:0400a800140400003c
:020000040000fa
:0400ac001404000038
:020000040000fa
:0400b0001404000034
:020000040000fa
:0400b4001404000030
:020000040000fa
:0400b800140400002c
:020000040000fa
:0400bc001404000028
:020000040000fa
:0400c0001404000024
:020000040000fa
:0400c4001404000020
:020000040000fa
:0400c800140400001c
:020000040000fa
:0400cc001404000018
:020000040000fa
:0400d0001404000014
:020000040000fa
:0400d4001404000010
:020000040000fa
:0400d800140400000c
:020000040000fa
:0400dc001404000008
:020000040000fa
:0400e0001404000004
:020000040000fa
:0400e4001404000000
:020000040000fa
:0400e80014040000fc
:020000040000fa
:0400ec0014040000f8
:020000040000fa
:0400f00014040000f4
:020000040000fa
:0400f40014040000f0
:020000040000fa
:0400f80014040000ec
:020000040000fa
:0400fc0014040000e8
:020000040000fa
:0401000014040000e3
:020000040000fa
:0401040014040000df
:020000040000fa
:0401080014040000db
:020000040000fa
:04010c0014040000d7
:020000040000fa
:0401100014040000d3
:020000040000fa
:0401140014040000cf
:020000040000fa
:0401180014040000cb
:020000040000fa
:04011c0014040000c7
:020000040000fa
:0401200014040000c3
:020000040000fa
:0401240014040000bf
:020000040000fa
:0401280014040000bb
:020000040000fa
:04012c0014040000b7
:020000040000fa
:0401300014040000b3
:020000040000fa
:0401340014040000af
:020000040000fa
:0401380014040000ab
:020000040000fa
:04013c0014040000a7
:020000040000fa
:0401400014040000a3
:020000040000fa
:04014400140400009f
:020000040000fa
:04014800140400009b
:020000040000fa
:04014c001404000097
:020000040000fa
:040150001404000093
:020000040000fa
:04015400140400008f
:020000040000fa
:04015800140400008b
:020000040000fa
:04015c001404000087
:020000040000fa
:040160001404000083
:020000040000fa
:04016400140400007f
:020000040000fa
:04016800140400007b
:020000040000fa
:04016c001404000077
:020000040000fa
:040170001404000073
:020000040000fa
:04017400140400006f
:020000040000fa
:04017800140400006b
:020000040000fa
:04017c001404000067
:020000040000fa
:040180001404000063
:020000040000fa
:04018400140400005f
:020000040000fa
:04018800140400005b
:020000040000fa
:04018c001404000057
:020000040000fa
:040190001404000053
:020000040000fa
:04019400140400004f
:020000040000fa
:04019800140400004b
:020000040000fa
:04019c001404000047
:020000040000fa
:0401a0001404000043
:020000040000fa
:0401a400140400003f
:020000040000fa
:0401a800140400003b
:020000040000fa
:0401ac001404000037
:020000040000fa
:0401b0001404000033
:020000040000fa
:0401b400140400002f
:020000040000fa
:0401b800140400002b
:020000040000fa
:0401bc001404000027
:020000040000fa
:0401c0001404000023
:020000040000fa
:0401c400140400001f
:020000040000fa
:0401c800140400001b
:020000040000fa
:0401cc001404000017
:020000040000fa
:0401d0001404000013
:020000040000fa
:0401d400140400000f
:020000040000fa
:0401d800140400000b
:020000040000fa
:0401dc001404000007
:020000040000fa
:0401e0001404000003
:020000040000fa
:0401e40014040000ff
:020000040000fa
:0401e80014040000fb
:020000040000fa
:0401ec0014040000f7
:020000040000fa
:0401f00014040000f3
:020000040000fa
:0401f40014040000ef
:020000040000fa
:0401f80014040000eb
:020000040000fa
:0401fc0014040000e7
:020000040000fa
:0402000014040000e2
:020000040000fa
:0402040014040000de
:020000040000fa
:0402080014040000da
:020000040000fa
:04020c0014040000d6
:020000040000fa
:0402100014040000d2
:020000040000fa
:0402140014040000ce
:020000040000fa
:0402180014040000ca
:020000040000fa
:04021c0014040000c6
:020000040000fa
:0402200014040000c2
:020000040000fa
:0402240014040000be
:020000040000fa
:0402280014040000ba
:020000040000fa
:04022c0014040000b6
:020000040000fa
:0402300014040000b2
:020000040000fa
:0402340014040000ae
:020000040000fa
:0402380014040000aa
:020000040000fa
:04023c0014040000a6
:020000040000fa
:0402400014040000a2
:020000040000fa
:04024400140400009e
:020000040000fa
:04024800140400009a
:020000040000fa
:04024c001404000096
:020000040000fa
:040250001404000092
:020000040000fa
:04025400140400008e
:020000040000fa
:04025800140400008a
:020000040000fa
:04025c001404000086
:020000040000fa
:040260001404000082
:020000040000fa
:04026400140400007e
:020000040000fa
:04026800140400007a
:020000040000fa
:04026c001404000076
:020000040000fa
:040270001404000072
:020000040000fa
:04027400140400006e
:020000040000fa
:04027800140400006a
:020000040000fa
:04027c001404000066
:020000040000fa
:040280001404000062
:020000040000fa
:100400004f2521000eff2c000e0188000000000087
:10041000000020000000e000020032000001200087
:100420002002880014000700010107000000e0001e
:1004300003003a00a09e21000100200002003700c6
:100440000000200001002000810f70000100320038
:100450000f000700000020000000e0000200320052
:100460000000020000000000e8150200000000008b
:100470000040da000000fe00200020000000e00044
:1004800002003200100020009001880000000600e9
:10049000a1028800800478000000eb001f003700f4
:1004a000e284440054a0b4009905ba00e2844400f8
:1004b00054a0b4009906ba00e284440054a0b400e9
:1004c0000006eb00476fde00fd07b200ae018800ba
:1004d000636ce10003003a000ad801000000eb0061
:1004e0000e003700606ce10008003a00004deb00a0
:1004f0000a05e800020039003420ec000af0a000f0
:100500008b05e900f9ff3e00040037006168e10057
:10051000010032000086eb000b00070019c7ba008b
:100520000e04e0001905ba0003003a000a00e000da
:10053000dbff3a0000000600fe07b200ae028800b2
:100540008a047800f5ff37000cd0a300e20f4d00bd
:100550001c00390089027800354dba000a05e80010
:10056000020039003420ec000af0a0008b05e900fd
:100570000f003200254dba000a05e80002003900dc
:100580003420ec000af0a0008b05e90008003200de
:100590000c00e0000600320015cdba000a05e800a4
:1005a000020039003420ec000af0a0008b05e900bd
:1005b0008984e80054a0b4000b00e000e2ff3a0098
:1005c000000006009902ba00055d78008b05e9007d
:1005d000f7ff3200c82ade00055d78008b05e900d0
:1005e000f3ff32000c00e000f1ff320019ddba0029
:1005f000eeff37000000fa000108a9000080fa00b1
:10060000004006003600f800809fbe00829fbe00ba
:10061000849fbe00869fbe000a00fa000068a90001
:10062000e60a07008208070087030700508280005f
:1006300040079800a10020004e0090008101780042
:10064000110009000300d80001f0a7008100ea00b2
:100650008100e900cf08de00814078004e01900063
:100660000200e800508288000104e000120032001d
:10067000f0908000019180000001be008000eb003e
:100680000e007800ca060700d0908000e19080003c
:100690000001be00410020000e007800c4060700e3
:1006a0000e01780081002000000420000f050700e3
:1006b0000b0707004a30ef000080fa004f03be002e
:1006c0004f02be004f01be004f00be003600f900d1
:1006d00000400600809fbe000000fa000368a900e9
:1006e000308280004182800061004000e08048004c
:1006f00030828800418288000080fa004f00be00ee
:1007000000400600801f78000000fa0001a8a90040
:1007100000188000509288001018800060928800b5
:100720002018800070928800301880008092880025
:10073000401880009092880010c0b30067f0b700a6
:100740000080fa004f007800004006003600f800f4
:10075000809fbe00829fbe00849fbe00869fbe0019
:100760000000fa000188a900f1828000e082800088
:10077000808f500002003200340a07000100370069
:100780006070ef000080fa004f03be004f02be0011
:100790004f01be004f00be003600f90000400600c9
:1007a0003600f800809fbe00829fbe00849fbe007e
:1007b000869fbe000000fa000168a90010118000a9
:1007c000640060000000e000010032002242a90045
:1007d00010118000620060000000e000060032009e
:1007e0002222a90005003700301180000040780067
:1007f000820a07000100370000000000101180008d
:10080000610060000000e000f7ff3a000080fa009d
:100810004f03be004f02be004f01be004f00be009e
:100820003600f900004006000040da000000fe003b
:100830000000050003f0a200889fbe008a9fbe0052
:100840008c1f7800d3010700da0133006450e10007
:100850004f0032006420e1005200320003826c003d
:1008600007003b000905d0000306d000820f5400aa
:100870000c065d0002003900020032008901780098
:10088000030678008582550004003d000003fd004a
:100890008103fd008502ea008b854200840f72000f
:1008a00002003b0060001000e08018006011b800fa
:1008b0000005eb007a28e1000a0039000600780004
:1008c000c75ddd00f707b200878075002d00370097
:1008d000828171000a017800610560008180d10089
:1008e0000080d3008502e900f9ff3b0006044000c8
:1008f0008784480002003b0060041400e0841c0070
:100900000988a300070032008a817100828171008a
:10091000610164008904d1000884d3008b05e800dc
:10092000170037000978a30013003a000b00e0001d
:10093000130034008b05e9000804440089844c004e
:100940000a4474000978a3000d003a000b00e0008f
:10095000070034008b05e9000804440089844c003a
:1009600001003a000b0020000978a300f7ff3200d5
:100970000001eb0002003700828171000a0178005b
:10098000490107000cf0a70001f0a0009201370018
:100990006420e10002003a00838f6c009201330072
:1009a0000801be000200be008b013700889fbe0018
:1009b0008a9fbe008c9fbe000004be00600107003d
:1009c0000800be00890678006420e10008003900b4
:1009d000040032000160a00012022000428388005f
:1009e0005300370091fc2300b0fd20004e0037007b
:1009f0000006eb0009f0a10003f82300020020002c
:100a00000800be00920007000600340001f8230031
:100a1000000020000801be004b0007000004be00db
:100a20002c0020000800be0093e82300320a2300b7
:100a300087000700120034000801be00d1fd23002a
:100a4000703d2b007cff07000005be00b3f32300c0
:100a5000f27a26000800be006601070003f82300b2
:100a60000200200073ff07000801be0072ff0700ac
:100a70000a01be00340007000004be000c06e800b6
:100a80000800be0001f0a10002002000039823002e
:100a90006f0007000800be00160035000801be0008
:100aa000540107000005be0032cd2c0043fb23009b
:100ab00061ff0700809fbe001269280003d52b004c
:100ac0000a00be004b010700620f210013ef2b004c
:100ad00059ff07000a01be00460107004f01be0092
:100ae000190007000801be00420107000801be000e
:100af00051ff07000c00e0000b0032000c10a700b3
:100b000001f0a200b2fd200093fc23006260e1002e
:100b10000400320022a9200063f023000c10a7007b
:100b200063f8230044ff07000df0a70001f0a200c6
:100b30004f06be004f05be004f04be000000060079
:100b40000081eb005f013700889fbe008a9fbe00d6
:100b50008c1f78000f0107001601330003866c001c
:100b60006450e1002e0032006420e10033003200c6
:100b70006150e1002f0032006120e10031003200bd
:100b800085855500eb07b00009002000080420000f
:100b9000050037000804440089844c000a00310035
:100ba0000603430087834b000001530081815b00f3
:100bb000f8ff33000203be000800a0000804440050
:100bc00089844c00f6ff3900c639dd0083017300cb
:100bd00001003200130020008904d1000884d300f2
:100be0000998a300050032000800a7000300a00038
:100bf0008904d1000884d3008b05e8008904d10062
:100c00000884d3000001eb000281d200a600070097
:100c100001f0a1000cf0a70001f0a000ee003700e9
:100c20006420e100f00032000801be000200be00b6
:100c3000f7ff37006120e100eb0032006000b800f0
:100c4000f3ff37000000200001f82700f0ff370015
:100c50001400200086013700f4ff2f0084013700c4
:100c60000001be00b60007000470a70003f0a10059
:100c70006509b100160032000d0035006828e1005a
:100c800006003500f0ff2f00f1ff27000300e00011
:100c900013003b0001002800000005000000400098
:100ca000818048008502e900fcff3a000800370017
:100cb000f88f420002003c008000eb0000000500bd
:100cc0008100d1000080d3008502e800fcff3a00db
:100cd0000300e00002003b0060001000e08018000c
:100ce000000006000001be00950007000470a70088
:100cf00003f0a10003f8a30013003a006509b10056
:100d000010003200090035006928e10002003500ba
:100d1000010028000000050000004000818048001c
:100d20008502e900fcff3a0000000600f88f42004f
:100d3000050035008100d1000080d3008502e80065
:100d4000fcff3a00000006008000eb0000000500f8
:100d50004f89de0082017800600137006011b80021
:100d60006e0137000400200000003700889fbe009d
:100d70008a9fbe008c1f78004f26dd00850007008b
:100d80008c0033006120e100430032006250e1003a
:100d900041003e003e0039006420e1003c0032008a
:100da000058255000f003b000402e80038003a00bd
:100db000800f5300818f5b00350034000800be00b7
:100dc00003f0a10001f0a60003f0a0000cf0a700c2
:100dd00099fe0700800037000603430087834b001d
:100de0000c4646000005530081855b00020033007d
:100df0000a03be000c00a0000402e900f6ff3b005d
:100e0000850578000602430087824b0004003a0003
:100e10006000b80009f0a70001f0a0006e003700e4
:100e20000002520081825a000704e00004003300ef
:100e30000603430087834b008b05e900faff370068
:100e4000090578000604be000203be006011b80068
:100e500015000700e00f5200e08f5a000700350030
:100e600002003c000c08a300040032000601be0092
:100e700003f0a0000cf0a7006ffe07000a856800d1
:100e800001f0a1000af0a70001f0a0005200370015
:100e90000800be0050003700100220000cf0a60031
:100ea0004083880050003700810020006180550099
:100eb0000b003d000b00200061fe2f000100e1004f
:100ec0001d00340082817100610164008904d10039
:100ed0000884d3000000e800faff3a007100200007
:100ee000610064000300700002006000090032002d
:100ef00061044400e0844c000988a500050032002c
:100f00008b05e8006808e10002003a008904d1007e
:100f10000884d300f20f20000258e10005003d00d4
:100f2000c75ddd00f907b200898075000800780010
:100f3000000006000bf827008b0078000000050079
:100f4000c70ade00f107b200f50fb2000800320058
:100f5000e1cf4200020032000170a0002400050031
:100f6000810f7000010032000408050044000500f4
:100f7000810f700002003a00140005008502e900ac
:100f80000000400081c04800fcff3b000170a00051
:100f9000240005000004be00e9ff07000003be00b6
:100fa0000405be000200be00e5ff0700844f750087
:100fb000000006000200be006450e100050036009b
:100fc0006420e100020036000968a30001003a0035
:100fd0000800be000160a0004f0678004f05be006b
:100fe0004f04be0000000600f0ff2f00f1ff2700b5
:100ff000f9ff3700889fbe008a9fbe008c1f7800d3
:10100000e4ff0700ebff330003866c006450e1004f
:10101000240032006420e100270032006150e1002a
:10102000220032006120e100210032008b85420065
:10103000eb07b1000134b800003ab80008044200e0
:1010400089844a00013ab8000030b8008880400026
:1010500009014a000400330000004000818048007c
:10106000020149008b05e900c909dd008301700018
:101070000100320013002000c814de004814dd0017
:101080004709de001200b200c808de0008847000c4
:1010900085ff070001f0a1000cf0a70001f0a000ff
:1010a000cdff37006120e100cfff32000801be0014
:1010b0000200be00f7ff37006150e100fcff3a007c
:1010c000c9ff3700889fbe008a9fbe008c9fbe006c
:1010d000820578000004be0099ff07000800be00ea
:1010e0006420e1000700390002003a00f1ff270008
:1010f000f0ff2f000160a000120220004283880050
:10110000550037006120e10003003a000b00a70002
:1011100001f823005000370001f0a1000200210077
:1011200093642400cafe07000800be0004003500d6
:10113000b2fd2000930c24000aff07000004be004b
:101140000005eb000b00a6004f0dde0001f0a10032
:101150000004be0032982f0023ea2300a5ff0700f9
:101160000001eb0003f023000b00a70003f82300ad
:10117000b1fd0700bafe07000000a7000a00a200a8
:10118000f3fe07000b00e000030032000200200025
:1011900003f02300a7fd070001f0a2000006be0037
:1011a000020020009304240092ff07000801be0003
:1011b000a1fd0700809fbe000c00be0022a22a00f5
:1011c000d3a723008bff07004f01be009afd070045
:1011d0000004be0001f0a1000200200003982300db
:1011e0009bfe07000800be00190035000001be008c
:1011f00080ff07000006be00b2c52900e36223009d
:101200007cff070022222b00f3942b008afd0700ad
:101210000c01be0077ff0700e273280083c02300a3
:1012200085fd07000c01be0072ff070042aa2a00dc
:10123000a3e22b0080fd07000c01be006dff07003c
:101240000801be006bff07000801be007afd070021
:101250000a00a70001f0a2004f06be004f05be0025
:101260004f04be00000006000001eb0095ff3700b0
:10127000889fbe008a9fbe00841f780045ff07003c
:101280004f00780011003300f0ff2f00838f6c00b7
:1012900006003b00040565000a00a70008003700af
:1012a00009f0a6001000200008003700820f54004b
:1012b000838f5c00030039001000200001003e0015
:1012c0000000200009f0a7000000ea004f05be0062
:1012d0004f04be000000e00000000600881f7800f8
:1012e000030478000300e00007003d0060001000e8
:1012f000e080180060011900e081190002003b0045
:1013000001f02d00030037000400070008f0a700db
:1013100001f0a0004f04780000000600889fbe0086
:101320008a9fbe0000827000040271000482710076
:10133000260032000004be000200be006011b800aa
:101340006b092000950220000182cf000a003900bd
:101350000541b1000082cf00070039000541b1000e
:101360000982cf00040039000541b1000882cf0096
:10137000010039000541b10005425200120032005f
:101380000a003b0082817100610164008100d1008c
:101390000080d3008984d3000884d3008b05e80043
:1013a0000442e800f7ff3a00070037000804440051
:1013b00089844c0000004800818048008b05e900ca
:1013c0000442e900f9ff3a00b7fe07004f05be00ee
:0813d0004f04be0000000600fe
:020000040000fa
:1013d8000000fa001160800080ff2f00008060008c
:1013e8001060880000fa20002060880023aca80064
:1013f800238ca80011618000f03f2f00008060005e
:1014080000a0a00010618800300020002061880042
:10141800c3aca800c38ca80011668000f03f2f0061
:101428000080600000a0a000106688003000200046
:101438002066880001eca8000080fa000000060081
:101448000000fa00889fbe0074908000859080009c
:10145800509080006190800018c0b3000001be0069
:101468000400be00f8fd07000000e00001003500a0
:101478000044eb000804e0000d00320058908000a2
:1014880069908000749080008590800020818000a1
:10149800318180000001be000400be00e4fc0700aa
:1014a8000801be00ca020700709088008190880079
:1014b800749080008590800050908000619080003a
:1014c80018c0b3000001be000400be00e0fd070024
:1014d8000000e00001003c000044eb000804e000cc
:1014e8000d00320058908000699080007490800050
:1014f8008590800020818000318180000001be003d
:101508000400be00c9fc07000801be0098020700dd
:101518007090880081908800709080008190800091
:1015280018c0b3006011b800c9fd07000000e00052
:1015380001003c000044eb000804e0000400320015
:10154800c3cca90024eea800c3eca8000300370010
:10155800c3eca90024cea800c3cca80070908000da
:10156800819080006c020700020020000322240002
:101578009efe0700d9fd070000007800306688004d
:101588003490800045908000109080002190800069
:1015980018c0b3000001be000400be00aafd070089
:1015a8000000e000010035000044eb000804e00002
:1015b8000d0032001890800029908000349080003f
:1015c8004590800020818000318180000001be00ac
:1015d8000400be0096fc07000801be007c0207005c
:1015e80030908800419088003490800045908000b9
:1015f800109080002190800018c0b3000001be0048
:101608000400be0092fd07000000e00001003c005d
:101618000044eb000804e0000d0032001890800040
:1016280029908000349080004590800020818000bf
:10163800318180000001be000400be007bfc070071
:101648000801be004a0207003090880041908800d7
:10165800309080004190800018c0b3006011b8003d
:101668007bfd07000000e00001003c000044eb00a7
:101678000804e0000400320023cca90015eea800fd
:1016880023eca8000300370023eca90015cea8001e
:1016980023cca80030908000419080001e020700f3
:1016a800020020000322240050fe07008bfd0700e3
:1016b80000007800306188004f04be000080fa0006
:1016c800000006000600fa00008fbe00424798009e
:1016d8004e4090000004e00005003a001e0178002a
:1016e8009e01900012908800239088000500370022
:1016f8001e0078009e00900001f0a2005090880023
:10170800619088000080fa00000006000800fa00d6
:10171800008fbe0022079800330798002e01900022
:10172800be01900092908800a39088001e01780066
:101738009e019000b2908800c39088000080fa0053
:10174800000006003000fa00889fbe008a9fbe0095
:1017580094908000a5908000309180004191800095
:101768000001be000400be0030fc0700008fbe0070
:10177800c0818000d18180000001be001e00780079
:101788009e00900019fe0700200798003107980076
:101798006281800073818000608180007181800097
:1017a80001f0a2000202be000001be002e0090005f
:1017b800be0090001e02070020079800310798001d
:1017c80040818000518180001e0178009e019000b8
:1017d80006fe07000002be00608280007182800061
:1017e8000001be000400be0011fc070060828800f2
:1017f800718288008481800095818000e08180006a
:10180800f18180000001be000400be00ccfc07008e
:101818000004be0080818000918180000002be002b
:1018280005f0a200e0818000f18180000001be0087
:101838000400be00c2fc0700668280007782800038
:101848000802be000001be000600be00f801070045
:1018580060828800718288006482800075828000be
:10186800e0818000f18180000001be000400be001c
:10187800defd07004007980051079800808280002d
:10188800918280000001be001e0078009e0090003a
:10189800e6fb07000002be00408180005181800005
:1018a8000001be000400be00a5fc07006007980008
:1018b80071079800aa818000bb818000a081800008
:1018c800b18180000004be0009f0a20000828000ff
:1018d800118280006e019000fe019000c3fd070098
:1018e8000a02be000801be00d1010700000f9800df
:1018f800110f98004e019000de0190002e0090001c
:10190800be009000cafb07000e0990009e099000d7
:10191800c7fb0700200f9800310f98000200200035
:10192800832424002e089000be08900084fc070041
:10193800400f9800510f98006000b800600f9800a1
:10194800710f98006000b8000017980011179800f0
:101958006000b80020179800311798004e099000d1
:10196800de0990002e109000be109000b0fb07001a
:1019780050908800619088005090800061908000ad
:1019880004002000852c240002002000832c2c0059
:10199800a701070050908800619088004e099000c8
:1019a800de0990002e109000be1090009ffb0700eb
:1019b800109088002190880010908000219080006d
:1019c80004002000852c240002002000832c2c0019
:1019d80097010700109088002190880010908000df
:1019e80021908000840220000e0242000001be0007
:1019f8008000eb0004007800eb01070050908000a5
:101a080061908000840220000e0242000001be00a6
:101a18004100200004007800e30107008002200054
:101a28000e00400000017800810020001004200012
:101a38002c0007004f05be004f04be000080fa00ce
:101a4800000006000a00fa002007980031079800f5
:101a5800420798000040eb00004f7800e0cfb30049
:101a68001e4f68002e0090004880de00004078007d
:101a78001e4f68002e009000004078001e4f68003e
:101a88003e0090004880de00004078001e4f68004d
:101a98003e009000004078001e4f68000000eb00f8
:101aa80010079800080037001e009000ce00900034
:101ab80000804000104078001e4f68001e00900013
:101ac8000000e800100798009e0090003e0090007b
:101ad800808f5000f4ff35001e4078000080fa0027
:101ae800000006000e00fa00889fbe00400798001c
:101af80051079800620798000f0478000f007800db
:101b0800800478005e009000660040008000e900d4
:101b1800210798000000e8000000e8000000d1005c
:101b2800800040000f007800818747000000e8002f
:101b38000000d10000004000300798000000eb00d2
:101b480010079800be0090001e0090000080400022
:101b5800e1cfb300014878001e0090000000e800c3
:101b6800100798004e0090004880de008040780002
:101b78003e0190001e0090000000410001487800de
:101b88001e0090000000e800100798004e0090002a
:101b9800804078003e0190001e0090000000410047
:101ba800014878001e0090000000e8001007980027
:101bb8005e0090004880de00804078003e01900082
:101bc8001e00900000004100014878001e009000af
:101bd8000000e800100798005e0090008040780040
:101be8003e0190001e00900000004100014878006e
:101bf8001e0090000000e800100798000000eb00ad
:101c0800000f78000c0037001e007800ee009000ee
:101c180000804000904078003e0190001e00900037
:101c280000004100014878001e0090000000e80014
:101c3800100798001e0fe8005e0090009e007800d4
:101c4800808f5000f0ff35006e019000de0090009c
:101c58004e0090007bff07003e0190009e00900020
:101c680081004100804878001e0090000000e800d4
:101c7800100798003e0090009e009000b7040700ef
:101c880089077800880778004f04be000080fa00b2
:101c9800000006000400fa0020479800d082800067
:101ca800e30f500023003200e30f500005003e0010
:101cb800e10f500010003200e10f500015003e0007
:101cc80007003700e50f50002a003200e50f5000ea
:101cd8001f003900e60f5000390032004800370075
:101ce8002e409000e24f400048003a0010002000cb
:101cf800d0828800480037002e4090000080fb000a
:101d08004800dd00a082880020002000d0828800e2
:101d1800410037002e4090008080fb00a0828000a8
:101d280000804000a082880030002000d082880017
:101d3800390037002e4090000080fb004800dd008d
:101d4800b082880040002000d0828800320037002e
:101d58002e4090008080fb00b08280000080400010
:101d6800b08288005830ef0050002000d0828800f0
:101d780029003700c1828000b0828000808f500027
:101d880008003d00c0828000a116210000804000ac
:101d9800ae40900001487800c08280000000e80052
:101da800c0828800c1828000b0828000808f50008d
:101db8001800350060002000d08288001600370027
:101dc800ae409000014f7800b1828000a082800070
:101dd800a21621001bff0700104798001e40900024
:101de8009e4f500004003a00b1828000a08280001b
:101df800a21621000a0007005a30ef00060037003b
:101e08005a30ef0000000000030037000000000017
:101e180001003700000000000080fa000000060002
:101e28000600fa00000f78001107980022079800b2
:101e38001e00780011052000810f500007003200b5
:101e480021052000810f50000800320011042000f5
:101e5800810f5000090032001a0037002e00900050
:101e68001040780019000700160037002e00900077
:101e7800104078001b000700120037008000eb00bc
:101e88002e009000ae000700b0908800c190880036
:101e9800410020002e009000a900070090908800c3
:101ea800a190880090908000a1908000b49080005c
:101eb800c59080000001be000400be0013fe0700ac
:101ec800000000000080fa00000006000200fa008e
:101ed800004f7800b01e21001e4878000080fa00ec
:101ee800000006000200fa00004f7800c01e210022
:101ef8001e487800c01e210010407800e14f5000b5
:101f080002003a0064eea8000100370064eea90060
:101f18000080fa00000006000400fa00881f78001c
:101f2800008fbe0018c0b3006011b8001e00780012
:101f38009e00900046fb07000000e00001003d0005
:101f48000044eb000804e000030032001e007800a3
:101f58009e009000030037001e0078009e0090004d
:101f680001f0a2004f0478000080fa00000006008b
:101f78000800fa00881f7800008fbe00220798002a
:101f88003307980018c0b3002e019000be019000de
:101f98001e0078009e0090002dfb07000000e00066
:101fa80001003c000044eb000804e000030032009c
:101fb8001e0078009e009000020037002e0090005e
:101fc800be0090004f0478000080fa000000060070
:101fd8000800fa00881f7800008fbe0022079800ca
:101fe8003307980018c0b3002e019000be0190007e
:101ff8001e0078009e00900013fb07000000e00020
:10200800010035000044eb000804e0000300320042
:102018001e0078009e009000020037002e009000fd
:10202800be0090004f0478000080fa00000006000f
:102038000c00fa00881f7800008fbe002207980065
:1020480033079800440798005507980018c0b30054
:102058002e019000be0190001e0078009e009000a6
:10206800f9fa07000000e000010035000044eb0029
:102078000804e000030032002e009000be0090002b
:102088001000370018c0b3004e019000de01900028
:102098001e0078009e009000edfa07000000e000a6
:1020a80001003c000044eb000804e000030032009b
:1020b8004e009000de009000020037001e007800fd
:1020c8009e0090004f0478000080fa00000006008f
:1020d8000800fa002007980031079800b2fd200098
:1020e800930424002e009000be009000cff9070052
:1020f800b2fd2000930c240018fb0700b2fd20005d
:1021080093042400caf90700008fbe00b2fd200026
:10211800930424001e0078009e009000c4f9070074
:10212800b2fd2000930c24000cfb0700b2fd200038
:1021380093042400bdf907000080fa00000006009f
:102148000a00fa003007980041079800be00900086
:102158004e009000008f40001e00780010017800ab
:102168009001900012079800230798001e00900025
:10217800ae0090000080fa00000006000600fa0099
:1021880010079800210798009e0090002e009000ec
:10219800008f40001e00780090009000100078002a
:1021a8000080fa00000006000c00fa0020079800e2
:1021b80031079800420798005307980068004700c5
:1021c800100798000000eb00000f78000a003700a5
:1021d8003e0090001e004000ae00900000804000cd
:1021e8009e0078001e019000810041009140780017
:1021f800014878001e0fe8001e007800e30f500029
:10220800f3ff34000080fa00000006000c00fa001a
:102218002007980031079800420798005307980054
:1022280068004700100798000000eb00000f7800d6
:102238000b0037003e0090001e004000ae009000ea
:1022480000804000320020009e0051001e019000d6
:102258008100410091407800014878001e0fe80095
:102268001e007800e30f5000f2ff34000080fa00ef
:10227800000006000c00fa002007980031079800bb
:102288004207980053079800680047001007980015
:102298000000eb00000f78000a0037003e009000b5
:1022a8001e004000ae009000008040009e007800b4
:1022b8001e0190008100410091407800014878009b
:1022c8001e0fe8001e007800e70f5000f3ff3400ef
:1022d8000080fa00000006001800fa003082800032
:1022e800418280000001be008000eb000e007800f3
:1022f800c6ff070050918000619180000001be0078
:10230800410020000e007800a7ff070070918000b0
:10231800819180000001be00810020000e0078003d
:10232800a1ff0700f0918000019280000001be002b
:10233800c10020000e0078009bff0700109180006c
:10234800219180000001be00010120000e007800ec
:1023580095ff070030918000419180000001be0088
:10236800410120000e0078008fff07000e01780061
:102378008101200010062000dafd07000080fa0025
:10238800000006000000fa0013e1a90011e1a9000d
:102398001061a8001021a90081088000f0fc2f001e
:1023a80000806000800888000a21ef000621ef0005
:1023b800202620007008880000a0250060088800fa
:1023c8002142800080ff2f00008060000000a000f4
:1023d800204288000108a9002108a80011e1a800ee
:1023e8000080fa00000006000000fa0005e1a900dc
:1023f8000421a90000002000812c2400050007000a
:102408000068a9002068a80005e1a8000080fa007b
:10241800000006000400fa00881f7800008fbe0044
:1024280021088000f0fc2f00008060002008880050
:102438001e0178009e0190000068290081c12400d7
:10244800bff9070018c0b30002f02f00f37724008b
:10245800fff907000000e00001003c000044eb0029
:102468000804e0005400320021088000f0fc2f002e
:10247800008060000040a000200888001e0178004d
:102488009e0190000068290081c12400acf9070072
:102498000200200003102400a9f9070018c0b300a7
:1024a80002f02f00f3772400e9f907000000e000ac
:1024b80001003c000044eb000804e0003200320058
:1024c80021088000f0fc2f00008060000050a00070
:1024d800200888001e0178009e01900000682900ed
:1024e80081c1240096f90700020020000328240077
:1024f80093f9070018c0b30002f02f00f377240007
:10250800d3f907000000e00001003c000044eb00a4
:102518000804e000100032002108800000032000b9
:1025280001007000200888001e0178009e019000bc
:102538000068290081c1240081f9070002002000f9
:10254800033824007ef90700c3f90700000078006b
:1025580010088800200037001e0178009e019000b6
:102568000068290081c1240075f9070002002000d5
:102578000328240072f90700b7f907000000780063
:1025880010088800140037001e0178009e01900092
:102598000068290081c1240069f9070002002000b1
:1025a8000310240066f90700abf907000000780063
:1025b80010088800080037001e0178009e0190006e
:1025c8000068290081c124005df90700a2f907000d
:1025d80000007800100888004f0478000080fa0096
:1025e800000006000000fa001fe1a9001e21a90052
:1025f80000002000a1472400050007000368a90087
:102608002368a8001fe1a8000080fa000000060067
:102618000400fa00881f7800008fbe00f1088000cf
:10262800f0fc2f0000806000f00888001e01780090
:102638009e0190000068290081c1240040f907002c
:1026480018c0b30002f02f00f377240080f90700c8
:102658000000e00001003c000044eb000804e0003a
:1026680054003200f1088000f0fc2f000080600068
:102678000040a000f00888001e0178009e0190002c
:102688000068290081c124002df9070002002000fc
:10269800031024002af9070018c0b30002f02f0025
:1026a800f37724006af907000000e00001003c000d
:1026b8000044eb000804e00032003200f10880001a
:1026c800f0fc2f00008060000050a000f008880097
:1026d8001e0178009e0190000068290081c1240035
:1026e80017f90700020020000328240014f9070046
:1026f80018c0b30002f02f00f377240054f9070044
:102708000000e00001003c000044eb000804e00089
:1027180010003200f1088000000320000100700062
:10272800f00888001e0178009e01900000682900ca
:1027380081c1240002f907000200200003382400a8
:10274800fff8070044f9070000007800d008880067
:10275800200037001e0178009e01900000682900c3
:1027680081c12400f6f80700020020000328240095
:10277800f3f8070038f9070000007800d00888004f
:10278800140037001e0178009e019000006829009f
:1027980081c12400eaf80700020020000310240089
:1027a800e7f807002cf9070000007800d008880037
:1027b800080037001e0178009e019000006829007b
:1027c80081c12400def8070023f907000000780023
:1027d800d00888004f0478000080fa000000060046
:1027e8000000fa00c301a8000080eb00e00e88009a
:1027f8000080eb00f00e8800c1e1a8000080fa001c
:10280800000006000000fa00c305a8000080eb00e5
:10281800e02e88000080eb00f02e8800c1e5a800bb
:102828000080fa00000006000200fa00889fbe003f
:10283800a0808000b180800000808800118088001e
:10284800c0808000d180800020808800318088008e
:10285800300e80008000eb001092880021928800e2
:102868001292800023928000500e80008000eb00be
:10287800c000dd0000002000020040008380480006
:102888001092880021928800302e80008000eb0092
:1028980030928800419288003292800043928000f2
:1028a800502e80008000eb00c000dd0000002000fa
:1028b80002004000838048003092880041928800de
:1028c80010928000219280001ff90700928d2b0042
:1028d80083782300c5f90700a0808800b1808800ac
:1028e800309280004192800017f90700928d2b00ea
:1028f80083782b00bdf90700c0808800d18088004c
:10290800a4808000b5808000008080001180800055
:102918000001be000400be00c4f707004080880024
:1029280051808800c4808000d5808000208080008d
:10293800318080000001be000400be00bbf7070024
:102948006080880071808800448080005580800005
:1029580060808000718080000001be000400be001d
:10296800b2f7070032dd240023e6230074f80700dd
:102978000cf80700e0808800f1808800448080001f
:102988005580800060808000718080000001be005a
:102998000400be00a6f70700020020000300240080
:1029a80067f8070000818800118188004080800056
:1029b8005180800002002000a33724008bf9070013
:1029c800d0908800e190880060808000718080004d
:1029d80002002000a337240084f90700f090880043
:1029e80001918800d4908000e5908000f0908000ec
:1029f800019180000001be000400be008cf70700b2
:102a080002002000030024004df807001091880000
:102a180021918800e0808000f18080000200200081
:102a2800a337240071f9070030918800419188008c
:102a3800f090800001918000a8f807000044780019
:102a4800d0908000e1908000a4f807000040780052
:102a5800084f7800104798005091800061918000dd
:102a680090918800a19188007091800081918000e8
:102a7800b0918800c1918800f09180000192800097
:102a8800d0918800e191880098918000a9918000f8
:102a9800d0918000e191800027f807000002be0075
:102aa80000818000118180000001be000400be008a
:102ab8004ef907000001be000800be005cf70700e1
:102ac8005091880061918800b8918000c991800078
:102ad800d0918000e1918000e1f907000002be007a
:102ae80000818000118180000001be000400be004a
:102af8003ef907000001be000800be004cf70700c1
:102b08007091880081918800d4918000e5918000bf
:102b1800e0808000f18080000001be000400be005b
:102b280043f70700f091880001928800f091800037
:102b38000192800018c0b300b2fd20009304240065
:102b480043f807000000e00001003c000044eb00ef
:102b58000804e00007003200f09180000192800034
:102b6800b2fd2000930c240030f70700f091880094
:102b780001928800f09180000192800018c0b30093
:102b8800b2fd200093042c002ff807000000e0009d
:102b9800010035000044eb000804e00007003200a3
:102ba800f091800001928000b2fd2000930c240077
:102bb8001ff70700f0918800019288004f04be00bb
:102bc8000080fa00000006001400fa00889fbe008a
:102bd800680207006000b8003090880041908800c3
:102be8006000b8007090880081908800c01e2100a5
:102bf80011c0b30001487800bb010700f4f90700d1
:102c0800e0fd0700f8fd070076fe07002f0107002a
:102c180024020700f2fe0700fafe07000100370051
:102c2800000000006b010700e14f5000fcff3a0074
:102c38006c01070063010700100798001e00900050
:102c4800100078008000eb0042f8070032332300c0
:102c580033052400e5f8070002002000035824008b
:102c6800b7f70700d2cc2c00c3042400dff8070014
:102c780020079800310798002e019000be019000af
:102c88000000200081202400adf70700020020008a
:102c9800030a2400e5f60700708f8800818f8800fa
:102ca8001e0090000080e800100078008000eb0013
:102cb80028f807003233230033052400cbf8070037
:102cc80002002000035824009df70700d2cc2c00f6
:102cd800c3042400c5f807002007980031079800ae
:102ce8002e019000be0190000000200081202400e9
:102cf80093f7070002002000030a2400cbf6070020
:102d0800908f8800a18f88001e009000640040000a
:102d1800100078008000eb000ef807003233230023
:102d280033052400b1f807000200200003582400ee
:102d380083f70700d2cc2c00c3042400abf80700ab
:102d480020079800310798002e019000be019000de
:102d5800000020008120240079f7070002002000ed
:102d6800030a2400b1f60700b08f8800c18f8800dd
:102d78001e00900068004000100078008000eb0002
:102d8800f4f70700323323003305240097f80700cf
:102d9800020020000358240069f70700d2cc2c0059
:102da800c304240091f80700200798003107980011
:102db8002e019000be019000000020008120240018
:102dc8005ff7070002002000030a240097f60700b7
:102dd800d08f8800e18f88001e00900066004000b8
:102de800100078008000eb00daf707003233230088
:102df800330524007df80700020020000358240052
:102e08004ff70700d2cc2c00c304240077f8070042
:102e180020079800310798002e019000be0190000d
:102e2800000020008120240045f707000200200050
:102e3800030a24007df60700f08f880001908800bf
:102e4800d08f8000e18f8000a4f7070080447800cd
:102e5800b08f8000c18f8000a0f707000044780081
:102e6800908f8000a18f80009cf7070000407800b9
:102e7800194f9800284f9800304f98006900470074
:102e880000017800310020000003200015fb070036
:102e9800b0908000c19080006c0247000001be0025
:102ea8008000eb0004007800bffc070090908000d1
:102eb800a19080006c0247000001be004100200084
:102ec80004007800b8fc07006c0047000001780097
:102ed800810020001004200002fb07000000eb0026
:102ee800000f780005003700d1000700004f980058
:102ef8000e48900067fb07001e0fe800e50007007a
:102f08009e0f5000f8ff3c001170800000802000e8
:102f1800008060000000e0000900320012c0b30029
:102f280000002000011c2400e6f907000041eb0026
:102f380000002000011c2400e2f9070039ff3700d7
:102f480012c0b3006000b800def907000041eb00d2
:102f58006000b800dbf9070032ff37000600fa000e
:102f680010079800210798000040eb00004f7800f8
:102f780050000700ae009000810f5000110035008e
:102f88000040eb00004f7800060037001e80fb0071
:102f98009e00900000804000104078000b00070061
:102fa8001e4fe8009e80fb002e009000808f50008e
:102fb800f6ff35002c0007000004e00001003a008d
:102fc800200007000080fa00000006000200fa0056
:102fd800004f7800e0828000a10621008080400038
:102fe8009e4878000000e800e0828800e1828000c6
:102ff80000082000808f500001003a005c30ef008c
:103008000080fa00000006000200fa00f08280004a
:10301800a106210080804000114f78000000e800e0
:10302800f0828800f182800000082000808f500024
:1030380001003a005e30ef001e4078000080fa0080
:10304800000006000200fa0010c0b30060f0b700ec
:10305800edff0700004f78001e80fb00201188005c
:103068000080fa00000006000000fa0060d0bf00ef
:103078000080fa00000006000000fa00e1828000eb
:10308800f0828000808f500004003500e1828000cb
:10309800f08280000080500004003700e182800048
:1030a800f0828000008050000008b0000080fa0024
:1030b800000006000000fa00efff070001082000ea
:1030c800008050000080fa00000006000000fa00ae
:1030d80021e3a9002143a80001198000f0cf2f00a7
:1030e80000806000001988002043a90001198000b1
:1030f800000e2000010070000019880011198000de
:10310800f0ff210000806000101988002343a80008
:1031180011198000f0cf2f0000806000101988007e
:103128001119800030f82f00008060000040a000d6
:10313800101988002203a9002223a90025e3a90069
:10314800f0c0b30024e3b70021198000f00f2e006f
:103158008080600000f020000100700020198800c5
:103168003303a9002e0ea8002f6ea8006f2ea8000a
:103178001e2ea8004feea8003063a80030c3a80098
:103188003163a80031e3a8002e03a800411980008c
:1031980000fc2f00008060004019880028e3a90087
:1031a80001a8a90021a8a80021e3a8000080fa002e
:1031b800000006000000fa002023a8000080fa00a2
:1031c800000006000000fa00a02421000080fa0098
:1031d800000006000000fa0067d0bf000080fa0077
:1031e800000006000000fa006770ef000080fa0097
:1031f800000006000200fa00004f780010838000eb
:10320800a10e2100808040009e4878000000e80060
:10321800108388001183800000082000808f5000f0
:1032280001003a006230ef000080fa00000006005a
:103238000200fa0020838000a10e21008080400057
:10324800114f78000000e800208388002183800067
:1032580000082000808f500001003a006430ef0021
:103268001e4078000080fa00000006000000fa0006
:103278001183800020838000808f5000020032007c
:1032880010c0b300010037000040eb000080fa00d6
:10329800000006000000fa001183800020838000ef
:1032a800808f500004003500118380002083800047
:1032b80000805000040037001183800020838000c4
:1032c800008050000008b0000080fa0000000600ee
:1032d8000000fa00efff07000108200000805000fe
:1032e8000080fa00000006000000fa000e2eef0031
:1032f8001e2eef002e2eef003e2eef004e2eef007a
:103308005e2eef006e2eef00214ea90060cea900c0
:1033180060eea900016ea80011cea90011eea90067
:1033280020cea90020eea900200ea800216ea8003a
:10333800612ea800102ea80041cea80021368000da
:1033480000f82f00008060008001b300203688005c
:103358001134800000fc2f00008060000000a000f5
:10336800103488000136800000f82f00808060004b
:103378001006200001007000003688000136800029
:10338800f00f280080806000000026000100700017
:1033980000368800e135800000f82f00808060004a
:1033a8006004200001007000e0358800e1358000ed
:1033b800f00f280080806000005024000100700099
:0c33c800e03588000080fa0000000600dc
:020000040000fa
:1033d400441000000800000080000000ea11000012
:1033e40060000000800000002410000020000000a5
:1033f4008200000000002000410ad700a33c000026
:1034040000004000000000004000000000400000f8
:103414000000400000004800420000004842000054
:103424004c10000008000000800000004a12000058
:103434000a00000080000000661000000200000086
:10344400800000006a10000080000000800000007e
:103454005c1000000600000080000000ea1000007c
:1034640080000000800000006210000004000000e2
:10347400800000006a11000080000000800000004d
:10348400541000000800000080000000001000003c
:10349400240000008000000068100000020000000a
:0834a4008000000000000000a0
:020000040000fa
:1034ac000000fa002002a9000111800090ff2f00fb
:1034bc00008060000011880020a2a9002062a800f2
:1034cc00500520004011880023a2a90023e2a90086
:1034dc000188a9002188a80011118000f0f32f00a9
:1034ec0000806000101188000168a9002168a80004
:1034fc0021e2a8002342a8000080fa000000060088
:10350c000600fa0010079800210798000040eb0015
:10351c00004f78000040eb00004f78000e003700a1
:10352c0000000000111180000020200000806000cd
:10353c000000e000fbff3a001e00900010407800f5
:10354c000080fb00201188001e0090000000e800a5
:10355c00100798001e4fe8009e80fb002e00900084
:10356c00808f5000eeff35000080fa00000006004e
:10357c000000fa00f0032000303a8800213a800065
:10358c00f0f32f0000806000203a8800213a800080
:10359c0000fe2f00008060000000a000203a880090
:1035ac001200200080072000a109200033742000a5
:1035bc00804978008149780082497800103a80006f
:1035cc00000178000200a0006004200071052000ba
:1035dc002374200080497800814978008249780062
:1035ec0000000000113a800000002700808060007d
:1035fc0000002100808f5000faff3a00000000000c
:10360c00113a800000022000008060000000e00001
:10361c00fbff32000080fa00000006000400fa00f4
:10362c00008fbe00b2fd2000930424001e00780021
:10363c009e00900041f50700020020004333240057
:10364c0069f607000080fa00000006000400fa008a
:10365c00008fbe00b2fd2000930424001e007800f1
:10366c009e00900060f60700020020004333240007
:0c367c0032f507000080fa000000060094
:020000040000fa
:02000004000af0
:04afe000cfff00009f
:020000040000fa
:02000004000af0
:04afe400ffff00006b
:020000040000fa
:02000004000af0
:04afe8007fff0000e7
:020000040000fa
:02000004000af0
:04afec005fff000003
:020000040000fa
:02000004000af0
:04aff00038ff000026
:020000040000fa
:02000004000af0
:04aff400ffff00005b
:00000001FF
