:020000040000fa
:080000000002040000000000f2
:020000040000fa
:04000800de03000013
:020000040000fa
:04000c00de0300000f
:020000040000fa
:04001000de0300000b
:020000040000fa
:04001400de03000007
:020000040000fa
:04001800de03000003
:020000040000fa
:04001c00de030000ff
:020000040000fa
:04002000de030000fb
:020000040000fa
:04002400de030000f7
:020000040000fa
:04002800de030000f3
:020000040000fa
:04002c00de030000ef
:020000040000fa
:04003000de030000eb
:020000040000fa
:0400340002030000c3
:020000040000fa
:04003800de030000e3
:020000040000fa
:04003c00de030000df
:020000040000fa
:04004000de030000db
:020000040000fa
:04004400de030000d7
:020000040000fa
:04004800fa020000b8
:020000040000fa
:04004c00de030000cf
:020000040000fa
:04005000de030000cb
:020000040000fa
:040054009a0300000b
:020000040000fa
:040058007003000031
:020000040000fa
:04005c004c03000051
:020000040000fa
:04006000de030000bb
:020000040000fa
:04006400de030000b7
:020000040000fa
:04006800de030000b3
:020000040000fa
:04006c00de030000af
:020000040000fa
:04007000de030000ab
:020000040000fa
:04007400de030000a7
:020000040000fa
:04007800de030000a3
:020000040000fa
:04007c00de0300009f
:020000040000fa
:04008000de0300009b
:020000040000fa
:04008400de03000097
:020000040000fa
:04008800de03000093
:020000040000fa
:04008c00de0300008f
:020000040000fa
:04009000de0300008b
:020000040000fa
:040094002203000043
:020000040000fa
:04009800de03000083
:020000040000fa
:04009c00de0300007f
:020000040000fa
:0400a000de0300007b
:020000040000fa
:0400a400de03000077
:020000040000fa
:0400a800de03000073
:020000040000fa
:0400ac00de0300006f
:020000040000fa
:0400b000de0300006b
:020000040000fa
:0400b400de03000067
:020000040000fa
:0400b800de03000063
:020000040000fa
:0400bc00de0300005f
:020000040000fa
:0400c000de0300005b
:020000040000fa
:0400c400de03000057
:020000040000fa
:0400c800de03000053
:020000040000fa
:0400cc00de0300004f
:020000040000fa
:0400d000de0300004b
:020000040000fa
:0400d400de03000047
:020000040000fa
:0400d800de03000043
:020000040000fa
:0400dc00de0300003f
:020000040000fa
:0400e000de0300003b
:020000040000fa
:0400e400de03000037
:020000040000fa
:0400e800de03000033
:020000040000fa
:0400ec00de0300002f
:020000040000fa
:0400f000de0300002b
:020000040000fa
:0400f400de03000027
:020000040000fa
:0400f800de03000023
:020000040000fa
:0400fc00de0300001f
:020000040000fa
:04010000de0300001a
:020000040000fa
:04010400de03000016
:020000040000fa
:04010800de03000012
:020000040000fa
:04010c00de0300000e
:020000040000fa
:04011000de0300000a
:020000040000fa
:04011400de03000006
:020000040000fa
:04011800de03000002
:020000040000fa
:04011c00de030000fe
:020000040000fa
:04012000de030000fa
:020000040000fa
:04012400de030000f6
:020000040000fa
:04012800de030000f2
:020000040000fa
:04012c00de030000ee
:020000040000fa
:04013000de030000ea
:020000040000fa
:04013400de030000e6
:020000040000fa
:04013800de030000e2
:020000040000fa
:04013c00de030000de
:020000040000fa
:04014000de030000da
:020000040000fa
:04014400de030000d6
:020000040000fa
:04014800de030000d2
:020000040000fa
:04014c00de030000ce
:020000040000fa
:04015000de030000ca
:020000040000fa
:04015400de030000c6
:020000040000fa
:04015800de030000c2
:020000040000fa
:04015c00de030000be
:020000040000fa
:04016000de030000ba
:020000040000fa
:04016400de030000b6
:020000040000fa
:04016800de030000b2
:020000040000fa
:04016c00de030000ae
:020000040000fa
:04017000de030000aa
:020000040000fa
:04017400de030000a6
:020000040000fa
:04017800de030000a2
:020000040000fa
:04017c00de0300009e
:020000040000fa
:04018000de0300009a
:020000040000fa
:04018400de03000096
:020000040000fa
:04018800de03000092
:020000040000fa
:04018c00de0300008e
:020000040000fa
:04019000de0300008a
:020000040000fa
:04019400de03000086
:020000040000fa
:04019800de03000082
:020000040000fa
:04019c00de0300007e
:020000040000fa
:0401a000de0300007a
:020000040000fa
:0401a400de03000076
:020000040000fa
:0401a800de03000072
:020000040000fa
:0401ac00de0300006e
:020000040000fa
:0401b000de0300006a
:020000040000fa
:0401b400de03000066
:020000040000fa
:0401b800de03000062
:020000040000fa
:0401bc00de0300005e
:020000040000fa
:0401c000de0300005a
:020000040000fa
:0401c400de03000056
:020000040000fa
:0401c800de03000052
:020000040000fa
:0401cc00de0300004e
:020000040000fa
:0401d000de0300004a
:020000040000fa
:0401d400de03000046
:020000040000fa
:0401d800de03000042
:020000040000fa
:0401dc00de0300003e
:020000040000fa
:0401e000de0300003a
:020000040000fa
:0401e400de03000036
:020000040000fa
:0401e800de03000032
:020000040000fa
:0401ec00de0300002e
:020000040000fa
:0401f000de0300002a
:020000040000fa
:0401f400de03000026
:020000040000fa
:0401f800de03000022
:020000040000fa
:0401fc00de0300001e
:020000040000fa
:04020000de03000019
:020000040000fa
:04020400de03000015
:020000040000fa
:04020800de03000011
:020000040000fa
:04020c00de0300000d
:020000040000fa
:04021000de03000009
:020000040000fa
:04021400de03000005
:020000040000fa
:04021800de03000001
:020000040000fa
:04021c00de030000fd
:020000040000fa
:04022000de030000f9
:020000040000fa
:04022400de030000f5
:020000040000fa
:04022800de030000f1
:020000040000fa
:04022c00de030000ed
:020000040000fa
:04023000de030000e9
:020000040000fa
:04023400de030000e5
:020000040000fa
:04023800de030000e1
:020000040000fa
:04023c00de030000dd
:020000040000fa
:04024000de030000d9
:020000040000fa
:04024400de030000d5
:020000040000fa
:04024800de030000d1
:020000040000fa
:04024c00de030000cd
:020000040000fa
:04025000de030000c9
:020000040000fa
:04025400de030000c5
:020000040000fa
:04025800de030000c1
:020000040000fa
:04025c00de030000bd
:020000040000fa
:04026000de030000b9
:020000040000fa
:04026400de030000b5
:020000040000fa
:04026800de030000b1
:020000040000fa
:04026c00de030000ad
:020000040000fa
:04027000de030000a9
:020000040000fa
:04027400de030000a5
:020000040000fa
:04027800de030000a1
:020000040000fa
:04027c00de0300009d
:020000040000fa
:04028000de03000099
:020000040000fa
:10040000ef1c21000eff2c000e01880000000000f0
:10041000000020000000e000020032000001200087
:100420002002880014000700e60007000000e0003a
:1004300003003a00e0c12100010020000200370063
:100440000000200001002000810f70000100320038
:100450000f000700000020000000e0000200320052
:100460000000020000000000700702000000000011
:100470000040da000000fe00200020000000e00044
:1004800002003200100020009001880000000600e9
:10049000a1028800800478000000eb001f003700f4
:1004a000e284440054a0b4009905ba00e2844400f8
:1004b00054a0b4009906ba00e284440054a0b400e9
:1004c0000006eb00476fde00fd07b200ae018800ba
:1004d000636ce10003003a000ad801000000eb0061
:1004e0000e003700606ce10008003a00004deb00a0
:1004f0000a05e800020039003420ec000af0a000f0
:100500008b05e900f9ff3e00040037006168e10057
:10051000010032000086eb000b00070019c7ba008b
:100520000e04e0001905ba0003003a000a00e000da
:10053000dbff3a0000000600fe07b200ae028800b2
:100540008a047800f5ff37000cd0a300e20f4d00bd
:100550001c00390089027800354dba000a05e80010
:10056000020039003420ec000af0a0008b05e900fd
:100570000f003200254dba000a05e80002003900dc
:100580003420ec000af0a0008b05e90008003200de
:100590000c00e0000600320015cdba000a05e800a4
:1005a000020039003420ec000af0a0008b05e900bd
:1005b0008984e80054a0b4000b00e000e2ff3a0098
:1005c000000006009902ba00055d78008b05e9007d
:1005d000f7ff3200c82ade00055d78008b05e900d0
:1005e000f3ff32000c00e000f1ff320019ddba0029
:1005f000eeff37000000fa000108a9000080fa00b1
:10060000004006003600f800809fbe00829fbe00ba
:10061000849fbe00869fbe000000fa000068a9000b
:10062000d70b0700680907000080fa004f03be00df
:100630004f02be004f01be004f00be003600f90061
:10064000004006003600f800809fbe00829fbe007a
:10065000849fbe00869fbe000000fa000368a900c8
:10066000108080002180800061004000e080480010
:100670001080880021808800d30207000080fa00e3
:100680004f03be004f02be004f01be004f00be0030
:100690003600f90000400600801f78000000fa00d4
:1006a00001a8a90000188000208e88001018800082
:1006b000308e880020188000408e8800301880001e
:1006c000508e880040188000608e880010c0b300f3
:1006d0001df0b7000080fa004f00780000400600cf
:1006e0003600f800809fbe00829fbe00849fbe003f
:1006f000869fbe000000fa000188a90041808000aa
:1007000030808000808f500002003200400b0700d4
:10071000010037000a70ef000080fa004f03be00ae
:100720004f02be004f01be004f00be003600f90070
:10073000004006003600f800809fbe00829fbe0089
:10074000849fbe00869fbe000000fa000168a900d9
:1007500010118000640060000000e0000100320021
:100760002242a90010118000620060000000e00039
:10077000060032002222a900050037003011800057
:10078000004078008e0b07000100370000000000d9
:1007900010118000610060000000e000f7ff3a00e7
:1007a0000080fa004f03be004f02be004f01be00a2
:1007b0004f00be003600f900004006000040da009d
:1007c0000000fe000000050003f0a200889fbe00ac
:1007d0008a9fbe008c1f78001b0107002201330096
:1007e0006450e1004f0032006420e100520032000a
:1007f00003826c0007003b000905d0000306d0000f
:10080000820f54000c065d00020039000200320025
:1008100089017800030678008582550004003d00b8
:100820000003fd008103fd008502ea008b85420084
:10083000840f720002003b0060001000e08018008e
:100840006011b8000005eb007a28e1000a003900c9
:1008500006007800c75ddd00f707b20087807500ed
:100860002d003700828171000a0178006105600067
:100870008180d1000080d3008502e900f9ff3b00b0
:10088000060440008784480002003b006004140016
:10089000e0841c000988a300070032008a817100ef
:1008a00082817100610164008904d1000884d30051
:1008b0008b05e800170037000978a30013003a0001
:1008c0000b00e000130034008b05e900080444002d
:1008d00089844c000a4474000978a3000d003a0092
:1008e0000b00e000070034008b05e9000804440019
:1008f00089844c0001003a000b0020000978a30015
:10090000f7ff32000001eb00020037008281710026
:100910000a017800910007000cf0a70001f0a00088
:10092000da0037006420e10002003a00838f6c0097
:10093000da0033000801be000200be00d300370019
:10094000889fbe008a9fbe008c1f7800be000700f3
:10095000c500330003866c006450e1002e003200b5
:100960006420e100330032006150e1002f003200ca
:100970006120e1003100320085855500eb07b000b1
:100980000900200008042000050037000804440086
:1009900089844c000a0031000603430087834b0022
:1009a0000001530081815b00f8ff33000203be00a9
:1009b0000800a0000804440089844c00f6ff3900b8
:1009c000c639dd00830173000100320013002000ee
:1009d0008904d1000884d3000998a30005003200df
:1009e0000800a7000300a0008904d1000884d300f8
:1009f0008b05e8008904d1000884d3000001eb00d6
:100a00000281d2005500070001f0a1000cf0a70000
:100a100001f0a0009d0037006420e1009f0032003b
:100a20000801be000200be00f7ff37006120e100b0
:100a30009a0032006000b800f3ff37000000200089
:100a400001f82700f0ff370014002000ca0037002b
:100a5000f4ff2f00c80037000001be00650007004a
:100a60000470a70003f0a1006509b1001600320070
:100a70000d0035006828e10006003500f0ff2f006a
:100a8000f1ff27000300e00013003b0001002800f5
:100a90000000050000004000818048008502e90058
:100aa000fcff3a0008003700f88f420002003c00cb
:100ab0008000eb00000005008100d1000080d30021
:100ac0008502e800fcff3a000300e00002003b0062
:100ad00060001000e0801800000006000001be0069
:100ae000440007000470a70003f0a10003f8a3006e
:100af00013003a006509b10010003200090035000a
:100b00006928e1000200350001002800000005000e
:100b100000004000818048008502e900fcff3a00a7
:100b200000000600f88f4200050035008100d1006a
:100b30000080d3008502e800fcff3a0000000600b8
:100b40008000eb00000005004f89de008201780084
:100b5000a40037006011b800b20037008100200007
:100b6000618055000b003d000b00200061fe2f004e
:100b70000100e1001d003400828171006101640008
:100b80008904d1000884d3000000e800faff3a008d
:100b9000710020006100640003007000020060002a
:100ba0000900320061044400e0844c000988a5007b
:100bb000050032008b05e8006808e10002003a00f9
:100bc0008904d1000884d300f20f20000258e1000c
:100bd00005003d00c75ddd00f907b20089807500a2
:100be00008007800000006000bf827008b00780052
:100bf00000000500c70ade00f107b200f50fb200e1
:100c000008003200e1cf4200020032000170a00073
:100c100024000500810f7000010032000408050067
:100c200044000500810f700002003a001400050026
:100c30008502e9000000400081c04800fcff3b0045
:100c40000170a000240005000004be00e9ff0700b9
:100c50000003be000405be000200be00e5ff070061
:100c6000844f7500000006000200be006450e100e1
:100c7000050036006420e100020036000968a30088
:100c800001003a000800be000160a0004f06780095
:100c90004f05be004f04be0000000600f0ff2f000d
:100ca000f1ff2700f9ff3700889fbe008a9fbe0032
:100cb0008c1f7800e4ff0700ebff330003866c0015
:100cc0006450e100240032006420e100270032007b
:100cd0006150e100220032006120e1002100320079
:100ce0008b854200eb07b1000134b800003ab80030
:100cf0000804420089844a00013ab8000030b80074
:100d00008880400009014a000400330000004000d0
:100d100081804800020149008b05e900c909dd0016
:100d2000830170000100320013002000c814de00af
:100d30004814dd004709de001200b200c808de00da
:100d40000884700085ff070001f0a1000cf0a700e7
:100d500001f0a000cdff37006120e100cfff32009d
:100d60000801be000200be00f7ff37006150e1003d
:100d7000fcff3a00c9ff3700889fbe008a9fbe0073
:100d8000841f7800b0ff07004f0078001100330087
:100d9000f0ff2f00838f6c0006003b000405650008
:100da0000a00a7000800370009f0a6001000200084
:100db00008003700820f5400838f5c000300390065
:100dc0001000200001003e000000200009f0a700f4
:100dd0000000ea004f05be004f04be000000e00026
:100de00000000600881f7800030478000300e0007c
:100df00007003d0060001000e0801800600119004d
:100e0000e081190002003b0001f02d0003003700d3
:100e10000400070008f0a70001f0a0004f047800cc
:100e200000000600889fbe008a9fbe0000827000fe
:100e30000402710004827100260032000004be002a
:100e40000200be006011b8006b092000950220006e
:100e50000182cf000a0039000541b1000082cf00b5
:100e6000070039000541b1000982cf0004003900b4
:100e70000541b1000882cf00010039000541b100f1
:100e800005425200120032000a003b0082817100cc
:100e9000610164008100d1000080d3008984d30007
:100ea0000884d3008b05e8000442e800f7ff3a000d
:100eb000070037000804440089844c000000480003
:100ec000818048008b05e9000442e900f9ff3a00ff
:100ed00022ff07004f05be004f04be0000000600c1
:020000040000fa
:100ee0000c00fa00889fbe00290a07006000b800c5
:100ef000c08d8800d18d88006000b800008e880009
:100f0000118e8800740a070013070700fb0507000d
:100f100013060700910607005f090700e8090700ac
:100f200001003700000000009d090700e14f50005c
:100f3000fcff3a009e09070095090700100798007a
:100f40001e009000100078008000eb0001ff0700f9
:100f5000323323003305240053ff07000200200032
:100f60000358240076fe0700d2cc2c00c3042400d2
:100f70004dff070020079800310798002e019000d0
:100f8000be01900000002000812024006cfe0700bc
:100f900002002000030a24000bfe0700008d8800d9
:100fa000118d88001e0090000080e800100078007d
:100fb0008000eb00e7fe07003233230033052400f6
:100fc00039ff070002002000035824005cfe0700e0
:100fd000d2cc2c00c304240033ff07002007980064
:100fe000310798002e019000be0190000000200003
:100ff0008120240052fe070002002000030a240082
:10100000f1fd0700208d8800318d88001e009000c2
:1010100064004000100078008000eb00cdfe070067
:1010200032332300330524001fff07000200200095
:101030000358240042fe0700d2cc2c00c304240035
:1010400019ff070020079800310798002e01900033
:10105000be019000000020008120240038fe07001f
:1010600002002000030a2400d7fd0700408d8800fd
:10107000518d88001e00900068004000100078002c
:101080008000eb00b3fe0700323323003305240059
:1010900005ff0700020020000358240028fe070077
:1010a000d2cc2c00c3042400fffe070020079800c8
:1010b000310798002e019000be0190000000200032
:1010c000812024001efe070002002000030a2400e5
:1010d000bdfd0700608d8800718d88001e009000a6
:1010e00066004000100078008000eb0099fe0700c9
:1010f0003233230033052400ebfe070002002000fa
:10110000035824000efe0700d2cc2c00c304240098
:10111000e5fe070020079800310798002e01900097
:10112000be019000000020008120240004fe070082
:1011300002002000030a2400a3fd0700808d880020
:10114000918d8800608d8000718d800063fe0700a6
:1011500080447800408d8000518d80005ffe070044
:1011600000447800208d8000318d80005bfe0700f8
:1011700000407800094f9800184f9800204f9800c1
:1011800068004700000178003100200000032000c3
:10119000680707000000eb00000f7800060037002a
:1011a00019090700304f98006b004700110020001c
:1011b0005d0807001e0fe8002c0907009e0f500075
:1011c000f7ff3c0058ff37000000fa001170800064
:1011d00000802000008060000000e000ac003200d1
:1011e0001ad0bf000080fb00cf80de00520120003b
:1011f00003002000820f5000838f5800a2003e00a1
:1012000000060100150037001e00370027003700d8
:1012100033003700430037004e0037004f003700df
:101220005a00370079003700850037008600370004
:101230009200370057003700630037006400370022
:1012400070003700900037008f0037008e003700a5
:101250008d00370024003700300037000230ef00e7
:101260000430ef0012c0b3006000b800f7060700ba
:101270000041eb006000b800f406070010c0b300a6
:101280001af0b7001280800023808000803e20008a
:1012900001002000800f5100818f59008700360027
:1012a00020c0b3001af0b7008500370012c0b300a9
:1012b00000002000011f2400e40607000041eb00ad
:1012c00000002000011f2400e006070030c0b3002a
:1012d0001af0b70064cea90064eea90078003700c8
:1012e000790007007600370012c0b300000020002c
:1012f00001222400d50607000041eb000000200079
:1013000001222400d106070050c1b3001af0b70033
:1013100064cea90064eea800690037006a000700e7
:101320006700370012c0b30000002000011a24003b
:10133000c60607000041eb006000b800c3060700c6
:1013400050c0b3001af0b70064cea90064eea90043
:101350005b0037005c0007005900370012c0b30083
:101360006000b800b90607000041eb000000200053
:10137000011a2400b506070064cea90064eea90096
:1013800070c0b3001af0b7004d0037004e000700e0
:101390004b00370012c0b3000000200001122c00e7
:1013a000aa0607000041eb0000002000011a2400fb
:1013b000a6060700d0c0b3001af0b70064cea9009b
:1013c00064eea9003e0037003f0007003c003700f4
:1013d00012c0b30000002000011a24009b06070081
:1013e0000041eb000000200001122c0097060700ce
:1013f00064cea90064eea900d0c0b3001af0b70013
:101400002f003700300007002d00370012c0b30056
:1014100000002000011a24008c0607000041eb00a8
:1014200000002000011a2c008806070090c0b300bd
:101430001af0b70064cea90064eea90020003700be
:10144000210007001e00370012c0b300000020007a
:10145000011a2c007d0607000041eb00000020006f
:10146000011a240079060700b0c0b3001af0b700d3
:1014700064cea90064eea900110037001200070035
:10148000000000000e0037001a70ef000c0037005b
:101490000230ef000430ef0012c0b3006000b8006b
:1014a0006a0607000041eb006000b800670607000d
:1014b00020c0b3001af0b7000100370000000000a0
:1014c0000080fa00000006001200fa00889fbe00ab
:1014d0008a1f78000040eb00004f78006001200078
:1014e00010079800000220002007980050022000fa
:1014f000300798000002200040079800600120009b
:1015000050079800888d8000998d80001e00900003
:10151000cf80de008cfd07001ac0b3000001be00c2
:101520000800be004afd07000000e00001003c008a
:101530000045eb000a04e0003b003200688d8000ab
:10154000798d80002e009000cf80de007efd0700a8
:101550001ac0b3000001be000800be003cfd070039
:101560000000e00001003c000045eb000a04e00040
:101570002d003200488d8000598d80003e00900083
:10158000cf80de0070fd07001ac0b3000001be006e
:101590000800be002cfd07000000e000010035003f
:1015a0000045eb000a04e0001f003200288d800097
:1015b000398d80004e009000cf80de0062fd070074
:1015c0001ac0b3000001be000800be0020fd0700e5
:1015d0000000e00001003c000045eb000a04e000d0
:1015e00011003200088d8000198d80005e0090008f
:1015f000cf80de0054fd07001ac0b3000001be001a
:101600000800be0012fd07000000e00001003c00e1
:101610000045eb000a04e0000300320030c0b300d4
:10162000004f7800e1033700608d8000718d8000ed
:1016300018c0b300020020000317240002fd0700b9
:101640000000e000010035000044eb000804e00069
:101650000e003200208d8000318d800018c0b30054
:101660000200200003172400f7fc07000000e00040
:10167000010035000044eb000804e00003003200e4
:1016800030c0b300004f7800c8033700888d800059
:10169000998d80001e009000cf80de002afd07009b
:1016a0001ac0b3000001be000800be00e8fc07003d
:1016b0000000e00001003c000045eb000a04e000ef
:1016c0003b003200688d8000798d80002e009000f4
:1016d000cf80de001cfd07001ac0b3000001be0071
:1016e0000800be00dafc07000000e00001003c003a
:1016f0000045eb000a04e0002d003200488d800018
:10170000598d80003e009000cf80de000efd070066
:101710001ac0b3000001be000800be00ccfc0700e8
:101720000000e00001003c000045eb000a04e0007e
:101730001f003200288d8000398d80004e009000ff
:10174000cf80de0000fd07001ac0b3000001be001c
:101750000800be00befc07000000e00001003c00e5
:101760000045eb000a04e00011003200088d800003
:10177000198d80005e009000cf80de00f2fc070033
:101780001ac0b3000001be000800be00b0fc070094
:101790000000e00001003c000045eb000a04e0000e
:1017a0000300320060c0b300004f78007f033700b1
:1017b000888d8000998d80001e009000cf80de0013
:1017c000e1fc07001ac0b3000001be000800be0023
:1017d0009ffc07000000e00001003c000045eb001a
:1017e0000a04e0003b003200688d8000798d8000a3
:1017f0002e009000cf80de00d3fc07001ac0b3009b
:101800000001be000800be0091fc07000000e000df
:1018100001003c000045eb000a04e0002d0032000e
:10182000488d8000598d80003e009000cf80de0002
:10183000c5fc07001ac0b3000001be000800be00ce
:1018400083fc07000000e00001003c000045eb00c5
:101850000a04e0001f003200288d8000398d8000ce
:101860004e009000cf80de00b7fc07001ac0b30026
:101870000001be000800be0075fc07000000e0008b
:1018800001003c000045eb000a04e00011003200ba
:10189000088d8000198d80005e009000cf80de00f2
:1018a000a9fc07001ac0b3000001be000800be007a
:1018b00065fc07000000e000010035000045eb007a
:1018c0000a04e0000300320050c0b300004f78006b
:1018d00036033700888d8000998d80001e009000af
:1018e000cf80de0098fc07001ac0b3000001be00e4
:1018f0000800be0056fc07000000e00001003c00ac
:101900000045eb000a04e0003b003200688d8000d7
:10191000798d80002e009000cf80de008afc0700c9
:101920001ac0b3000001be000800be0048fc07005a
:101930000000e00001003c000045eb000a04e0006c
:101940002d003200488d8000598d80003e009000af
:10195000cf80de007cfc07001ac0b3000001be008f
:101960000800be003afc07000000e00001003c0057
:101970000045eb000a04e0001f003200288d8000c3
:10198000398d80004e009000cf80de006efc070095
:101990001ac0b3000001be000800be002afc070008
:1019a0000000e000010035000045eb000a04e00003
:1019b00011003200088d8000198d80005e009000bb
:1019c000cf80de0060fc07001ac0b3000001be003b
:1019d0000800be001cfc07000000e000010035000c
:1019e0000045eb000a04e0000300320020c0b30011
:1019f000004f7800ed023700888d8000998d8000bf
:101a00001e009000cf80de004ffc07001ac0b3001c
:101a10000001be000800be000dfc07000000e00051
:101a200001003c000045eb000a04e0003b003200ee
:101a3000688d8000798d80002e009000cf80de00c0
:101a400041fc07001ac0b3000001be000800be0040
:101a5000fffb07000000e00001003c000045eb0038
:101a60000a04e0002d003200488d8000598d80006e
:101a70003e009000cf80de0033fc07001ac0b300a8
:101a80000001be000800be00f1fb07000000e000fe
:101a900001003c000045eb000a04e0001f0032009a
:101aa000288d8000398d80004e009000cf80de00b0
:101ab00025fc07001ac0b3000001be000800be00ec
:101ac000e1fb07000000e000010035000045eb00ed
:101ad0000a04e00011003200088d8000198d80009a
:101ae0005e009000cf80de0017fc07001ac0b30034
:101af0000001be000800be00d5fb07000000e000aa
:101b000001003c000045eb000a04e0000300320045
:101b100020c0b300004f7800a4023700888d8000f9
:101b2000998d80001e009000cf80de0006fc07002b
:101b30001ac0b3000001be000800be00c2fb0700cf
:101b40000000e000010035000045eb000a04e00061
:101b50003b003200688d8000798d80002e0090005f
:101b6000cf80de00f8fb07001ac0b3000001be0002
:101b70000800be00b6fb07000000e00001003c00ca
:101b80000045eb000a04e0002d003200488d800083
:101b9000598d80003e009000cf80de00eafb0700f8
:101ba0001ac0b3000001be000800be00a8fb070079
:101bb0000000e00001003c000045eb000a04e000ea
:101bc0001f003200288d8000398d80004e0090006b
:101bd000cf80de00dcfb07001ac0b3000001be00ae
:101be0000800be009afb07000000e00001003c0076
:101bf0000045eb000a04e00011003200088d80006f
:101c0000198d80005e009000cf80de00cefb0700c3
:101c10001ac0b3000001be000800be008cfb070024
:101c20000000e00001003c000045eb000a04e00079
:101c30000300320040c0b300004f78005b02370061
:101c4000888d8000998d80001e009000cf80de007e
:101c5000bdfb07001ac0b3000001be000800be00b3
:101c600079fb07000000e000010035000045eb00b3
:101c70000a04e0003b003200688d8000798d80000e
:101c80002e009000cf80de00affb07001ac0b3002b
:101c90000001be000800be006bfb07000000e00072
:101ca000010035000045eb000a04e0002d00320081
:101cb000488d8000598d80003e009000cf80de006e
:101cc000a1fb07001ac0b3000001be000800be005f
:101cd0005ffb07000000e00001003c000045eb0056
:101ce0000a04e0001f003200288d8000398d80003a
:101cf0004e009000cf80de0093fb07001ac0b300b7
:101d00000001be000800be0051fb07000000e0001b
:101d100001003c000045eb000a04e0001100320025
:101d2000088d8000198d80005e009000cf80de005d
:101d300085fb07001ac0b3000001be000800be000a
:101d400043fb07000000e00001003c000045eb0001
:101d50000a04e0000300320010c0b300004f780016
:101d600012023700888d8000998d80001e0090003f
:101d7000cf80de0074fb07001ac0b3000001be0074
:101d80000800be0032fb07000000e00001003c003c
:101d90000045eb000a04e0003b003200688d800043
:101da000798d80002e009000cf80de0066fb07005a
:101db0001ac0b3000001be000800be0022fb0700ed
:101dc0000000e000010035000045eb000a04e000df
:101dd0002d003200488d8000598d80003e0090001b
:101de000cf80de0058fb07001ac0b3000001be0020
:101df0000800be0016fb07000000e00001003c00e8
:101e00000045eb000a04e0001f003200288d80002e
:101e1000398d80004e009000cf80de004afb070025
:101e20001ac0b3000001be000800be0008fb070096
:101e30000000e00001003c000045eb000a04e00067
:101e400011003200088d8000198d80005e00900026
:101e5000cf80de003cfb07001ac0b3000001be00cb
:101e60000800be00fafa07000000e00001003c0094
:101e70000045eb000a04e0000300320010c0b3008c
:101e8000004f7800c9013700888d8000998d80004f
:101e90001e009000cf80de002bfb07001ac0b300ad
:101ea0000001be000800be00e9fa07000000e000e3
:101eb00001003c000045eb000a04e0003b0032005a
:101ec000688d8000798d80002e009000cf80de002c
:101ed0001dfb07001ac0b3000001be000800be00d1
:101ee000dbfa07000000e00001003c000045eb00c9
:101ef0000a04e0002d003200488d8000598d8000da
:101f00003e009000cf80de000ffb07001ac0b30038
:101f10000001be000800be00cbfa07000000e00090
:101f2000010035000045eb000a04e0001f0032000c
:101f3000288d8000398d80004e009000cf80de001b
:101f400001fb07001ac0b3000001be000800be007c
:101f5000bdfa07000000e000010035000045eb007d
:101f60000a04e00011003200088d8000198d800005
:101f70005e009000cf80de00f3fa07001ac0b300c5
:101f80000001be000800be00b1fa07000000e0003a
:101f900001003c000045eb000a04e00003003200b1
:101fa00030c0b300004f780080013700888d80007a
:101fb000998d80001e009000cf80de00e2fa0700bd
:101fc0001ac0b3000001be000800be00a0fa07005e
:101fd0000000e00001003c000045eb000a04e000c6
:101fe0003b003200688d8000798d80002e009000cb
:101ff000cf80de00d4fa07001ac0b3000001be0093
:102000000800be0090fa07000000e0000100350063
:102010000045eb000a04e0002d003200488d8000ee
:10202000598d80003e009000cf80de00c6fa070088
:102030001ac0b3000001be000800be0082fa07000b
:102040000000e000010035000045eb000a04e0005c
:102050001f003200288d8000398d80004e009000d6
:10206000cf80de00b8fa07001ac0b3000001be003e
:102070000800be0076fa07000000e00001003c0006
:102080000045eb000a04e00011003200088d8000da
:10209000198d80005e009000cf80de00aafa070054
:1020a0001ac0b3000001be000800be0068fa0700b5
:1020b0000000e00001003c000045eb000a04e000e5
:1020c0000300320030c0b300004f78003701370002
:1020d000888d8000998d80001e009000cf80de00ea
:1020e00099fa07001ac0b3000001be000800be0044
:1020f00057fa07000000e00001003c000045eb003b
:102100000a04e0003b003200688d8000798d800079
:102110002e009000cf80de008bfa07001ac0b300bb
:102120000001be000800be0047fa07000000e00002
:10213000010035000045eb000a04e0002d003200ec
:10214000488d8000598d80003e009000cf80de00d9
:102150007dfa07001ac0b3000001be000800be00ef
:1021600039fa07000000e000010035000045eb00ef
:102170000a04e0001f003200288d8000398d8000a5
:102180004e009000cf80de006ffa07001ac0b30047
:102190000001be000800be002bfa07000000e000ae
:1021a000010035000045eb000a04e0001100320098
:1021b000088d8000198d80005e009000cf80de00c9
:1021c00061fa07001ac0b3000001be000800be009b
:1021d0001ffa07000000e00001003c000045eb0092
:1021e0000a04e0000300320030c0b300004f780062
:1021f000ee003700888d8000998d80001e009000d1
:10220000cf80de0050fa07001ac0b3000001be0004
:102210000800be000efa07000000e00001003c00cc
:102220000045eb000a04e0003b003200688d8000ae
:10223000798d80002e009000cf80de0042fa0700ea
:102240001ac0b3000001be000800be0000fa07007b
:102250000000e00001003c000045eb000a04e00043
:102260002d003200488d8000598d80003e00900086
:10227000cf80de0034fa07001ac0b3000001be00b0
:102280000800be00f0f907000000e0000100350082
:102290000045eb000a04e0001f003200288d80009a
:1022a000398d80004e009000cf80de0026fa0700b6
:1022b0001ac0b3000001be000800be00e2f907002a
:1022c0000000e000010035000045eb000a04e000da
:1022d00011003200088d8000198d80005e00900092
:1022e000cf80de0018fa07001ac0b3000001be005c
:1022f0000800be00d4f907000000e000010035002e
:102300000045eb000a04e0000300320020c0b300e7
:10231000004f7800a5003700888d8000998d8000df
:102320001e009000cf80de0007fa07001ac0b3003d
:102330000001be000800be00c3f907000000e00075
:10234000010035000045eb000a04e0003b003200cc
:10235000688d8000798d80002e009000cf80de0097
:10236000f9f907001ac0b3000001be000800be0062
:10237000b5f907000000e000010035000045eb0062
:102380000a04e0002d003200488d8000598d800045
:102390003e009000cf80de00ebf907001ac0b300ca
:1023a0000001be000800be00a7f907000000e00021
:1023b000010035000045eb000a04e0001f00320078
:1023c000288d8000398d80004e009000cf80de0087
:1023d000ddf907001ac0b3000001be000800be000e
:1023e00099f907000000e000010035000045eb000e
:1023f0000a04e00011003200088d8000198d800071
:102400005e009000cf80de00cff907001ac0b30055
:102410000001be000800be008df907000000e000ca
:1024200001003c000045eb000a04e000030032001c
:1024300010c0b300004f78005c003700888d80002a
:10244000998d80001e009000cf80de00bef907004d
:102450001ac0b3000001be000800be007af90700f0
:102460000000e000010035000045eb000a04e00038
:102470003b003200688d8000798d80002e00900036
:10248000cf80de00b0f907001ac0b3000001be0023
:102490000800be006ef907000000e00001003c00eb
:1024a0000045eb000a04e0002d003200488d80005a
:1024b000598d80003e009000cf80de00a2f9070019
:1024c0001ac0b3000001be000800be0060f907009a
:1024d0000000e00001003c000045eb000a04e000c1
:1024e0001f003200288d8000398d80004e00900042
:1024f000cf80de0094f907001ac0b3000001be00cf
:102500000800be0052f907000000e00001003c0096
:102510000045eb000a04e00011003200088d800045
:10252000198d80005e009000cf80de0086f90700e4
:102530001ac0b3000001be000800be0042f9070047
:102540000000e000010035000045eb000a04e00057
:10255000030032000040eb00004f7800130037000a
:10256000488d8000598d80003e009000cf80de00b5
:1025700075f907001ac0b3000001be000800be00d4
:1025800031f907000000e000010035000045eb00d4
:102590000a04e0000300320030c0b300004f7800ae
:1025a000020037000040eb00004f78001e4078002a
:1025b0000004e00003003a0020c0b3001bf0b700a5
:1025c000230037001e407800e64f500003003a0019
:1025d00040c1b3001bf0b7001d0037001e4078005b
:1025e000e24f500003003a0040c0b3001bf0b700b8
:1025f000170037001e407800e54f500003003a00f6
:10260000e0c0b3001bf0b700110037001e40780097
:10261000e14f500003003a0060c0b3001bf0b70068
:102620000b0037001e407800e44f500003003a00d2
:10263000c0c0b3001bf0b700050037001e40780093
:10264000e34f500002003a0080c0b3001bf0b70017
:102650001bd0bf008080fb001ad0bf000080fb00b1
:102660000000e900808f5000200032001bd0bf0026
:102670001af0b700a5012100954278001080800073
:10268000218080004808de00004278001080800031
:10269000218080004008de008041780010808000aa
:1026a000218080004809dd004800de000000710044
:1026b000c808de0000417800108080002180800082
:1026c00000407800454f9800544f9800634f9800a1
:1026d000724f9800005798006c0047000001780086
:1026e0005100200000052000120207004f0578006d
:1026f0004f04be000080fa00000006000000fa004f
:1027000013e1a90011e1a9001061a8001021a9009e
:1027100081088000f0fc2f000080600080088800a5
:102720000a21ef000621ef00202620007008880013
:1027300000a02500600888002142800080ff2f0053
:10274000008060000000a000204288000108a9006d
:102750002108a80011e1a8000080fa00000006008e
:102760000000fa0005e1a9000421a90000002000f2
:10277000812c2400050007000068a9002068a8003b
:1027800005e1a8000080fa00000006000400fa003d
:10279000881f7800008fbe0021088000f0fc2f0009
:1027a00000806000200888001e0178009e019000d3
:1027b0000068290081c1240061f8070018c0b30037
:1027c00002f02f00f3772400a1f807000000e000da
:1027d00001003c000044eb000804e000540032001b
:1027e00021088000f0fc2f00008060000040a00065
:1027f000200888001e0178009e01900000682900d2
:1028000081c124004ef807000200200003102400bc
:102810004bf8070018c0b30002f02f00f377240034
:102820008bf807000000e00001003c000044eb00d2
:102830000804e0003200320021088000f0fc2f0084
:10284000008060000050a000200888001e01780071
:102850009e0190000068290081c1240038f807001b
:10286000020020000328240035f8070018c0b30038
:1028700002f02f00f377240075f807000000e00055
:1028800001003c000044eb000804e00010003200ae
:10289000210880000003200001007000200888004b
:1028a0001e0178009e0190000068290081c124006b
:1028b00023f80700020020000338240020f8070056
:1028c00065f8070000007800100888002000370035
:1028d0001e0178009e0190000068290081c124003b
:1028e00017f80700020020000328240014f807004e
:1028f00059f807000000780010088800140037001d
:102900001e0178009e0190000068290081c124000a
:102910000bf80700020020000310240008f807004d
:102920004df8070000007800100888000800370004
:102930001e0178009e0190000068290081c12400da
:10294000fff7070044f8070000007800100888002f
:102950004f0478000080fa00000006000000fa0032
:102960001fe1a9001e21a90000002000a1472400aa
:10297000050007000368a9002368a8001fe1a8005c
:102980000080fa00000006000400fa00881f7800aa
:10299000008fbe00f1088000f0fc2f000080600076
:1029a000f00888001e0178009e0190000068290050
:1029b00081c12400e2f7070018c0b30002f02f0025
:1029c000f377240022f807000000e00001003c003b
:1029d0000044eb000804e00054003200f1088000dd
:1029e000f0fc2f00008060000040a000f00888008c
:1029f0001e0178009e0190000068290081c124001a
:102a0000cff707000200200003102400ccf70700d6
:102a100018c0b30002f02f00f37724000cf8070071
:102a20000000e00001003c000044eb000804e0006e
:102a300032003200f1088000f0fc2f0000806000be
:102a40000050a000f00888001e0178009e01900050
:102a50000068290081c12400b9f7070002002000a6
:102a600003282400b6f7070018c0b30002f02f00b7
:102a7000f3772400f6f707000000e00001003c00b7
:102a80000044eb000804e00010003200f108800070
:102a90000003200001007000f00888001e0178008b
:102aa0009e0190000068290081c12400a4f707005e
:102ab0000200200003382400a1f70700e6f7070012
:102ac00000007800d0088800200037001e01780040
:102ad0009e0190000068290081c1240098f707003a
:102ae000020020000328240095f70700daf707000a
:102af00000007800d0088800140037001e0178001c
:102b00009e0190000068290081c124008cf7070015
:102b1000020020000310240089f70700cef7070009
:102b200000007800d0088800080037001e017800f7
:102b30009e0190000068290081c1240080f70700f1
:102b4000c5f7070000007800d00888004f0478001f
:102b50000080fa00000006000000fa00116080000a
:102b600080ff2f00008060001060880000fa2000c5
:102b70002060880023aca800238ca800116180008d
:102b8000f03f2f000080600000a0a00010618800ce
:102b90003000200020618800c3aca800c38ca800ce
:102ba00011668000f03f2f000080600000a0a000b0
:102bb00010668800300020002066880001eca80024
:102bc0000080fa00000006000000fa00889fbe00a6
:102bd000048e8000158e8000e08d8000f18d8000d5
:102be00018c0b3000001be000400be0096f7070045
:102bf0000000e000010035000044eb000804e000a4
:102c00000d003200e88d8000f98d8000048e800078
:102c1000158e800090808000a18080000001be00a1
:102c20000400be00e9f607000801be0065010700c8
:102c3000008e8800118e8800048e8000158e800022
:102c4000e08d8000f18d800018c0b3000001be004f
:102c50000400be007ef707000000e00001003c0019
:102c60000044eb000804e0000d003200e88d800015
:102c7000f98d8000048e8000158e80009080800089
:102c8000a18080000001be000400be00cef6070057
:102c90000801be0033010700008e8800118e8800f5
:102ca000008e8000118e800018c0b3006011b80043
:102cb00067f707000000e00001003c000044eb0063
:102cc0000804e00004003200c3cca90024eea800f0
:102cd000c3eca80003003700c3eca90024cea80071
:102ce000c3cca800008e8000118e80000701070071
:102cf0000200200003222400ebf7070077f707000b
:102d00000000780030668800c48d8000d58d80007a
:102d1000a08d8000b18d800018c0b3000001be00fe
:102d20000400be0048f707000000e0000100350085
:102d30000044eb000804e0000d003200a88d800084
:102d4000b98d8000c48d8000d58d8000908080007a
:102d5000a18080000001be000400be009bf60700b9
:102d60000801be0017010700c08d8800d18d8800c2
:102d7000c48d8000d58d8000a08d8000b18d800035
:102d800018c0b3000001be000400be0030f7070009
:102d90000000e00001003c000044eb000804e000fb
:102da0000d003200a88d8000b98d8000c48d800098
:102db000d58d800090808000a18080000001be0041
:102dc0000400be0080f607000801be00e500070011
:102dd000c08d8800d18d8800c08d8000d18d80008d
:102de00018c0b3006011b80019f707000000e00038
:102df00001003c000044eb000804e0000400320045
:102e000023cca90015eea80023eca800030037008e
:102e100023eca90015cea80023cca800c08d80000b
:102e2000d18d8000b9000700020020000322240099
:102e30009df7070029f7070000007800306188003f
:102e40004f04be000080fa00000006000600fa00f1
:102e5000008fbe00424798004e4090000004e00002
:102e600005003a001e0178009e019000a28d8800a6
:102e7000b38d8800050037001e0078009e0090008a
:102e800001f0a200e08d8800f18d88000080fa003a
:102e9000000006000a00fa00200798003107980099
:102ea000420798000040eb00004f7800e0cfb300ed
:102eb0001e4f68002e0090004880de000040780021
:102ec0001e4f68002e009000004078001e4f6800e2
:102ed0003e0090004880de00004078001e4f6800f1
:102ee0003e009000004078001e4f68000000eb009c
:102ef00010079800080037001e009000ce009000d8
:102f000000804000104078001e4f68001e009000b6
:102f10000000e800100798009e0090003e0090001e
:102f2000808f5000f4ff35001e4078000080fa00ca
:102f3000000006000e00fa00889fbe0040079800bf
:102f400051079800620798000f0478000f0078007e
:102f5000800478005e009000660040008000e90078
:102f6000210798000000e8000000e8000000d10000
:102f7000800040000f007800818747000000e800d3
:102f80000000d10000004000300798000000eb0076
:102f900010079800be0090001e00900000804000c6
:102fa000e1cfb300014878001e0090000000e80067
:102fb000100798004e0090004880de0080407800a6
:102fc0003e0190001e009000000041000148780082
:102fd0001e0090000000e800100798004e009000ce
:102fe000804078003e0190001e00900000004100eb
:102ff000014878001e0090000000e80010079800cb
:103000005e0090004880de00804078003e01900025
:103010001e00900000004100014878001e00900052
:103020000000e800100798005e00900080407800e3
:103030003e0190001e009000000041000148780011
:103040001e0090000000e800100798000000eb0050
:10305000000f78000c0037001e007800ee00900092
:1030600000804000904078003e0190001e009000db
:1030700000004100014878001e0090000000e800b8
:10308000100798001e0fe8005e0090009e00780078
:10309000808f5000f0ff35006e019000de00900040
:1030a0004e0090007bff07003e0190009e009000c4
:1030b00081004100804878001e0090000000e80078
:1030c000100798003e0090009e00900096000700b8
:1030d00089077800880778004f04be000080fa0056
:1030e000000006000200fa00004f78000080fa009d
:1030f000000006000600fa00000f78001107980093
:10310000220798000080fa00000006000400fa0080
:10311000881f7800008fbe0018c0b3006011b8008f
:103120001e0078009e00900049f607000000e000b5
:1031300001003d000044eb000804e0000300320001
:103140001e0078009e009000030037001e007800eb
:103150009e00900001f0a2004f0478000080fa0069
:10316000000006000800fa00881f7800008fbe00eb
:10317000220798003307980018c0b3002e01900072
:10318000be0190001e0078009e00900030f60700ff
:103190000000e00001003c000044eb000804e000f7
:1031a000030032001e0078009e00900002003700ed
:1031b0002e009000be0090004f0478000080fa00be
:1031c000000006000800fa00881f7800008fbe008b
:1031d000220798003307980018c0b3002e01900012
:1031e000be0190001e0078009e00900016f60700b9
:1031f0000000e000010035000044eb000804e0009e
:10320000030032001e0078009e009000020037008c
:103210002e009000be0090004f0478000080fa005d
:10322000000006000c00fa00881f7800008fbe0026
:103230002207980033079800440798005507980024
:1032400018c0b3004e019000de0190001e0078000f
:103250009e009000fef507000000e00001003c0029
:103260000044eb000804e000040032004e0190002e
:10327000de019000028fbe000e00370018c0b300c0
:103280002e019000be0190001e0078009e0090006c
:10329000edf507000000e000010035000044eb0000
:1032a0000804e000030032002e019000be019000ef
:1032b000028fbe001e0078009e0090004f04780030
:1032c0000080fa00000006000400fa00008fbe0033
:1032d000b2fd2000930424001e0078009e009000a0
:1032e00097f5070002002000433324006ef6070024
:1032f0000080fa00000006000400fa00008fbe0003
:10330000b2fd2000930424001e0078009e0090006f
:1033100065f60700020020004333240088f507000b
:103320000080fa00000006000600fa00100798006e
:10333000210798000040eb00004f78005000070084
:10334000ae009000810f5000110035000040eb00ee
:10335000004f7800060037001e80fb009e009000a2
:1033600000804000104078000b0007001e4fe8006e
:103370009e80fb002e009000808f5000f6ff3500ed
:103380002c0007000004e00001003a0020000700c4
:103390000080fa00000006000200fa00004f7800ea
:1033a00030808000e1012100808040009e4878004c
:1033b0000000e80030808800318080000008200094
:1033c000808f500001003a000630ef000080fa00c4
:1033d000000006000200fa0040808000e1012100a8
:1033e00080804000114f78000000e8004080880095
:1033f0004180800000082000808f500001003a00ca
:103400000830ef001e4078000080fa00000006003f
:103410000200fa0010c0b3000af0b700edff070089
:10342000004f78001e80fb00201188000080fa0009
:10343000000006000000fa000ad0bf000080fa0079
:10344000000006000000fa0031808000408080000b
:10345000808f500004003500318080004080800063
:1034600000805000040037003180800040808000e0
:10347000008050000008b0000080fa000000060044
:103480000000fa00efff0700010820000080500054
:103490000080fa00000006000000fa0021e3a90005
:1034a0002143a80001198000f0cf2f0000806000a8
:1034b000001988002043a90001198000000e200097
:1034c000010070000019880011198000f0ff210030
:1034d00000806000101988002343a80011198000a3
:1034e000f0cf2f00008060001019880011198000b3
:1034f00030f82f00008060000040a0001019880004
:103500002203a9002223a90025e3a900f0c0b300eb
:1035100024e3b70021198000f00f2e0080806000a6
:1035200000f0200001007000201988003303a9007a
:103530002e0ea8002f6ea8006f2ea8001e2ea80029
:103540004feea8003063a80030c3a8003163a80084
:1035500031e3a8002e03a8004119800000fc2f00d1
:10356000008060004019880028e3a90001a8a90094
:1035700021a8a80021e3a8000080fa0000000600ae
:103580000000fa002023a8000080fa0000000600d6
:103590000000fa00401c21000080fa000000060034
:1035a0000000fa001dd0bf000080fa0000000600f5
:1035b0000000fa001d70ef000080fa000000060015
:1035c0000200fa00004f7800370007000000e0001a
:1035d0000b003400b0808000e109210080804000b1
:1035e0009e4878000000e800b0808800b18080002c
:1035f00000082000808f500001003a001630ef00d4
:103600000080fa00000006000200fa00c08080007e
:10361000e109210080804000114f78000000e8009f
:10362000c0808800c180800000082000808f50008a
:1036300001003a001830ef001e4078000080fa00c8
:10364000000006000000fa00b1808000c080800009
:10365000808f50000200320010c0b300010037001c
:103660000040eb000080fa00000006000000fa00b5
:10367000b1808000c0808000808f50000400350041
:10368000b1808000c08080000080500004003700be
:10369000b1808000c0808000008050000008b00031
:1036a0000080fa00000006000000fa00efff0700ab
:1036b00001082000008050000080fa000000060091
:1036c0000000fa002002a9000111800090ff2f00e5
:1036d000008060000011880020a2a9002062a800dc
:1036e000500520004011880023a2a90023e2a90070
:1036f0000188a9002188a80011118000f0f32f0093
:1037000000806000101188000168a9002168a800ed
:1037100021e2a8002342a8000080fa000000060071
:103720000600fa0010079800210798000040eb00ff
:10373000004f78000040eb00004f78000e0037008b
:1037400000000000111180000020200000806000b7
:103750000000e000fbff3a001e00900010407800df
:103760000080fb00201188001e0090000000e8008f
:10377000100798001e4fe8009e80fb002e0090006e
:10378000808f5000eeff35000080fa000000060038
:103790000000fa00f0032000303a8800213a80004f
:1037a000f0f32f0000806000203a8800213a80006a
:1037b00000fe2f00008060000000a000203a88007a
:1037c0001200200080072000a1092000337420008f
:1037d000804978008149780082497800103a800059
:1037e000000178000200a0006004200071052000a4
:1037f000237420008049780081497800824978004c
:1038000000000000113a8000000027008080600066
:1038100000002100808f5000faff3a0000000000f5
:10382000113a800000022000008060000000e000eb
:0c383000fbff32000080fa0000000600e0
:020000040000fa
:10383c001a100000020000008000000000100000c0
:10384c0006000000800000009e1100002600000011
:10385c008000000012100000040000008200000034
:10386c000000200041000000c41100000a0000000c
:10387c00800000001c10000002000000800000000e
:10388c001e100000800000008000000006100000e8
:10389c0006000000800000009e1000008000000068
:1038ac0080000000161000000400000080000000e2
:1038bc001e11000080000000800000000c100000b1
:0c38cc000600000080000000000000006a
:020000040000fa
:1038d8000000fa000e2eef001e2eef002e2eef0035
:1038e8003e2eef004e2eef005e2eef006e2eef0004
:1038f800214ea90060cea90060eea900016ea800c3
:1039080011cea90011eea90020cea90020eea90031
:10391800200ea800216ea800612ea800102ea80075
:1039280041cea8002136800000f82f0000806000fa
:103938008001b300203688001134800000fc2f007d
:10394800008060000000a000103488000080fa00a9
:043958000000060065
:020000040000fa
:02000004000af0
:04afe000cfff00009f
:020000040000fa
:02000004000af0
:04afe400ffff00006b
:020000040000fa
:02000004000af0
:04afe8007fff0000e7
:020000040000fa
:02000004000af0
:04afec005fff000003
:020000040000fa
:02000004000af0
:04aff00038ff000026
:020000040000fa
:02000004000af0
:04aff400ffff00005b
:00000001FF
