:020000040000fa
:080000000002040000000000f2
:020000040000fa
:04000800de03000013
:020000040000fa
:04000c00de0300000f
:020000040000fa
:04001000de0300000b
:020000040000fa
:04001400de03000007
:020000040000fa
:04001800de03000003
:020000040000fa
:04001c00de030000ff
:020000040000fa
:04002000de030000fb
:020000040000fa
:04002400de030000f7
:020000040000fa
:04002800de030000f3
:020000040000fa
:04002c00de030000ef
:020000040000fa
:04003000de030000eb
:020000040000fa
:0400340002030000c3
:020000040000fa
:04003800de030000e3
:020000040000fa
:04003c00de030000df
:020000040000fa
:04004000de030000db
:020000040000fa
:04004400de030000d7
:020000040000fa
:04004800fa020000b8
:020000040000fa
:04004c00de030000cf
:020000040000fa
:04005000de030000cb
:020000040000fa
:040054009a0300000b
:020000040000fa
:040058007003000031
:020000040000fa
:04005c004c03000051
:020000040000fa
:04006000de030000bb
:020000040000fa
:04006400de030000b7
:020000040000fa
:04006800de030000b3
:020000040000fa
:04006c00de030000af
:020000040000fa
:04007000de030000ab
:020000040000fa
:04007400de030000a7
:020000040000fa
:04007800de030000a3
:020000040000fa
:04007c00de0300009f
:020000040000fa
:04008000de0300009b
:020000040000fa
:04008400de03000097
:020000040000fa
:04008800de03000093
:020000040000fa
:04008c00de0300008f
:020000040000fa
:04009000de0300008b
:020000040000fa
:040094002203000043
:020000040000fa
:04009800de03000083
:020000040000fa
:04009c00de0300007f
:020000040000fa
:0400a000de0300007b
:020000040000fa
:0400a400de03000077
:020000040000fa
:0400a800de03000073
:020000040000fa
:0400ac00de0300006f
:020000040000fa
:0400b000de0300006b
:020000040000fa
:0400b400de03000067
:020000040000fa
:0400b800de03000063
:020000040000fa
:0400bc00de0300005f
:020000040000fa
:0400c000de0300005b
:020000040000fa
:0400c400de03000057
:020000040000fa
:0400c800de03000053
:020000040000fa
:0400cc00de0300004f
:020000040000fa
:0400d000de0300004b
:020000040000fa
:0400d400de03000047
:020000040000fa
:0400d800de03000043
:020000040000fa
:0400dc00de0300003f
:020000040000fa
:0400e000de0300003b
:020000040000fa
:0400e400de03000037
:020000040000fa
:0400e800de03000033
:020000040000fa
:0400ec00de0300002f
:020000040000fa
:0400f000de0300002b
:020000040000fa
:0400f400de03000027
:020000040000fa
:0400f800de03000023
:020000040000fa
:0400fc00de0300001f
:020000040000fa
:04010000de0300001a
:020000040000fa
:04010400de03000016
:020000040000fa
:04010800de03000012
:020000040000fa
:04010c00de0300000e
:020000040000fa
:04011000de0300000a
:020000040000fa
:04011400de03000006
:020000040000fa
:04011800de03000002
:020000040000fa
:04011c00de030000fe
:020000040000fa
:04012000de030000fa
:020000040000fa
:04012400de030000f6
:020000040000fa
:04012800de030000f2
:020000040000fa
:04012c00de030000ee
:020000040000fa
:04013000de030000ea
:020000040000fa
:04013400de030000e6
:020000040000fa
:04013800de030000e2
:020000040000fa
:04013c00de030000de
:020000040000fa
:04014000de030000da
:020000040000fa
:04014400de030000d6
:020000040000fa
:04014800de030000d2
:020000040000fa
:04014c00de030000ce
:020000040000fa
:04015000de030000ca
:020000040000fa
:04015400de030000c6
:020000040000fa
:04015800de030000c2
:020000040000fa
:04015c00de030000be
:020000040000fa
:04016000de030000ba
:020000040000fa
:04016400de030000b6
:020000040000fa
:04016800de030000b2
:020000040000fa
:04016c00de030000ae
:020000040000fa
:04017000de030000aa
:020000040000fa
:04017400de030000a6
:020000040000fa
:04017800de030000a2
:020000040000fa
:04017c00de0300009e
:020000040000fa
:04018000de0300009a
:020000040000fa
:04018400de03000096
:020000040000fa
:04018800de03000092
:020000040000fa
:04018c00de0300008e
:020000040000fa
:04019000de0300008a
:020000040000fa
:04019400de03000086
:020000040000fa
:04019800de03000082
:020000040000fa
:04019c00de0300007e
:020000040000fa
:0401a000de0300007a
:020000040000fa
:0401a400de03000076
:020000040000fa
:0401a800de03000072
:020000040000fa
:0401ac00de0300006e
:020000040000fa
:0401b000de0300006a
:020000040000fa
:0401b400de03000066
:020000040000fa
:0401b800de03000062
:020000040000fa
:0401bc00de0300005e
:020000040000fa
:0401c000de0300005a
:020000040000fa
:0401c400de03000056
:020000040000fa
:0401c800de03000052
:020000040000fa
:0401cc00de0300004e
:020000040000fa
:0401d000de0300004a
:020000040000fa
:0401d400de03000046
:020000040000fa
:0401d800de03000042
:020000040000fa
:0401dc00de0300003e
:020000040000fa
:0401e000de0300003a
:020000040000fa
:0401e400de03000036
:020000040000fa
:0401e800de03000032
:020000040000fa
:0401ec00de0300002e
:020000040000fa
:0401f000de0300002a
:020000040000fa
:0401f400de03000026
:020000040000fa
:0401f800de03000022
:020000040000fa
:0401fc00de0300001e
:020000040000fa
:04020000de03000019
:020000040000fa
:04020400de03000015
:020000040000fa
:04020800de03000011
:020000040000fa
:04020c00de0300000d
:020000040000fa
:04021000de03000009
:020000040000fa
:04021400de03000005
:020000040000fa
:04021800de03000001
:020000040000fa
:04021c00de030000fd
:020000040000fa
:04022000de030000f9
:020000040000fa
:04022400de030000f5
:020000040000fa
:04022800de030000f1
:020000040000fa
:04022c00de030000ed
:020000040000fa
:04023000de030000e9
:020000040000fa
:04023400de030000e5
:020000040000fa
:04023800de030000e1
:020000040000fa
:04023c00de030000dd
:020000040000fa
:04024000de030000d9
:020000040000fa
:04024400de030000d5
:020000040000fa
:04024800de030000d1
:020000040000fa
:04024c00de030000cd
:020000040000fa
:04025000de030000c9
:020000040000fa
:04025400de030000c5
:020000040000fa
:04025800de030000c1
:020000040000fa
:04025c00de030000bd
:020000040000fa
:04026000de030000b9
:020000040000fa
:04026400de030000b5
:020000040000fa
:04026800de030000b1
:020000040000fa
:04026c00de030000ad
:020000040000fa
:04027000de030000a9
:020000040000fa
:04027400de030000a5
:020000040000fa
:04027800de030000a1
:020000040000fa
:04027c00de0300009d
:020000040000fa
:04028000de03000099
:020000040000fa
:100400002f1d21000eff2c000e01880000000000af
:10041000000020000000e000020032000001200087
:100420002002880014000700e60007000000e0003a
:1004300003003a0020e22100010020000200370002
:100440000000200001002000810f70000100320038
:100450000f000700000020000000e0000200320052
:100460000000020000000000700702000000000011
:100470000040da000000fe00200020000000e00044
:1004800002003200100020009001880000000600e9
:10049000a1028800800478000000eb001f003700f4
:1004a000e284440054a0b4009905ba00e2844400f8
:1004b00054a0b4009906ba00e284440054a0b400e9
:1004c0000006eb00476fde00fd07b200ae018800ba
:1004d000636ce10003003a000ad801000000eb0061
:1004e0000e003700606ce10008003a00004deb00a0
:1004f0000a05e800020039003420ec000af0a000f0
:100500008b05e900f9ff3e00040037006168e10057
:10051000010032000086eb000b00070019c7ba008b
:100520000e04e0001905ba0003003a000a00e000da
:10053000dbff3a0000000600fe07b200ae028800b2
:100540008a047800f5ff37000cd0a300e20f4d00bd
:100550001c00390089027800354dba000a05e80010
:10056000020039003420ec000af0a0008b05e900fd
:100570000f003200254dba000a05e80002003900dc
:100580003420ec000af0a0008b05e90008003200de
:100590000c00e0000600320015cdba000a05e800a4
:1005a000020039003420ec000af0a0008b05e900bd
:1005b0008984e80054a0b4000b00e000e2ff3a0098
:1005c000000006009902ba00055d78008b05e9007d
:1005d000f7ff3200c82ade00055d78008b05e900d0
:1005e000f3ff32000c00e000f1ff320019ddba0029
:1005f000eeff37000000fa000108a9000080fa00b1
:10060000004006003600f800809fbe00829fbe00ba
:10061000849fbe00869fbe000000fa000068a9000b
:10062000a30c0700d20a07000080fa004f03be00a7
:100630004f02be004f01be004f00be003600f90061
:10064000004006003600f800809fbe00829fbe007a
:10065000849fbe00869fbe000000fa000368a900c8
:10066000508080006180800061004000e080480090
:100670005080880061808800d70207000080fa005f
:100680004f03be004f02be004f01be004f00be0030
:100690003600f90000400600801f78000000fa00d4
:1006a00001a8a90000188000408e88001018800062
:1006b000508e880020188000608e880030188000de
:1006c000708e880040188000808e880010c0b300b3
:1006d0001ff0b7000080fa004f00780000400600cd
:1006e0003600f800809fbe00829fbe00849fbe003f
:1006f000869fbe000000fa000188a900818080006a
:1007000070808000808f5000020032000c0c0700c7
:10071000010037001270ef000080fa004f03be00a6
:100720004f02be004f01be004f00be003600f90070
:10073000004006003600f800809fbe00829fbe0089
:10074000849fbe00869fbe000000fa000168a900d9
:1007500010118000640060000000e0000100320021
:100760002242a90010118000620060000000e00039
:10077000060032002222a900050037003011800057
:10078000004078005a0c070001003700000000000c
:1007900010118000610060000000e000f7ff3a00e7
:1007a0000080fa004f03be004f02be004f01be00a2
:1007b0004f00be003600f900004006000040da009d
:1007c0000000fe000000050003f0a200889fbe00ac
:1007d0008a9fbe008c1f78001b0107002201330096
:1007e0006450e1004f0032006420e100520032000a
:1007f00003826c0007003b000905d0000306d0000f
:10080000820f54000c065d00020039000200320025
:1008100089017800030678008582550004003d00b8
:100820000003fd008103fd008502ea008b85420084
:10083000840f720002003b0060001000e08018008e
:100840006011b8000005eb007a28e1000a003900c9
:1008500006007800c75ddd00f707b20087807500ed
:100860002d003700828171000a0178006105600067
:100870008180d1000080d3008502e900f9ff3b00b0
:10088000060440008784480002003b006004140016
:10089000e0841c000988a300070032008a817100ef
:1008a00082817100610164008904d1000884d30051
:1008b0008b05e800170037000978a30013003a0001
:1008c0000b00e000130034008b05e900080444002d
:1008d00089844c000a4474000978a3000d003a0092
:1008e0000b00e000070034008b05e9000804440019
:1008f00089844c0001003a000b0020000978a30015
:10090000f7ff32000001eb00020037008281710026
:100910000a017800910007000cf0a70001f0a00088
:10092000da0037006420e10002003a00838f6c0097
:10093000da0033000801be000200be00d300370019
:10094000889fbe008a9fbe008c1f7800be000700f3
:10095000c500330003866c006450e1002e003200b5
:100960006420e100330032006150e1002f003200ca
:100970006120e1003100320085855500eb07b000b1
:100980000900200008042000050037000804440086
:1009900089844c000a0031000603430087834b0022
:1009a0000001530081815b00f8ff33000203be00a9
:1009b0000800a0000804440089844c00f6ff3900b8
:1009c000c639dd00830173000100320013002000ee
:1009d0008904d1000884d3000998a30005003200df
:1009e0000800a7000300a0008904d1000884d300f8
:1009f0008b05e8008904d1000884d3000001eb00d6
:100a00000281d2005500070001f0a1000cf0a70000
:100a100001f0a0009d0037006420e1009f0032003b
:100a20000801be000200be00f7ff37006120e100b0
:100a30009a0032006000b800f3ff37000000200089
:100a400001f82700f0ff370014002000ca0037002b
:100a5000f4ff2f00c80037000001be00650007004a
:100a60000470a70003f0a1006509b1001600320070
:100a70000d0035006828e10006003500f0ff2f006a
:100a8000f1ff27000300e00013003b0001002800f5
:100a90000000050000004000818048008502e90058
:100aa000fcff3a0008003700f88f420002003c00cb
:100ab0008000eb00000005008100d1000080d30021
:100ac0008502e800fcff3a000300e00002003b0062
:100ad00060001000e0801800000006000001be0069
:100ae000440007000470a70003f0a10003f8a3006e
:100af00013003a006509b10010003200090035000a
:100b00006928e1000200350001002800000005000e
:100b100000004000818048008502e900fcff3a00a7
:100b200000000600f88f4200050035008100d1006a
:100b30000080d3008502e800fcff3a0000000600b8
:100b40008000eb00000005004f89de008201780084
:100b5000a40037006011b800b20037008100200007
:100b6000618055000b003d000b00200061fe2f004e
:100b70000100e1001d003400828171006101640008
:100b80008904d1000884d3000000e800faff3a008d
:100b9000710020006100640003007000020060002a
:100ba0000900320061044400e0844c000988a5007b
:100bb000050032008b05e8006808e10002003a00f9
:100bc0008904d1000884d300f20f20000258e1000c
:100bd00005003d00c75ddd00f907b20089807500a2
:100be00008007800000006000bf827008b00780052
:100bf00000000500c70ade00f107b200f50fb200e1
:100c000008003200e1cf4200020032000170a00073
:100c100024000500810f7000010032000408050067
:100c200044000500810f700002003a001400050026
:100c30008502e9000000400081c04800fcff3b0045
:100c40000170a000240005000004be00e9ff0700b9
:100c50000003be000405be000200be00e5ff070061
:100c6000844f7500000006000200be006450e100e1
:100c7000050036006420e100020036000968a30088
:100c800001003a000800be000160a0004f06780095
:100c90004f05be004f04be0000000600f0ff2f000d
:100ca000f1ff2700f9ff3700889fbe008a9fbe0032
:100cb0008c1f7800e4ff0700ebff330003866c0015
:100cc0006450e100240032006420e100270032007b
:100cd0006150e100220032006120e1002100320079
:100ce0008b854200eb07b1000134b800003ab80030
:100cf0000804420089844a00013ab8000030b80074
:100d00008880400009014a000400330000004000d0
:100d100081804800020149008b05e900c909dd0016
:100d2000830170000100320013002000c814de00af
:100d30004814dd004709de001200b200c808de00da
:100d40000884700085ff070001f0a1000cf0a700e7
:100d500001f0a000cdff37006120e100cfff32009d
:100d60000801be000200be00f7ff37006150e1003d
:100d7000fcff3a00c9ff3700889fbe008a9fbe0073
:100d8000841f7800b0ff07004f0078001100330087
:100d9000f0ff2f00838f6c0006003b000405650008
:100da0000a00a7000800370009f0a6001000200084
:100db00008003700820f5400838f5c000300390065
:100dc0001000200001003e000000200009f0a700f4
:100dd0000000ea004f05be004f04be000000e00026
:100de00000000600881f7800030478000300e0007c
:100df00007003d0060001000e0801800600119004d
:100e0000e081190002003b0001f02d0003003700d3
:100e10000400070008f0a70001f0a0004f047800cc
:100e200000000600889fbe008a9fbe0000827000fe
:100e30000402710004827100260032000004be002a
:100e40000200be006011b8006b092000950220006e
:100e50000182cf000a0039000541b1000082cf00b5
:100e6000070039000541b1000982cf0004003900b4
:100e70000541b1000882cf00010039000541b100f1
:100e800005425200120032000a003b0082817100cc
:100e9000610164008100d1000080d3008984d30007
:100ea0000884d3008b05e8000442e800f7ff3a000d
:100eb000070037000804440089844c000000480003
:100ec000818048008b05e9000442e900f9ff3a00ff
:100ed00022ff07004f05be004f04be0000000600c1
:020000040000fa
:100ee0000c00fa00889fbe002b0b07006000b800c2
:100ef000e08d8800f18d88006000b800208e8800a9
:100f0000318e8800201a210011c0b30001487800fa
:100f1000b40a07007a080700620707007a0707008b
:100f2000f8070700280a0700e70a07006c0b07000c
:100f3000740b07000100370000000000640a07007e
:100f4000e14f5000fcff3a00650a07005c0a070009
:100f5000100798001e009000100078008000eb0041
:100f6000fcfe070032332300330524004eff070048
:100f7000020020000358240071fe0700d2cc2c0090
:100f8000c304240048ff0700200798003107980099
:100f90002e019000be01900000002000812024005e
:100fa00067fe070002002000030a240006fe070077
:100fb000208d8800318d88001e0090000080e800a0
:100fc000100078008000eb00e2fe070032332300bf
:100fd0003305240034ff07000200200003582400da
:100fe00057fe0700d2cc2c00c30424002eff0700bc
:100ff00020079800310798002e019000be01900054
:1010000000002000812024004dfe07000200200087
:10101000030a2400ecfd0700408d8800518d8800f4
:101020001e00900064004000100078008000eb007b
:10103000c8fe070032332300330524001aff0700df
:1010400002002000035824003dfe0700d2cc2c00f3
:10105000c304240014ff07002007980031079800fc
:101060002e019000be01900000002000812024008d
:1010700033fe070002002000030a2400d2fd07000f
:10108000608d8800718d88001e009000680040000f
:10109000100078008000eb00aefe07003233230022
:1010a0003305240000ff070002002000035824003d
:1010b00023fe0700d2cc2c00c3042400fafe070054
:1010c00020079800310798002e019000be01900083
:1010d000000020008120240019fe070002002000eb
:1010e000030a2400b8fd0700808d8800918d8800d8
:1010f0001e00900066004000100078008000eb00a9
:1011000094fe07003233230033052400e6fe070077
:10111000020020000358240009fe0700d2cc2c0056
:10112000c3042400e0fe0700200798003107980060
:101130002e019000be0190000000200081202400bc
:10114000fffd070002002000030a24009efd0700a7
:10115000a08d8800b18d8800808d8000918d8000e9
:101160005efe070080447800608d8000718d8000f5
:101170005afe070000447800408d8000518d8000a9
:1011800056fe070000407800194f9800284f98003d
:10119000304f9800690047000001780031002000be
:1011a00000032000c70507000000eb00000f7800d7
:1011b00005003700dd090700004f98000e48900039
:1011c0002c0607001e0fe800f10907009e0f5000d3
:1011d000f8ff3c0059ff37000000fa001170800052
:1011e00000802000008060000000e000dc00320091
:1011f000101a2100104078000080fb00cf80de0034
:101200005201200003002000820f5000838f5800fd
:10121000cf003e0000060100150037001f00370018
:101220002d0037003a003700530037005f003700c9
:1012300064003700700037009d003700aa003700b7
:10124000af003700bc003700710037007e00370068
:101250008300370090003700bd003700bc00370026
:10126000bb003700ba0037002f0037003c003700c2
:101270000a30ef000c30ef0012c0b3006000b8007d
:101280005c0807000041eb006000b8005908070047
:10129000101a210011c0b30001487800528080006c
:1012a00063808000803e200001002000800f5100fc
:1012b000818f5900b6003600201a210010407800b6
:1012c000e14f5000b4003a00101a210021c0b300d1
:1012d00001487800c100370012c0b30000002000b0
:1012e000011f2400430807000041eb00000020001c
:1012f000011f24003f080700101a210031c0b3006d
:101300000148780064cea90064eea900b30037005c
:10131000201a210010407800e14f5000a0003a0050
:10132000b0000700ad00370012c0b300000020007d
:10133000012224002f0807000041eb0000002000dc
:10134000012224002b080700101a210051c1b3000c
:101350000148780064cea90064eea8009f00370021
:10136000201a210010407800e14f50008e003a0012
:101370009c0007009900370012c0b3000000200055
:10138000011a24001b0807000041eb006000b800b0
:1013900018080700101a210051c0b3000148780056
:1013a00064cea90064eea9008c003700201a210049
:1013b00010407800e14f50007d003a00890007009e
:1013c0008600370012c0b3006000b80009080700ab
:1013d0000041eb0000002000011a2400050807006e
:1013e00064cea90064eea900101a210071c0b300f8
:1013f0000148780079003700201a21001040780059
:10140000e14f50006c003a0076000700730037008f
:1014100012c0b3000000200001122c00f5070700e5
:101420000041eb0000002000011a2400f107070032
:10143000101a2100d1c0b3000148780064cea90081
:1014400064eea90065003700201a210010407800e2
:10145000e14f50005a003a00620007005f00370079
:1014600012c0b30000002000011a2400e1070700a9
:101470000041eb000000200001122c00dd070700f6
:1014800064cea90064eea900101a2100d1c0b300f7
:101490000148780051003700201a210010407800e0
:1014a000e14f500048003a004e0007004b00370063
:1014b00012c0b30000002000011a2400cd0707006d
:1014c0000041eb0000002000011a2c00c9070700b2
:1014d000101a210091c0b3000148780064cea90021
:1014e00064eea9003d003700201a2100104078006a
:1014f000e14f500036003a003a000700370037004d
:1015000012c0b30000002000011a2c00b907070028
:101510000041eb0000002000011a2400b50707007d
:10152000101a2100b1c0b3000148780064cea900b0
:1015300064eea90029003700201a2100104078002d
:10154000e14f500024003a00260007002300370036
:10155000101a21008040eb00014878001f0037007e
:101560000a30ef000c30ef0012c0b3006000b8008a
:10157000a00707000041eb006000b8009d070700ce
:10158000101a210021c0b300014878001300370071
:101590000000000011003700000000000f003700bd
:1015a000000000000d003700000000000b003700b5
:1015b00000000000090037000000000007003700ad
:1015c00000000000050037000000000003003700a5
:1015d0000000000001003700000000000080fa0059
:1015e000000006001200fa00889fbe008a1f7800e3
:1015f0000040eb00004f78006001200010079800c9
:1016000000022000200798005002200030079800b8
:101610000002200040079800600120005007980059
:10162000a88d8000b98d80001e009000cf80de0064
:1016300045fd07001ac0b3000001be000800be004f
:1016400003fd07000000e00001003c000045eb0046
:101650000a04e0003b003200888d8000998d8000f4
:101660002e009000cf80de0037fd07001ac0b300c7
:101670000001be000800be00f5fc07000000e0000d
:1016800001003c000045eb000a04e0002d003200a0
:10169000688d8000798d80003e009000cf80de0054
:1016a00029fd07001ac0b3000001be000800be00fb
:1016b000e5fc07000000e000010035000045eb00fc
:1016c0000a04e0001f003200488d8000598d800020
:1016d0004e009000cf80de001bfd07001ac0b30053
:1016e0000001be000800be00d9fc07000000e000b9
:1016f00001003c000045eb000a04e000110032004c
:10170000288d8000398d80005e009000cf80de0043
:101710000dfd07001ac0b3000001be000800be00a6
:10172000cbfc07000000e00001003c000045eb009e
:101730000a04e0000300320030c0b300004f78001c
:10174000e1033700808d8000918d800018c0b300c8
:101750000200200003172400bbfc07000000e0008b
:10176000010035000044eb000804e0000e003200e8
:10177000408d8000518d800018c0b3000200200011
:1017800003172400b0fc07000000e0000100350052
:101790000044eb000804e0000300320030c0b30056
:1017a000004f7800c8033700a88d8000b98d8000f5
:1017b0001e009000cf80de00e3fc07001ac0b300db
:1017c0000001be000800be00a1fc07000000e00010
:1017d00001003c000045eb000a04e0003b00320041
:1017e000888d8000998d80002e009000cf80de00d3
:1017f000d5fc07001ac0b3000001be000800be00ff
:1018000093fc07000000e00001003c000045eb00f5
:101810000a04e0002d003200688d8000798d800080
:101820003e009000cf80de00c7fc07001ac0b30066
:101830000001be000800be0085fc07000000e000bb
:1018400001003c000045eb000a04e0001f003200ec
:10185000488d8000598d80004e009000cf80de00c2
:10186000b9fc07001ac0b3000001be000800be00aa
:1018700077fc07000000e00001003c000045eb00a1
:101880000a04e00011003200288d8000398d8000ac
:101890005e009000cf80de00abfc07001ac0b300f2
:1018a0000001be000800be0069fc07000000e00067
:1018b00001003c000045eb000a04e0000300320098
:1018c00060c0b300004f78007f033700a88d800010
:1018d000b98d80001e009000cf80de009afc0700ca
:1018e0001ac0b3000001be000800be0058fc07008b
:1018f0000000e00001003c000045eb000a04e000ad
:101900003b003200888d8000998d80002e00900071
:10191000cf80de008cfc07001ac0b3000001be00bf
:101920000800be004afc07000000e00001003c0087
:101930000045eb000a04e0002d003200688d8000b5
:10194000798d80003e009000cf80de007efc070095
:101950001ac0b3000001be000800be003cfc070036
:101960000000e00001003c000045eb000a04e0003c
:101970001f003200488d8000598d80004e0090007d
:10198000cf80de0070fc07001ac0b3000001be006b
:101990000800be002efc07000000e00001003c0033
:1019a0000045eb000a04e00011003200288d8000a1
:1019b000398d80005e009000cf80de0062fc070061
:1019c0001ac0b3000001be000800be001efc0700e4
:1019d0000000e000010035000045eb000a04e000d3
:1019e0000300320050c0b300004f780036033700c8
:1019f000a88d8000b98d80001e009000cf80de0091
:101a000051fc07001ac0b3000001be000800be0070
:101a10000ffc07000000e00001003c000045eb0067
:101a20000a04e0003b003200888d8000998d800020
:101a30002e009000cf80de0043fc07001ac0b300e8
:101a40000001be000800be0001fc07000000e0002d
:101a500001003c000045eb000a04e0002d003200cc
:101a6000688d8000798d80003e009000cf80de0080
:101a700035fc07001ac0b3000001be000800be001c
:101a8000f3fb07000000e00001003c000045eb0014
:101a90000a04e0001f003200488d8000598d80004c
:101aa0004e009000cf80de0027fc07001ac0b30074
:101ab0000001be000800be00e3fb07000000e000dc
:101ac000010035000045eb000a04e000110032007f
:101ad000288d8000398d80005e009000cf80de0070
:101ae00019fc07001ac0b3000001be000800be00c8
:101af000d5fb07000000e000010035000045eb00c9
:101b00000a04e0000300320020c0b300004f780058
:101b1000ed023700a88d8000b98d80001e00900076
:101b2000cf80de0008fc07001ac0b3000001be0031
:101b30000800be00c6fb07000000e00001003c00fa
:101b40000045eb000a04e0003b003200888d800075
:101b5000998d80002e009000cf80de00fafb0700f8
:101b60001ac0b3000001be000800be00b8fb0700a9
:101b70000000e00001003c000045eb000a04e0002a
:101b80002d003200688d8000798d80003e0090002d
:101b9000cf80de00ecfb07001ac0b3000001be00de
:101ba0000800be00aafb07000000e00001003c00a6
:101bb0000045eb000a04e0001f003200488d800061
:101bc000598d80004e009000cf80de00defb0700c4
:101bd0001ac0b3000001be000800be009afb070057
:101be0000000e000010035000045eb000a04e000c1
:101bf00011003200288d8000398d80005e00900039
:101c0000cf80de00d0fb07001ac0b3000001be0089
:101c10000800be008efb07000000e00001003c0051
:101c20000045eb000a04e0000300320020c0b300ce
:101c3000004f7800a4023700a88d8000b98d800085
:101c40001e009000cf80de00bffb07001ac0b3006b
:101c50000001be000800be007bfb07000000e000a2
:101c6000010035000045eb000a04e0003b003200b3
:101c7000888d8000998d80002e009000cf80de003e
:101c8000b1fb07001ac0b3000001be000800be008f
:101c90006ffb07000000e00001003c000045eb0086
:101ca0000a04e0002d003200688d8000798d8000ec
:101cb0003e009000cf80de00a3fb07001ac0b300f7
:101cc0000001be000800be0061fb07000000e0004c
:101cd00001003c000045eb000a04e0001f00320058
:101ce000488d8000598d80004e009000cf80de002e
:101cf00095fb07001ac0b3000001be000800be003b
:101d000053fb07000000e00001003c000045eb0031
:101d10000a04e00011003200288d8000398d800017
:101d20005e009000cf80de0087fb07001ac0b30082
:101d30000001be000800be0045fb07000000e000f7
:101d400001003c000045eb000a04e0000300320003
:101d500040c0b300004f78005b023700a88d8000c0
:101d6000b98d80001e009000cf80de0076fb07005a
:101d70001ac0b3000001be000800be0032fb07001d
:101d80000000e000010035000045eb000a04e0001f
:101d90003b003200888d8000998d80002e009000dd
:101da000cf80de0068fb07001ac0b3000001be0050
:101db0000800be0024fb07000000e0000100350021
:101dc0000045eb000a04e0002d003200688d800021
:101dd000798d80003e009000cf80de005afb070026
:101de0001ac0b3000001be000800be0018fb0700c7
:101df0000000e00001003c000045eb000a04e000a8
:101e00001f003200488d8000598d80004e009000e8
:101e1000cf80de004cfb07001ac0b3000001be00fb
:101e20000800be000afb07000000e00001003c00c3
:101e30000045eb000a04e00011003200288d80000c
:101e4000398d80005e009000cf80de003efb0700f1
:101e50001ac0b3000001be000800be00fcfa070073
:101e60000000e00001003c000045eb000a04e00037
:101e70000300320010c0b300004f78001202370098
:101e8000a88d8000b98d80001e009000cf80de00fc
:101e90002dfb07001ac0b3000001be000800be0001
:101ea000ebfa07000000e00001003c000045eb00f9
:101eb0000a04e0003b003200888d8000998d80008c
:101ec0002e009000cf80de001ffb07001ac0b30079
:101ed0000001be000800be00dbfa07000000e000c1
:101ee000010035000045eb000a04e0002d0032003f
:101ef000688d8000798d80003e009000cf80de00ec
:101f000011fb07001ac0b3000001be000800be00ac
:101f1000cffa07000000e00001003c000045eb00a4
:101f20000a04e0001f003200488d8000598d8000b7
:101f30004e009000cf80de0003fb07001ac0b30004
:101f40000001be000800be00c1fa07000000e0006a
:101f500001003c000045eb000a04e00011003200e3
:101f6000288d8000398d80005e009000cf80de00db
:101f7000f5fa07001ac0b3000001be000800be0059
:101f8000b3fa07000000e00001003c000045eb0050
:101f90000a04e0000300320010c0b300004f7800d4
:101fa000c9013700a88d8000b98d80001e00900007
:101fb000cf80de00e4fa07001ac0b3000001be00c3
:101fc0000800be00a2fa07000000e00001003c008b
:101fd0000045eb000a04e0003b003200888d8000e1
:101fe000998d80002e009000cf80de00d6fa070089
:101ff0001ac0b3000001be000800be0094fa07003a
:102000000000e00001003c000045eb000a04e00095
:102010002d003200688d8000798d80003e00900098
:10202000cf80de00c8fa07001ac0b3000001be006e
:102030000800be0084fa07000000e000010035003f
:102040000045eb000a04e0001f003200488d8000cc
:10205000598d80004e009000cf80de00bafa070054
:102060001ac0b3000001be000800be0076fa0700e7
:102070000000e000010035000045eb000a04e0002c
:1020800011003200288d8000398d80005e009000a4
:10209000cf80de00acfa07001ac0b3000001be001a
:1020a0000800be006afa07000000e00001003c00e2
:1020b0000045eb000a04e0000300320030c0b3002a
:1020c000004f780080013700a88d8000b98d800016
:1020d0001e009000cf80de009bfa07001ac0b300fc
:1020e0000001be000800be0059fa07000000e00031
:1020f00001003c000045eb000a04e0003b00320018
:10210000888d8000998d80002e009000cf80de00a9
:102110008dfa07001ac0b3000001be000800be001f
:1021200049fa07000000e000010035000045eb001f
:102130000a04e0002d003200688d8000798d800057
:102140003e009000cf80de007ffa07001ac0b30087
:102150000001be000800be003bfa07000000e000de
:10216000010035000045eb000a04e0001f003200ca
:10217000488d8000598d80004e009000cf80de0099
:1021800071fa07001ac0b3000001be000800be00cb
:102190002ffa07000000e00001003c000045eb00c2
:1021a0000a04e00011003200288d8000398d800083
:1021b0005e009000cf80de0063fa07001ac0b30013
:1021c0000001be000800be0021fa07000000e00088
:1021d00001003c000045eb000a04e000030032006f
:1021e00030c0b300004f780037013700a88d800061
:1021f000b98d80001e009000cf80de0052fa0700eb
:102200001ac0b3000001be000800be0010fa0700ab
:102210000000e00001003c000045eb000a04e00083
:102220003b003200888d8000998d80002e00900048
:10223000cf80de0044fa07001ac0b3000001be00e0
:102240000800be0000fa07000000e00001003500b1
:102250000045eb000a04e0002d003200688d80008c
:10226000798d80003e009000cf80de0036fa0700b6
:102270001ac0b3000001be000800be00f2f907005a
:102280000000e000010035000045eb000a04e0001a
:102290001f003200488d8000598d80004e00900054
:1022a000cf80de0028fa07001ac0b3000001be008c
:1022b0000800be00e4f907000000e000010035005e
:1022c0000045eb000a04e00011003200288d800078
:1022d000398d80005e009000cf80de001afa070082
:1022e0001ac0b3000001be000800be00d8f9070004
:1022f0000000e00001003c000045eb000a04e000a3
:102300000300320030c0b300004f7800ee00370009
:10231000a88d8000b98d80001e009000cf80de0067
:1023200009fa07001ac0b3000001be000800be0091
:10233000c7f907000000e00001003c000045eb0089
:102340000a04e0003b003200888d8000998d8000f7
:102350002e009000cf80de00fbf907001ac0b3000a
:102360000001be000800be00b9f907000000e0004f
:1023700001003c000045eb000a04e0002d003200a3
:10238000688d8000798d80003e009000cf80de0057
:10239000edf907001ac0b3000001be000800be003e
:1023a000a9f907000000e000010035000045eb003e
:1023b0000a04e0001f003200488d8000598d800023
:1023c0004e009000cf80de00dff907001ac0b30096
:1023d0000001be000800be009bf907000000e000fd
:1023e000010035000045eb000a04e0001100320056
:1023f000288d8000398d80005e009000cf80de0047
:10240000d1f907001ac0b3000001be000800be00e9
:102410008df907000000e000010035000045eb00e9
:102420000a04e0000300320020c0b300004f78002f
:10243000a5003700a88d8000b98d80001e00900097
:10244000cf80de00c0f907001ac0b3000001be0053
:102450000800be007cf907000000e0000100350024
:102460000045eb000a04e0003b003200888d80004c
:10247000998d80002e009000cf80de00b2f9070019
:102480001ac0b3000001be000800be006ef90700cc
:102490000000e000010035000045eb000a04e00008
:1024a0002d003200688d8000798d80003e00900004
:1024b000cf80de00a4f907001ac0b3000001be00ff
:1024c0000800be0060f907000000e00001003500d0
:1024d0000045eb000a04e0001f003200488d800038
:1024e000598d80004e009000cf80de0096f90700e5
:1024f0001ac0b3000001be000800be0052f9070078
:102500000000e000010035000045eb000a04e00097
:1025100011003200288d8000398d80005e0090000f
:10252000cf80de0088f907001ac0b3000001be00aa
:102530000800be0046f907000000e00001003c0072
:102540000045eb000a04e0000300320010c0b300b5
:10255000004f78005c003700a88d8000b98d8000a6
:102560001e009000cf80de0077f907001ac0b3008c
:102570000001be000800be0033f907000000e000c3
:10258000010035000045eb000a04e0003b0032008a
:10259000888d8000998d80002e009000cf80de0015
:1025a00069f907001ac0b3000001be000800be00b0
:1025b00027f907000000e00001003c000045eb00a7
:1025c0000a04e0002d003200688d8000798d8000c3
:1025d0003e009000cf80de005bf907001ac0b30018
:1025e0000001be000800be0019f907000000e0006d
:1025f00001003c000045eb000a04e0001f0032002f
:10260000488d8000598d80004e009000cf80de0004
:102610004df907001ac0b3000001be000800be005b
:102620000bf907000000e00001003c000045eb0052
:102630000a04e00011003200288d8000398d8000ee
:102640005e009000cf80de003ff907001ac0b300a3
:102650000001be000800be00fbf807000000e0001b
:10266000010035000045eb000a04e00003003200e1
:102670000040eb00004f780013003700688d8000a9
:10268000798d80003e009000cf80de002ef907009b
:102690001ac0b3000001be000800be00eaf807003f
:1026a0000000e000010035000045eb000a04e000f6
:1026b0000300320030c0b300004f78000200370042
:1026c0000040eb00004f78001e4078000004e0005e
:1026d00003003a0020c0b3001cf0b700230037000d
:1026e0001e407800e64f500003003a0040c1b3009e
:1026f0001cf0b7001d0037001e407800e24f50006c
:1027000003003a0040c0b3001cf0b70017003700c8
:102710001e407800e54f500003003a00e0c0b300cf
:102720001cf0b700110037001e407800e14f500048
:1027300003003a0060c0b3001cf0b7000b00370084
:102740001e407800e44f500003003a00c0c0b300c0
:102750001cf0b700050037001e407800e34f500022
:1027600002003a0080c0b3001cf0b7001cd0bf00cc
:102770008080fb00101a2100104078000080fb00d0
:102780000000e900808f500022003200c1012100ca
:1027900091407800101a210001487800101a210099
:1027a0009042780050808000618080004808de0000
:1027b0000042780050808000618080004008de0088
:1027c0008041780050808000618080004809dd00f1
:1027d0004800de0000007100c808de0000417800fb
:1027e000508080006180800000407800454f980054
:1027f000544f9800634f9800724f9800005798000c
:102800006c00470000017800510020000005200006
:102810002c0007004f0578004f04be000080fa002e
:10282000000006000a00fa0020079800310798000f
:10283000420798000040eb00004f7800e0cfb30063
:102840001e4f68002e0090004880de000040780097
:102850001e4f68002e009000004078001e4f680058
:102860003e0090004880de00004078001e4f680067
:102870003e009000004078001e4f68000000eb0012
:1028800010079800080037001e009000ce0090004e
:1028900000804000104078001e4f68001e0090002d
:1028a0000000e800100798009e0090003e00900095
:1028b000808f5000f4ff35001e4078000080fa0041
:1028c000000006000e00fa00889fbe004007980036
:1028d00051079800620798000f0478000f007800f5
:1028e000800478005e009000660040008000e900ef
:1028f000210798000000e8000000e8000000d10077
:10290000800040000f007800818747000000e80049
:102910000000d10000004000300798000000eb00ec
:1029200010079800be0090001e009000008040003c
:10293000e1cfb300014878001e0090000000e800dd
:10294000100798004e0090004880de00804078001c
:102950003e0190001e0090000000410001487800f8
:102960001e0090000000e800100798004e00900044
:10297000804078003e0190001e0090000000410061
:10298000014878001e0090000000e8001007980041
:102990005e0090004880de00804078003e0190009c
:1029a0001e00900000004100014878001e009000c9
:1029b0000000e800100798005e009000804078005a
:1029c0003e0190001e009000000041000148780088
:1029d0001e0090000000e800100798000000eb00c7
:1029e000000f78000c0037001e007800ee00900009
:1029f00000804000904078003e0190001e00900052
:102a000000004100014878001e0090000000e8002e
:102a1000100798001e0fe8005e0090009e007800ee
:102a2000808f5000f0ff35006e019000de009000b6
:102a30004e0090007bff07003e0190009e0090003a
:102a400081004100804878001e0090000000e800ee
:102a5000100798003e0090009e009000fe020700c4
:102a600089077800880778004f04be000080fa00cc
:102a7000000006000400fa00204798003080800023
:102a8000e30f500023003200e30f500005003e002a
:102a9000e10f500010003200e10f500015003e0021
:102aa00007003700e50f50002a003200e50f500004
:102ab0001f003900e60f500039003200480037008f
:102ac0002e409000e24f400048003a0010002000e5
:102ad00030808800480037002e4090000080fb00c6
:102ae0004800dd0000808800200020003080880041
:102af000410037002e4090008080fb000080800065
:102b00000080400000808800300020003080880075
:102b1000390037002e4090000080fb004800dd00a7
:102b2000108088004000200030808800320037008c
:102b30002e4090008080fb001080800000804000cc
:102b4000108088000430ef005000200030808800a2
:102b5000290037002180800010808000808f500085
:102b600008003d002080800001122100008040000c
:102b7000ae40900001487800208080000000e8000e
:102b8000208088002180800010808000808f50008d
:102b900018003500600020003080880016003700e3
:102ba000ae409000014f78001180800000808000ce
:102bb000021221001bff0700104798001e409000e2
:102bc0009e4f500004003a00118080000080800079
:102bd000021221000a0007000630ef00060037004d
:102be0000630ef0000000000030037000000000086
:102bf00001003700000000000080fa00000006001d
:102c00000600fa00000f78001107980022079800cc
:102c10001e00780011052000810f500004003200d2
:102c200021052000810f5000050032000800370008
:102c30002e009000104078000700070004003700c5
:102c40002e009000104078000900070000000000ee
:102c50000080fa00000006000200fa00004f780031
:102c6000101a21001e4878000080fa0000000600bb
:102c70000200fa00004f7800201a21001e48780058
:102c8000201a210010407800e14f500002003a0065
:102c900064eea8000100370064eea9000080fa008d
:102ca000000006000000fa0013e1a90011e1a900ec
:102cb0001061a8001021a90081088000f0fc2f00fd
:102cc00000806000800888000a21ef000621ef00e4
:102cd000202620007008880000a0250060088800d9
:102ce0002142800080ff2f00008060000000a000d3
:102cf000204288000108a9002108a80011e1a800cd
:102d00000080fa00000006000000fa0005e1a900ba
:102d10000421a90000002000812c240005000700e8
:102d20000068a9002068a80005e1a8000080fa005a
:102d3000000006000400fa00881f7800008fbe0023
:102d400021088000f0fc2f0000806000200888002f
:102d50001e0178009e0190000068290081c12400b6
:102d6000f7f6070018c0b30002f02f00f377240035
:102d700037f707000000e00001003c000044eb00d2
:102d80000804e0005400320021088000f0fc2f000d
:102d9000008060000040a000200888001e0178002c
:102da0009e0190000068290081c12400e4f607001c
:102db0000200200003102400e1f6070018c0b30051
:102dc00002f02f00f377240021f707000000e00055
:102dd00001003c000044eb000804e0003200320037
:102de00021088000f0fc2f00008060000050a0004f
:102df000200888001e0178009e01900000682900cc
:102e000081c12400cef60700020020000328240020
:102e1000cbf6070018c0b30002f02f00f3772400b0
:102e20000bf707000000e00001003c000044eb004d
:102e30000804e00010003200210880000003200098
:102e400001007000200888001e0178009e0190009b
:102e50000068290081c12400b9f6070002002000a3
:102e600003382400b6f60700fbf6070000007800e0
:102e700010088800200037001e0178009e01900095
:102e80000068290081c12400adf60700020020007f
:102e900003282400aaf60700eff6070000007800d8
:102ea00010088800140037001e0178009e01900071
:102eb0000068290081c12400a1f60700020020005b
:102ec000031024009ef60700e3f6070000007800d8
:102ed00010088800080037001e0178009e0190004d
:102ee0000068290081c1240095f60700daf6070082
:102ef00000007800100888004f0478000080fa0075
:102f0000000006000000fa001fe1a9001e21a90030
:102f100000002000a1472400050007000368a90065
:102f20002368a8001fe1a8000080fa000000060046
:102f30000400fa00881f7800008fbe00f1088000ae
:102f4000f0fc2f0000806000f00888001e0178006f
:102f50009e0190000068290081c1240078f60700d6
:102f600018c0b30002f02f00f3772400b8f6070072
:102f70000000e00001003c000044eb000804e00019
:102f800054003200f1088000f0fc2f000080600047
:102f90000040a000f00888001e0178009e0190000b
:102fa0000068290081c1240065f6070002002000a6
:102fb0000310240062f6070018c0b30002f02f00cf
:102fc000f3772400a2f607000000e00001003c00b7
:102fd0000044eb000804e00032003200f1088000f9
:102fe000f0fc2f00008060000050a000f008880076
:102ff0001e0178009e0190000068290081c1240014
:103000004ff6070002002000032824004cf60700ba
:1030100018c0b30002f02f00f37724008cf60700ed
:103020000000e00001003c000044eb000804e00068
:1030300010003200f1088000000320000100700041
:10304000f00888001e0178009e01900000682900a9
:1030500081c124003af60700020020000338240052
:1030600037f607007cf6070000007800d0088800db
:10307000200037001e0178009e01900000682900a2
:1030800081c124002ef6070002002000032824003e
:103090002bf6070070f6070000007800d0088800c3
:1030a000140037001e0178009e019000006829007e
:1030b00081c1240022f60700020020000310240032
:1030c0001ff6070064f6070000007800d0088800ab
:1030d000080037001e0178009e019000006829005a
:1030e00081c1240016f607005bf607000000780097
:1030f000d00888004f0478000080fa000000060025
:103100000000fa001160800080ff2f000080600046
:103110001060880000fa20002060880023aca8001e
:10312000238ca80011618000f03f2f000080600018
:1031300000a0a000106188003000200020618800fd
:10314000c3aca800c38ca80011668000f03f2f001c
:103150000080600000a0a000106688003000200001
:103160002066880001eca8000080fa00000006003c
:103170000000fa00889fbe00248e8000358e8000fb
:10318000008e8000118e800018c0b3000001be00c8
:103190000400be002cf607000000e000010035002e
:1031a0000044eb000804e0000d003200088e8000af
:1031b000198e8000248e8000358e8000a0808000d3
:1031c000b18080000001be000400be007ff5070052
:1031d0000801be00c7000700208e8800318e8800dd
:1031e000248e8000358e8000008e8000118e80003d
:1031f00018c0b3000001be000400be0014f60700b2
:103200000000e00001003c000044eb000804e00086
:103210000d003200088e8000198e8000248e800000
:10322000358e8000a0808000b18080000001be004b
:103230000400be0064f507000801be009500070009
:10324000208e8800318e8800208e8000318e800094
:1032500018c0b3006011b800fdf507000000e000e1
:1032600001003c000044eb000804e00004003200d0
:10327000c3cca90024eea800c3eca80003003700cb
:10328000c3eca90024cea800c3cca800208e8000e7
:10329000318e800069000700020020000322240014
:1032a00081f607000df60700000078003066880000
:1032b000e48d8000f58d8000c08d8000d18d800070
:1032c00018c0b3000001be000400be00def5070018
:1032d0000000e000010035000044eb000804e000bd
:1032e0000d003200c88d8000d98d8000e48d8000f3
:1032f000f58d8000a0808000b18080000001be00bc
:103300000400be0031f507000801be007900070087
:10331000e08d8800f18d8800e48d8000f58d8000bf
:10332000c08d8000d18d800018c0b3000001be00a8
:103330000400be00c6f507000000e00001003c00ec
:103340000044eb000804e0000d003200c88d80004e
:10335000d98d8000e48d8000f58d8000a0808000f4
:10336000b18080000001be000400be0016f5070019
:103370000801be0047000700e08d8800f18d88003d
:10338000e08d8000f18d800018c0b3006011b8009e
:10339000aff507000000e00001003c000044eb0036
:1033a0000804e0000400320023cca90015eea800b8
:1033b00023eca8000300370023eca90015cea800d9
:1033c00023cca800e08d8000f18d80001b00070059
:1033d000020020000322240033f60700bff5070097
:1033e00000007800306188004f04be000080fa00c1
:1033f000000006000600fa00008fbe004247980059
:103400004e4090000004e00005003a001e017800e4
:103410009e019000c28d8800d38d88000500370082
:103420001e0078009e00900001f0a200008e88002f
:10343000118e88000080fa00000006000400fa00e7
:10344000881f7800008fbe0018c0b3006011b8005c
:103450001e0078009e0090007df507000000e0004f
:1034600001003d000044eb000804e00003003200ce
:103470001e0078009e009000030037001e007800b8
:103480009e00900001f0a2004f0478000080fa0036
:10349000000006000800fa00881f7800008fbe00b8
:1034a000220798003307980018c0b3002e0190003f
:1034b000be0190001e0078009e00900064f5070099
:1034c0000000e00001003c000044eb000804e000c4
:1034d000030032001e0078009e00900002003700ba
:1034e0002e009000be0090004f0478000080fa008b
:1034f000000006000800fa00881f7800008fbe0058
:10350000220798003307980018c0b3002e019000de
:10351000be0190001e0078009e0090004af5070052
:103520000000e000010035000044eb000804e0006a
:10353000030032001e0078009e0090000200370059
:103540002e009000be0090004f0478000080fa002a
:10355000000006000c00fa00881f7800008fbe00f3
:1035600022079800330798004407980055079800f1
:1035700018c0b3004e019000de0190001e007800dc
:103580009e00900032f507000000e00001003c00c2
:103590000044eb000804e000040032004e019000fb
:1035a000de019000028fbe000e00370018c0b3008d
:1035b0002e019000be0190001e0078009e00900039
:1035c00021f507000000e000010035000044eb0099
:1035d0000804e000030032002e019000be019000bc
:1035e000028fbe001e0078009e0090004f047800fd
:1035f0000080fa00000006000400fa00008fbe0000
:10360000b2fd2000930424001e0078009e0090006c
:10361000cbf407000200200043332400a2f507008a
:103620000080fa00000006000400fa00008fbe00cf
:10363000b2fd2000930424001e0078009e0090003c
:1036400099f507000200200043332400bcf4070072
:103650000080fa00000006000600fa00100798003b
:10366000210798000040eb00004f78005000070051
:10367000ae009000810f5000110035000040eb00bb
:10368000004f7800060037001e80fb009e0090006f
:1036900000804000104078000b0007001e4fe8003b
:1036a0009e80fb002e009000808f5000f6ff3500ba
:1036b0002c0007000004e00001003a002000070091
:1036c0000080fa00000006000200fa00004f7800b7
:1036d0007080800001022100808040009e487800b8
:1036e0000000e800708088007180800000082000e1
:1036f000808f500001003a000e30ef000080fa0089
:10370000000006000200fa00808080000102210013
:1037100080804000114f78000000e8008080880021
:103720008180800000082000808f500001003a0056
:103730001030ef001e4078000080fa000000060004
:103740000200fa0010c0b30012f0b700edff07004e
:10375000004f78001e80fb00201188000080fa00d6
:10376000000006000000fa0012d0bf000080fa003e
:10377000000006000000fa00718080008080800058
:10378000808f5000040035007180800080808000b0
:10379000008050000400370071808000808080002d
:1037a000008050000008b0000080fa000000060011
:1037b0000000fa00efff0700010820000080500021
:1037c0000080fa00000006000000fa0021e3a900d2
:1037d0002143a80001198000f0cf2f000080600075
:1037e000001988002043a90001198000000e200064
:1037f000010070000019880011198000f0ff2100fd
:1038000000806000101988002343a800111980006f
:10381000f0cf2f000080600010198800111980007f
:1038200030f82f00008060000040a00010198800d0
:103830002203a9002223a90025e3a900f0c0b300b8
:1038400024e3b70021198000f00f2e008080600073
:1038500000f0200001007000201988003303a90047
:103860002e0ea8002f6ea8006f2ea8001e2ea800f6
:103870004feea8003063a80030c3a8003163a80051
:1038800031e3a8002e03a8004119800000fc2f009e
:10389000008060004019880028e3a90001a8a90061
:1038a00021a8a80021e3a8000080fa00000006007b
:1038b0000000fa002023a8000080fa0000000600a3
:1038c0000000fa00801c21000080fa0000000600c1
:1038d0000000fa001fd0bf000080fa0000000600c0
:1038e0000000fa001f70ef000080fa0000000600e0
:1038f0000200fa00004f7800c0808000010a210019
:10390000808040009e4878000000e800c080880069
:10391000c180800000082000808f500001003a0024
:103920001830ef000080fa00000006000200fa00e4
:10393000d0808000010a210080804000114f780073
:103940000000e800d0808800d180800000082000be
:10395000808f500001003a001a30ef001e407800be
:103960000080fa00000006000000fa00c18080001c
:10397000d0808000808f50000200320010c0b30061
:10398000010037000040eb000080fa000000060054
:103990000000fa00c1808000d0808000808f50003d
:1039a00004003500c1808000d0808000008050007d
:1039b00004003700c1808000d0808000008050006b
:1039c0000008b0000080fa00000006000000fa00c5
:1039d000efff070001082000008050000080fa007f
:1039e000000006000000fa000e2eef001e2eef0071
:1039f0002e2eef003e2eef004e2eef005e2eef003b
:103a00006e2eef00214ea90060cea90060eea90045
:103a1000016ea80011cea90011eea90020cea900c8
:103a200020eea900200ea800216ea800612ea8009b
:103a3000102ea80041cea8002136800000f82f00eb
:103a4000008060008001b3002036880011348000bf
:103a500000fc2f00008060000000a00010348800ef
:103a60000136800000f82f008080600010062000e2
:103a7000010070000036880001368000f00f280039
:103a80008080600000002600010070000036880081
:103a9000e135800000f82f00808060006004200085
:103aa00001007000e0358800e1358000f00f28004b
:103ab000808060000050240001007000e035880024
:103ac0000080fa00000006000000fa002002a900b1
:103ad0000111800090ff2f0000806000001188001d
:103ae00020a2a9002062a8005005200040118800f3
:103af00023a2a90023e2a9000188a9002188a80027
:103b000011118000f0f32f00008060001011880078
:103b10000168a9002168a80021e2a8002342a800aa
:103b20000080fa00000006000600fa001007980066
:103b3000210798000040eb00004f78000040eb00a8
:103b4000004f78000e0037000000000011118000c7
:103b500000202000008060000000e000fbff3a0031
:103b60001e009000104078000080fb0020118800ab
:103b70001e0090000000e800100798001e4fe800ab
:103b80009e80fb002e009000808f5000eeff3500dd
:103b90000080fa00000006000000fa00f003200098
:103ba000303a8800213a8000f0f32f000080600056
:103bb000203a8800213a800000fe2f00008060003b
:103bc0000000a000203a880012002000800720009a
:103bd000a1092000337420008049780081497800d1
:103be00082497800103a8000000178000200a000ad
:103bf00060042000710520002374200080497800b3
:103c0000814978008249780000000000113a800064
:103c1000000027008080600000002100808f50009d
:103c2000faff3a0000000000113a80000002200074
:103c3000008060000000e000fbff32000080fa001e
:043c4000000006007a
:020000040000fa
:103c44001c100000020000008000000008100000aa
:103c54000600000080000000a01100002800000001
:103c64008000000014100000040000008200000026
:103c74000000200041000000c81100000a000000fc
:103c8400800000001e100000020000008000000000
:103c94002010000080000000800000000e100000d2
:103ca4000600000080000000a0100000800000005a
:103cb40080000000181000000400000080000000d4
:103cc40020110000800000008000000000100000af
:0c3cd4000800000080000000000000005c
:020000040000fa
:103ce0000000fa00c301a8000080eb00e00e88008d
:103cf0000080eb00f00e8800c1e1a8000080fa000f
:103d0000000006000000fa00c305a8000080eb00d8
:103d1000e02e88000080eb00f02e8800c1e5a800ae
:083d20000080fa00000006001b
:020000040000fa
:02000004000af0
:04afe000cfff00009f
:020000040000fa
:02000004000af0
:04afe400ffff00006b
:020000040000fa
:02000004000af0
:04afe8007fff0000e7
:020000040000fa
:02000004000af0
:04afec005fff000003
:020000040000fa
:02000004000af0
:04aff00038ff000026
:020000040000fa
:02000004000af0
:04aff400ffff00005b
:00000001FF
