:020000040000fa
:080000000002040000000000f2
:020000040000fa
:040008007003000081
:020000040000fa
:04000c00700300007d
:020000040000fa
:040010007003000079
:020000040000fa
:040014007003000075
:020000040000fa
:040018007003000071
:020000040000fa
:04001c00700300006d
:020000040000fa
:040020007003000069
:020000040000fa
:040024007003000065
:020000040000fa
:040028007003000061
:020000040000fa
:04002c00700300005d
:020000040000fa
:040030007003000059
:020000040000fa
:0400340002030000c3
:020000040000fa
:040038007003000051
:020000040000fa
:04003c00700300004d
:020000040000fa
:040040007003000049
:020000040000fa
:040044007003000045
:020000040000fa
:04004800fa020000b8
:020000040000fa
:04004c00700300003d
:020000040000fa
:040050007003000039
:020000040000fa
:040054007003000035
:020000040000fa
:040058007003000031
:020000040000fa
:04005c004c03000051
:020000040000fa
:040060007003000029
:020000040000fa
:040064007003000025
:020000040000fa
:040068007003000021
:020000040000fa
:04006c00700300001d
:020000040000fa
:040070007003000019
:020000040000fa
:040074007003000015
:020000040000fa
:040078007003000011
:020000040000fa
:04007c00700300000d
:020000040000fa
:040080007003000009
:020000040000fa
:040084007003000005
:020000040000fa
:040088007003000001
:020000040000fa
:04008c0070030000fd
:020000040000fa
:0400900070030000f9
:020000040000fa
:040094002203000043
:020000040000fa
:0400980070030000f1
:020000040000fa
:04009c0070030000ed
:020000040000fa
:0400a00070030000e9
:020000040000fa
:0400a40070030000e5
:020000040000fa
:0400a80070030000e1
:020000040000fa
:0400ac0070030000dd
:020000040000fa
:0400b00070030000d9
:020000040000fa
:0400b40070030000d5
:020000040000fa
:0400b80070030000d1
:020000040000fa
:0400bc0070030000cd
:020000040000fa
:0400c00070030000c9
:020000040000fa
:0400c40070030000c5
:020000040000fa
:0400c80070030000c1
:020000040000fa
:0400cc0070030000bd
:020000040000fa
:0400d00070030000b9
:020000040000fa
:0400d40070030000b5
:020000040000fa
:0400d80070030000b1
:020000040000fa
:0400dc0070030000ad
:020000040000fa
:0400e00070030000a9
:020000040000fa
:0400e40070030000a5
:020000040000fa
:0400e80070030000a1
:020000040000fa
:0400ec00700300009d
:020000040000fa
:0400f0007003000099
:020000040000fa
:0400f4007003000095
:020000040000fa
:0400f8007003000091
:020000040000fa
:0400fc00700300008d
:020000040000fa
:040100007003000088
:020000040000fa
:040104007003000084
:020000040000fa
:040108007003000080
:020000040000fa
:04010c00700300007c
:020000040000fa
:040110007003000078
:020000040000fa
:040114007003000074
:020000040000fa
:040118007003000070
:020000040000fa
:04011c00700300006c
:020000040000fa
:040120007003000068
:020000040000fa
:040124007003000064
:020000040000fa
:040128007003000060
:020000040000fa
:04012c00700300005c
:020000040000fa
:040130007003000058
:020000040000fa
:040134007003000054
:020000040000fa
:040138007003000050
:020000040000fa
:04013c00700300004c
:020000040000fa
:040140007003000048
:020000040000fa
:040144007003000044
:020000040000fa
:040148007003000040
:020000040000fa
:04014c00700300003c
:020000040000fa
:040150007003000038
:020000040000fa
:040154007003000034
:020000040000fa
:040158007003000030
:020000040000fa
:04015c00700300002c
:020000040000fa
:040160007003000028
:020000040000fa
:040164007003000024
:020000040000fa
:040168007003000020
:020000040000fa
:04016c00700300001c
:020000040000fa
:040170007003000018
:020000040000fa
:040174007003000014
:020000040000fa
:040178007003000010
:020000040000fa
:04017c00700300000c
:020000040000fa
:040180007003000008
:020000040000fa
:040184007003000004
:020000040000fa
:040188007003000000
:020000040000fa
:04018c0070030000fc
:020000040000fa
:0401900070030000f8
:020000040000fa
:0401940070030000f4
:020000040000fa
:0401980070030000f0
:020000040000fa
:04019c0070030000ec
:020000040000fa
:0401a00070030000e8
:020000040000fa
:0401a40070030000e4
:020000040000fa
:0401a80070030000e0
:020000040000fa
:0401ac0070030000dc
:020000040000fa
:0401b00070030000d8
:020000040000fa
:0401b40070030000d4
:020000040000fa
:0401b80070030000d0
:020000040000fa
:0401bc0070030000cc
:020000040000fa
:0401c00070030000c8
:020000040000fa
:0401c40070030000c4
:020000040000fa
:0401c80070030000c0
:020000040000fa
:0401cc0070030000bc
:020000040000fa
:0401d00070030000b8
:020000040000fa
:0401d40070030000b4
:020000040000fa
:0401d80070030000b0
:020000040000fa
:0401dc0070030000ac
:020000040000fa
:0401e00070030000a8
:020000040000fa
:0401e40070030000a4
:020000040000fa
:0401e80070030000a0
:020000040000fa
:0401ec00700300009c
:020000040000fa
:0401f0007003000098
:020000040000fa
:0401f4007003000094
:020000040000fa
:0401f8007003000090
:020000040000fa
:0401fc00700300008c
:020000040000fa
:040200007003000087
:020000040000fa
:040204007003000083
:020000040000fa
:04020800700300007f
:020000040000fa
:04020c00700300007b
:020000040000fa
:040210007003000077
:020000040000fa
:040214007003000073
:020000040000fa
:04021800700300006f
:020000040000fa
:04021c00700300006b
:020000040000fa
:040220007003000067
:020000040000fa
:040224007003000063
:020000040000fa
:04022800700300005f
:020000040000fa
:04022c00700300005b
:020000040000fa
:040230007003000057
:020000040000fa
:040234007003000053
:020000040000fa
:04023800700300004f
:020000040000fa
:04023c00700300004b
:020000040000fa
:040240007003000047
:020000040000fa
:040244007003000043
:020000040000fa
:04024800700300003f
:020000040000fa
:04024c00700300003b
:020000040000fa
:040250007003000037
:020000040000fa
:040254007003000033
:020000040000fa
:04025800700300002f
:020000040000fa
:04025c00700300002b
:020000040000fa
:040260007003000027
:020000040000fa
:040264007003000023
:020000040000fa
:04026800700300001f
:020000040000fa
:04026c00700300001b
:020000040000fa
:040270007003000017
:020000040000fa
:040274007003000013
:020000040000fa
:04027800700300000f
:020000040000fa
:04027c00700300000b
:020000040000fa
:040280007003000007
:020000040000fa
:10040000ef0321000eff2c000e0188000000000009
:10041000000020000000e000020032000001200087
:100420002002880014000700af0007000000e00071
:1004300003003a000088210001002000020037007c
:100440000000200001002000810f70000100320038
:100450000f000700000020000000e0000200320052
:10046000000002000000000002070200000000007f
:100470000040da000000fe00200020000000e00044
:1004800002003200100020009001880000000600e9
:10049000a1028800800478000000eb001f003700f4
:1004a000e284440054a0b4009905ba00e2844400f8
:1004b00054a0b4009906ba00e284440054a0b400e9
:1004c0000006eb00476fde00fd07b200ae018800ba
:1004d000636ce10003003a000ad801000000eb0061
:1004e0000e003700606ce10008003a00004deb00a0
:1004f0000a05e800020039003420ec000af0a000f0
:100500008b05e900f9ff3e00040037006168e10057
:10051000010032000086eb000b00070019c7ba008b
:100520000e04e0001905ba0003003a000a00e000da
:10053000dbff3a0000000600fe07b200ae028800b2
:100540008a047800f5ff37000cd0a300e20f4d00bd
:100550001c00390089027800354dba000a05e80010
:10056000020039003420ec000af0a0008b05e900fd
:100570000f003200254dba000a05e80002003900dc
:100580003420ec000af0a0008b05e90008003200de
:100590000c00e0000600320015cdba000a05e800a4
:1005a000020039003420ec000af0a0008b05e900bd
:1005b0008984e80054a0b4000b00e000e2ff3a0098
:1005c000000006009902ba00055d78008b05e9007d
:1005d000f7ff3200c82ade00055d78008b05e900d0
:1005e000f3ff32000c00e000f1ff320019ddba0029
:1005f000eeff37000000fa000108a9000080fa00b1
:10060000004006003600f800809fbe00829fbe00ba
:10061000849fbe00869fbe000000fa000068a9000b
:10062000650a0700f00807000080fa004f03be00cb
:100630004f02be004f01be004f00be003600f90061
:10064000004006003600f800809fbe00829fbe007a
:10065000849fbe00869fbe000000fa000368a900c8
:10066000108080002180800061004000e080480010
:100670001080880021808800790207000080fa003d
:100680004f03be004f02be004f01be004f00be0030
:100690003600f90000400600801f78000000fa00d4
:1006a00001a8a90000188000a0818800101880000f
:1006b000b081880020188000c08188003018800038
:1006c000d081880040188000e081880010c0b3000d
:1006d0000df0b7000080fa004f00780000400600df
:1006e0000040da000000fe000000050003f0a20058
:1006f000889fbe008a9fbe008c1f78001b010700e8
:10070000220133006450e1004f0032006420e10018
:100710005200320003826c0007003b000905d00044
:100720000306d000820f54000c065d000200390061
:1007300002003200890178000306780085825500a6
:1007400004003d000003fd008103fd008502ea0076
:100750008b854200840f720002003b006000100095
:10076000e08018006011b8000005eb007a28e10075
:100770000a00390006007800c75ddd00f707b20007
:10078000878075002d003700828171000a01780092
:10079000610560008180d1000080d3008502e900fe
:1007a000f9ff3b00060440008784480002003b003c
:1007b00060041400e0841c000988a30007003200d4
:1007c0008a81710082817100610164008904d10015
:1007d0000884d3008b05e800170037000978a300d0
:1007e00013003a000b00e000130034008b05e90011
:1007f0000804440089844c000a4474000978a3006a
:100800000d003a000b00e000070034008b05e90002
:100810000804440089844c0001003a000b002000c9
:100820000978a300f7ff32000001eb000200370057
:10083000828171000a017800910007000cf0a70086
:1008400001f0a000da0037006420e10002003a0065
:10085000838f6c00da0033000801be000200be0086
:10086000d3003700889fbe008a9fbe008c1f78008f
:10087000be000700c500330003866c006450e10031
:100880002e0032006420e100330032006150e100ac
:100890002f0032006120e1003100320085855500d3
:1008a000eb07b00009002000080420000500370015
:1008b0000804440089844c000a0031000603430008
:1008c00087834b000001530081815b00f8ff3300f8
:1008d0000203be000800a0000804440089844c0004
:1008e000f6ff3900c639dd008301730001003200d4
:1008f000130020008904d1000884d3000998a300c4
:10090000050032000800a7000300a0008904d10000
:100910000884d3008b05e8008904d1000884d30043
:100920000001eb000281d2005500070001f0a10098
:100930000cf0a70001f0a0009d0037006420e1004a
:100940009f0032000801be000200be00f7ff370022
:100950006120e1009a0032006000b800f3ff370028
:100960000000200001f82700f0ff370014002000ed
:10097000ca003700f4ff2f00c80037000001be0096
:10098000650007000470a70003f0a1006509b1002d
:10099000160032000d0035006828e1000600350021
:1009a000f0ff2f00f1ff27000300e00013003b00e1
:1009b0000100280000000500000040008180480080
:1009c0008502e900fcff3a0008003700f88f42007a
:1009d00002003c008000eb00000005008100d10017
:1009e0000080d3008502e800fcff3a000300e0002d
:1009f00002003b0060001000e080180000000600cc
:100a00000001be00440007000470a70003f0a1002d
:100a100003f8a30013003a006509b100100032008a
:100a2000090035006928e1000200350001002800b6
:100a30000000050000004000818048008502e900b8
:100a4000fcff3a0000000600f88f42000500350068
:100a50008100d1000080d3008502e800fcff3a004d
:100a6000000006008000eb00000005004f89de005a
:100a700082017800a40037006011b800b20037008e
:100a800081002000618055000b003d000b0020001c
:100a900061fe2f000100e1001d0034008281710021
:100aa000610164008904d1000884d3000000e800db
:100ab000faff3a007100200061006400030070003a
:100ac000020060000900320061044400e0844c0030
:100ad0000988a500050032008b05e8006808e100e0
:100ae00002003a008904d1000884d300f20f2000ec
:100af0000258e10005003d00c75ddd00f907b200c6
:100b00008980750008007800000006000bf82700b7
:100b10008b00780000000500c70ade00f107b20074
:100b2000f50fb20008003200e1cf420002003200af
:100b30000170a00024000500810f70000100320048
:100b40000408050044000500810f700002003a000f
:100b5000140005008502e9000000400081c0480043
:100b6000fcff3b000170a000240005000004be0053
:100b7000e9ff07000003be000405be000200be003e
:100b8000e5ff0700844f7500000006000200be006c
:100b90006450e100050036006420e10002003600e8
:100ba0000968a30001003a000800be000160a0002f
:100bb0004f0678004f05be004f04be00000006003f
:100bc000f0ff2f00f1ff2700f9ff3700889fbe00dc
:100bd0008a9fbe008c1f7800e4ff0700ebff330004
:100be00003866c006450e100240032006420e100c0
:100bf000270032006150e100220032006120e10054
:100c0000210032008b854200eb07b1000134b800af
:100c1000003ab8000804420089844a00013ab8004a
:100c20000030b8008880400009014a000400330009
:100c30000000400081804800020149008b05e90066
:100c4000c909dd008301700001003200130020009b
:100c5000c814de004814dd004709de001200b200af
:100c6000c808de000884700085ff070001f0a100bd
:100c70000cf0a70001f0a000cdff37006120e100db
:100c8000cfff32000801be000200be00f7ff3700b0
:100c90006150e100fcff3a00c9ff3700889fbe00a9
:100ca0008a9fbe00841f7800b0ff07004f007800c5
:100cb00011003300f0ff2f00838f6c0006003b0013
:100cc000040565000a00a7000800370009f0a60027
:100cd0001000200008003700820f5400838f5c0052
:100ce000030039001000200001003e000000200039
:100cf00009f0a7000000ea004f05be004f04be0047
:100d00000000e00000000600881f7800030478005f
:100d10000300e00007003d0060001000e0801800c4
:100d200060011900e081190002003b0001f02d0074
:100d3000030037000400070008f0a70001f0a0003e
:100d40004f04780000000600889fbe008a9fbe0006
:100d500000827000040271000482710026003200db
:100d60000004be000200be006011b8006b09200044
:100d7000950220000182cf000a0039000541b10030
:100d80000082cf00070039000541b1000982cf0081
:100d9000040039000541b1000882cf00010039008c
:100da0000541b10005425200120032000a003b002a
:100db00082817100610164008100d1000080d30054
:100dc0008984d3000884d3008b05e8000442e8003e
:100dd000f7ff3a00070037000804440089844c00fc
:100de00000004800818048008b05e9000442e900ca
:100df000f9ff3a0022ff07004f05be004f04be0076
:040e000000000600e8
:020000040000fa
:100e04000600fa007b0807006000b80040818800f3
:100e1400518188006000b800808188009181880039
:100e24009f080700d3060700bb050700d30507008a
:100e340051060700250807000100370000000000e4
:100e440064080700e14f5000fcff3a006508070002
:100e54005c080700000f78001e007800100078007e
:100e64008000eb0003ff0700323323003305240026
:100e740055ff0700020020000358240078fe0700f5
:100e8400d2cc2c00c30424004fff070010079800a5
:100e9400210798001e019000ae0190000000200080
:100ea400812024006efe070002002000030a2400b3
:100eb4000dfe070080808800918088001e80e80075
:100ec400100078008000eb00eafe070032332300b4
:100ed400330524003cff07000200200003582400cf
:100ee4005ffe0700d2cc2c00c304240036ff0700a9
:100ef40010079800210798001e019000ae01900091
:100f0400000020008120240055fe0700020020007c
:100f1400030a2400f4fd0700a0808800b180880043
:100f24009e00780064804000100078008000eb0090
:100f3400d0fe0700323323003305240022ff0700cc
:100f4400020020000358240045fe0700d2cc2c00e8
:100f5400c30424001cff0700100798002107980011
:100f64001e019000ae0190000000200081202400aa
:100f74003bfe070002002000030a2400dafd0700fc
:100f8400c0808800d18088009e007800688040007e
:100f9400100078008000eb00b6fe07003233230017
:100fa4003305240008ff0700020020000358240032
:100fb4002bfe0700d2cc2c00c304240002ff070040
:100fc40010079800210798001e019000ae019000c0
:100fd400000020008120240021fe070002002000e0
:100fe400030a2400c0fd0700e0808800f180880027
:100ff4009e00780066804000100078008000eb00be
:101004009cfe07003233230033052400eefe070064
:10101400020020000358240011fe0700d2cc2c004b
:10102400c3042400e8fe0700100798002107980075
:101034001e019000ae0190000000200081202400d9
:1010440007fe070002002000030a2400a6fd070093
:10105400008188001181880079ff37000000fa00c0
:101064001170800000802000008060000000e0001b
:10107400ac0032000ad0bf000080fb00cf80de004d
:101084005201200003002000820f5000838f58007b
:10109400a2003e0000060100150037001e003700c4
:1010a4002700370033003700430037004e00370075
:1010b4004f0037005a0037007900370085003700a9
:1010c400860037009200370057003700630037006e
:1010d4006400370070003700900037008f0037003d
:1010e4008e0037008d0037002400370030003700b1
:1010f4000230ef000430ef0012c0b3006000b8000b
:10110400d90607000041eb006000b800d6060700ce
:1011140010c0b3000af0b700128080002380800062
:10112400803e200001002000800f5100818f590073
:101134008700360020c0b3000af0b70085003700ee
:1011440012c0b30000002000011f2400c6060700df
:101154000041eb0000002000011f2400c20607002c
:1011640030c0b3000af0b70064cea90064eea90051
:1011740078003700790007007600370012c0b3000a
:101184000000200001222400b70607000041eb0004
:101194000000200001222400b306070050c1b30060
:1011a4000af0b70064cea90064eea8006900370015
:1011b4006a0007006700370012c0b3000000200077
:1011c400011a2400a80607000041eb006000b800e3
:1011d400a506070050c0b3000af0b70064cea9000a
:1011e40064eea9005b0037005c000700590037007b
:1011f40012c0b3006000b8009b0607000041eb007a
:1012040000002000011a24009706070064cea900fc
:1012140064eea90070c0b3000af0b7004d003700b7
:101224004e0007004b00370012c0b300000020003e
:1012340001122c008c0607000041eb000000200086
:10124400011a240088060700d0c0b3000af0b700d2
:1012540064cea90064eea9003e0037003f000700f9
:101264003c00370012c0b30000002000011a240023
:101274007d0607000041eb000000200001122c0055
:101284007906070064cea90064eea900d0c0b300bb
:101294000af0b7002f003700300007002d00370098
:1012a40012c0b30000002000011a24006e060700db
:1012b4000041eb0000002000011a2c006a06070020
:1012c40090c0b3000af0b70064cea90064eea90090
:1012d40020003700210007001e00370012c0b300b1
:1012e40000002000011a2c005f0607000041eb00fb
:1012f40000002000011a24005b060700b0c0b30000
:101304000af0b70064cea90064eea900110037000a
:1013140012000700000000000e0037000a70ef0002
:101324000c0037000230ef000430ef0012c0b300ad
:101334006000b8004c0607000041eb006000b800f4
:101344004906070020c0b3000af0b70001003700c7
:10135400000000000080fa00000006000c00fa0003
:10136400889fbe008a1f78000040eb00004f780081
:101374006001200010079800000220002007980058
:101384005002200030079800000220004007980017
:1013940060012000500798000881800019818000b6
:1013a4001e009000cf80de00affd07001ac0b3001e
:1013b4000001be000800be006dfd07000000e00053
:1013c40001003c000045eb000a04e0003b00320051
:1013d400e8808000f98080002e009000cf80de003d
:1013e400a1fd07001ac0b3000001be000800be0042
:1013f4005ffd07000000e00001003c000045eb0039
:101404000a04e0002d003200c8808000d9808000ea
:101414003e009000cf80de0093fd07001ac0b300a9
:101424000001be000800be004ffd07000000e00000
:10143400010035000045eb000a04e0001f00320003
:10144400a8808000b98080004e009000cf80de002c
:1014540085fd07001ac0b3000001be000800be00ed
:1014640043fd07000000e00001003c000045eb00e4
:101474000a04e00011003200888080009980800016
:101484005e009000cf80de0077fd07001ac0b30035
:101494000001be000800be0035fd07000000e000aa
:1014a40001003c000045eb000a04e00003003200a8
:1014b40030c0b300004f7800e1033700e0808000c3
:1014c400f180800018c0b30002002000031724003c
:1014d40025fd07000000e000010035000044eb009a
:1014e4000804e0000e003200a0808000b18080007b
:1014f40018c0b30002002000031724001afd0700df
:101504000000e000010035000044eb000804e000a6
:101514000300320030c0b300004f7800c803370026
:1015240008818000198180001e009000cf80de00b9
:101534004dfd07001ac0b3000001be000800be0044
:101544000bfd07000000e00001003c000045eb003b
:101554000a04e0003b003200e8808000f98080004b
:101564002e009000cf80de003ffd07001ac0b300bc
:101574000001be000800be00fdfc07000000e00002
:1015840001003c000045eb000a04e0002d0032009d
:10159400c8808000d98080003e009000cf80de00ab
:1015a40031fd07001ac0b3000001be000800be00f0
:1015b400effc07000000e00001003c000045eb00e8
:1015c4000a04e0001f003200a8808000b980800077
:1015d4004e009000cf80de0023fd07001ac0b30048
:1015e4000001be000800be00e1fc07000000e000ae
:1015f40001003c000045eb000a04e0001100320049
:1016040088808000998080005e009000cf80de009a
:1016140015fd07001ac0b3000001be000800be009b
:10162400d3fc07000000e00001003c000045eb0093
:101634000a04e0000300320060c0b300004f7800e9
:101644007f03370008818000198180001e0090000c
:10165400cf80de0004fd07001ac0b3000001be0005
:101664000800be00c2fc07000000e00001003c00ce
:101674000045eb000a04e0003b003200e8808000f3
:10168400f98080002e009000cf80de00f6fc070079
:101694001ac0b3000001be000800be00b4fc07007d
:1016a4000000e00001003c000045eb000a04e000fb
:1016b4002d003200c8808000d98080003e00900058
:1016c400cf80de00e8fc07001ac0b3000001be00b2
:1016d4000800be00a6fc07000000e00001003c007a
:1016e4000045eb000a04e0001f003200a8808000df
:1016f400b98080004e009000cf80de00dafc070045
:101704001ac0b3000001be000800be0098fc070028
:101714000000e00001003c000045eb000a04e0008a
:101724001100320088808000998080005e00900063
:10173400cf80de00ccfc07001ac0b3000001be005d
:101744000800be0088fc07000000e000010035002e
:101754000045eb000a04e0000300320050c0b3006f
:10176400004f78003603370008818000198180001b
:101774001e009000cf80de00bbfc07001ac0b3003f
:101784000001be000800be0079fc07000000e00074
:1017940001003c000045eb000a04e0003b0032007d
:1017a400e8808000f98080002e009000cf80de0069
:1017b400adfc07001ac0b3000001be000800be0063
:1017c4006bfc07000000e00001003c000045eb005a
:1017d4000a04e0002d003200c8808000d980800017
:1017e4003e009000cf80de009ffc07001ac0b300cb
:1017f4000001be000800be005dfc07000000e00020
:1018040001003c000045eb000a04e0001f00320028
:10181400a8808000b98080004e009000cf80de0058
:1018240091fc07001ac0b3000001be000800be000e
:101834004dfc07000000e000010035000045eb000e
:101844000a04e00011003200888080009980800042
:101854005e009000cf80de0083fc07001ac0b30056
:101864000001be000800be003ffc07000000e000cd
:10187400010035000045eb000a04e00003003200db
:1018840020c0b300004f7800ed02370008818000cb
:10189400198180001e009000cf80de0072fc0700da
:1018a4001ac0b3000001be000800be0030fc0700ef
:1018b4000000e00001003c000045eb000a04e000e9
:1018c4003b003200e8808000f98080002e00900008
:1018d400cf80de0064fc07001ac0b3000001be0024
:1018e4000800be0022fc07000000e00001003c00ec
:1018f4000045eb000a04e0002d003200c88080009f
:10190400d98080003e009000cf80de0056fc0700a6
:101914001ac0b3000001be000800be0014fc07009a
:101924000000e00001003c000045eb000a04e00078
:101934001f003200a8808000b98080004e00900013
:10194400cf80de0048fc07001ac0b3000001be00cf
:101954000800be0004fc07000000e00001003500a0
:101964000045eb000a04e00011003200888080008a
:10197400998080005e009000cf80de003afc070072
:101984001ac0b3000001be000800be00f8fb070047
:101994000000e00001003c000045eb000a04e00008
:1019a4000300320020c0b300004f7800a4023700c7
:1019b40008818000198180001e009000cf80de0025
:1019c40029fc07001ac0b3000001be000800be00d5
:1019d400e5fb07000000e000010035000045eb00d6
:1019e4000a04e0003b003200e8808000f9808000b7
:1019f4002e009000cf80de001bfc07001ac0b3004d
:101a04000001be000800be00d9fb07000000e00092
:101a140001003c000045eb000a04e0002d00320008
:101a2400c8808000d98080003e009000cf80de0016
:101a34000dfc07001ac0b3000001be000800be0080
:101a4400cbfb07000000e00001003c000045eb0078
:101a54000a04e0001f003200a8808000b9808000e2
:101a64004e009000cf80de00fffb07001ac0b300d9
:101a74000001be000800be00bdfb07000000e0003e
:101a840001003c000045eb000a04e00011003200b4
:101a940088808000998080005e009000cf80de0006
:101aa400f1fb07001ac0b3000001be000800be002d
:101ab400affb07000000e00001003c000045eb0024
:101ac4000a04e0000300320040c0b300004f780075
:101ad4005b02370008818000198180001e0090009d
:101ae400cf80de00e0fb07001ac0b3000001be0097
:101af4000800be009cfb07000000e0000100350068
:101b04000045eb000a04e0003b003200e88080005e
:101b1400f98080002e009000cf80de00d2fb070009
:101b24001ac0b3000001be000800be008efb07000f
:101b34000000e000010035000045eb000a04e0006d
:101b44002d003200c8808000d98080003e009000c3
:101b5400cf80de00c4fb07001ac0b3000001be0042
:101b64000800be0082fb07000000e00001003c000a
:101b74000045eb000a04e0001f003200a88080004a
:101b8400b98080004e009000cf80de00b6fb0700d5
:101b94001ac0b3000001be000800be0074fb0700b9
:101ba4000000e00001003c000045eb000a04e000f6
:101bb4001100320088808000998080005e009000cf
:101bc400cf80de00a8fb07001ac0b3000001be00ee
:101bd4000800be0066fb07000000e00001003c00b6
:101be4000045eb000a04e0000300320010c0b3001b
:101bf400004f7800120237000881800019818000ac
:101c04001e009000cf80de0097fb07001ac0b300cf
:101c14000001be000800be0055fb07000000e00004
:101c240001003c000045eb000a04e0003b003200e8
:101c3400e8808000f98080002e009000cf80de00d4
:101c440089fb07001ac0b3000001be000800be00f3
:101c540045fb07000000e000010035000045eb00f3
:101c64000a04e0002d003200c8808000d980800082
:101c74003e009000cf80de007bfb07001ac0b3005b
:101c84000001be000800be0039fb07000000e000b0
:101c940001003c000045eb000a04e0001f00320094
:101ca400a8808000b98080004e009000cf80de00c4
:101cb4006dfb07001ac0b3000001be000800be009f
:101cc4002bfb07000000e00001003c000045eb0096
:101cd4000a04e000110032008880800099808000ae
:101ce4005e009000cf80de005ffb07001ac0b300e7
:101cf4000001be000800be001dfb07000000e0005c
:101d040001003c000045eb000a04e000030032003f
:101d140010c0b300004f7800c9013700088180006b
:101d2400198180001e009000cf80de004efb07006a
:101d34001ac0b3000001be000800be000cfb07007f
:101d44000000e00001003c000045eb000a04e00054
:101d54003b003200e8808000f98080002e00900073
:101d6400cf80de0040fb07001ac0b3000001be00b4
:101d74000800be00fefa07000000e00001003c007d
:101d84000045eb000a04e0002d003200c88080000a
:101d9400d98080003e009000cf80de0032fb070037
:101da4001ac0b3000001be000800be00eefa07002e
:101db4000000e000010035000045eb000a04e000eb
:101dc4001f003200a8808000b98080004e0090007f
:101dd400cf80de0024fb07001ac0b3000001be0060
:101de4000800be00e0fa07000000e0000100350032
:101df4000045eb000a04e0001100320088808000f6
:101e0400998080005e009000cf80de0016fb070002
:101e14001ac0b3000001be000800be00d4fa0700d7
:101e24000000e00001003c000045eb000a04e00073
:101e34000300320030c0b300004f78008001370047
:101e440008818000198180001e009000cf80de0090
:101e540005fb07001ac0b3000001be000800be0065
:101e6400c3fa07000000e00001003c000045eb005d
:101e74000a04e0003b003200e8808000f980800022
:101e84002e009000cf80de00f7fa07001ac0b300de
:101e94000001be000800be00b3fa07000000e00025
:101ea400010035000045eb000a04e0002d0032007b
:101eb400c8808000d98080003e009000cf80de0082
:101ec400e9fa07001ac0b3000001be000800be0012
:101ed400a5fa07000000e000010035000045eb0012
:101ee4000a04e0001f003200a8808000b98080004e
:101ef4004e009000cf80de00dbfa07001ac0b3006a
:101f04000001be000800be0099fa07000000e000ce
:101f140001003c000045eb000a04e000110032001f
:101f240088808000998080005e009000cf80de0071
:101f3400cdfa07001ac0b3000001be000800be00bd
:101f44008bfa07000000e00001003c000045eb00b4
:101f54000a04e0000300320030c0b300004f7800f0
:101f64003701370008818000198180001e0090002d
:101f7400cf80de00bcfa07001ac0b3000001be0027
:101f84000800be007afa07000000e00001003c00ef
:101f94000045eb000a04e0003b003200e8808000ca
:101fa400f98080002e009000cf80de00aefa07009a
:101fb4001ac0b3000001be000800be006afa0700a0
:101fc4000000e000010035000045eb000a04e000d9
:101fd4002d003200c8808000d98080003e0090002f
:101fe400cf80de00a0fa07001ac0b3000001be00d3
:101ff4000800be005cfa07000000e00001003500a4
:102004000045eb000a04e0001f003200a8808000b5
:10201400b98080004e009000cf80de0092fa070065
:102024001ac0b3000001be000800be004efa07004b
:102034000000e000010035000045eb000a04e00068
:102044001100320088808000998080005e0090003a
:10205400cf80de0084fa07001ac0b3000001be007e
:102064000800be0042fa07000000e00001003c0046
:102074000045eb000a04e0000300320030c0b30066
:10208400004f7800ee00370008818000198180003d
:102094001e009000cf80de0073fa07001ac0b30060
:1020a4000001be000800be0031fa07000000e00095
:1020b40001003c000045eb000a04e0003b00320054
:1020c400e8808000f98080002e009000cf80de0040
:1020d40065fa07001ac0b3000001be000800be0084
:1020e40023fa07000000e00001003c000045eb007b
:1020f4000a04e0002d003200c8808000d9808000ee
:102104003e009000cf80de0057fa07001ac0b300eb
:102114000001be000800be0013fa07000000e00042
:10212400010035000045eb000a04e0001f00320006
:10213400a8808000b98080004e009000cf80de002f
:1021440049fa07001ac0b3000001be000800be002f
:1021540005fa07000000e000010035000045eb002f
:102164000a04e00011003200888080009980800019
:102174005e009000cf80de003bfa07001ac0b30077
:102184000001be000800be00f7f907000000e000ef
:10219400010035000045eb000a04e00003003200b2
:1021a40020c0b300004f7800a500370008818000ec
:1021b400198180001e009000cf80de002afa0700fb
:1021c4001ac0b3000001be000800be00e6f9070013
:1021d4000000e000010035000045eb000a04e000c7
:1021e4003b003200e8808000f98080002e009000df
:1021f400cf80de001cfa07001ac0b3000001be0045
:102204000800be00d8f907000000e0000100350016
:102214000045eb000a04e0002d003200c880800075
:10222400d98080003e009000cf80de000efa0700c7
:102234001ac0b3000001be000800be00caf90700be
:102244000000e000010035000045eb000a04e00056
:102254001f003200a8808000b98080004e009000ea
:10226400cf80de0000fa07001ac0b3000001be00f0
:102274000800be00bcf907000000e00001003500c2
:102284000045eb000a04e000110032008880800061
:10229400998080005e009000cf80de00f2f9070094
:1022a4001ac0b3000001be000800be00b0f9070068
:1022b4000000e00001003c000045eb000a04e000df
:1022c4000300320010c0b300004f78005c003700f8
:1022d40008818000198180001e009000cf80de00fc
:1022e400e1f907001ac0b3000001be000800be00f7
:1022f4009df907000000e000010035000045eb00f7
:102304000a04e0003b003200e8808000f98080008d
:102314002e009000cf80de00d3f907001ac0b3006e
:102324000001be000800be0091f907000000e000b3
:1023340001003c000045eb000a04e0002d003200df
:10234400c8808000d98080003e009000cf80de00ed
:10235400c5f907001ac0b3000001be000800be00a2
:1023640083f907000000e00001003c000045eb0099
:102374000a04e0001f003200a8808000b9808000b9
:102384004e009000cf80de00b7f907001ac0b300fa
:102394000001be000800be0075f907000000e0005f
:1023a40001003c000045eb000a04e000110032008b
:1023b40088808000998080005e009000cf80de00dd
:1023c400a9f907001ac0b3000001be000800be004e
:1023d40065f907000000e000010035000045eb004e
:1023e4000a04e000030032000040eb00004f7800d4
:1023f40013003700c8808000d98080003e00900020
:10240400cf80de0098f907001ac0b3000001be00b7
:102414000800be0054f907000000e0000100350088
:102424000045eb000a04e0000300320030c0b300b2
:10243400004f7800020037000040eb00004f7800a6
:102444001e4078000004e00003003a0020c0b300fe
:102454000bf0b700230037001e407800e64f500011
:1024640003003a0040c1b3000bf0b7001d00370071
:102474001e407800e24f500003003a0040c0b30011
:102484000bf0b700170037001e407800e54f5000ee
:1024940003003a00e0c0b3000bf0b70011003700ae
:1024a4001e407800e14f500003003a0060c0b300c2
:1024b4000bf0b7000b0037001e407800e44f5000cb
:1024c40003003a00c0c0b3000bf0b70005003700aa
:1024d4001e407800e34f500002003a0080c0b30071
:1024e4000bf0b7000bd0bf008080fb000ad0bf0008
:1024f4000080fb000000e900808f500002003200e1
:102504000bd0bf000af0b7004f0578004f04be009f
:102514000080fa00000006000000fa0013e1a900a0
:1025240011e1a9001061a8001021a9008108800010
:10253400f0fc2f0000806000800888000a21ef0072
:102544000621ef00202620007008880000a0250046
:10255400600888002142800080ff2f000080600016
:102564000000a000204288000108a9002108a8005a
:1025740011e1a8000080fa00000006000000fa0043
:1025840005e1a9000421a90000002000812c2400f9
:10259400050007000068a9002068a80005e1a8005c
:1025a4000080fa00000006000400fa00881f78008a
:1025b400008fbe0021088000f0fc2f000080600026
:1025c400200888001e0178009e0190000068290000
:1025d40081c12400a2f8070018c0b30002f02f0044
:1025e400f3772400e2f807000000e00001003c005b
:1025f4000044eb000804e00054003200210880008d
:10260400f0fc2f00008060000040a000200888003b
:102614001e0178009e0190000068290081c12400f9
:102624008ff8070002002000031024008cf8070034
:1026340018c0b30002f02f00f3772400ccf8070091
:102644000000e00001003c000044eb000804e0004e
:102654003200320021088000f0fc2f00008060006e
:102664000050a000200888001e0178009e01900000
:102674000068290081c1240079f8070002002000c5
:102684000328240076f8070018c0b30002f02f00d6
:10269400f3772400b6f807000000e00001003c00d6
:1026a4000044eb000804e000100032002108800020
:1026b4000003200001007000200888001e0178003b
:1026c4009e0190000068290081c1240064f807007d
:1026d400020020000338240061f80700a6f8070070
:1026e4000000780010088800200037001e017800e0
:1026f4009e0190000068290081c1240058f8070059
:10270400020020000328240055f807009af8070067
:102714000000780010088800140037001e017800bb
:102724009e0190000068290081c124004cf8070034
:10273400020020000310240049f807008ef8070067
:102744000000780010088800080037001e01780097
:102754009e0190000068290081c1240040f8070010
:1027640085f8070000007800100888004f047800fe
:102774000080fa00000006000000fa001fe1a90032
:102784001e21a90000002000a14724000500070025
:102794000368a9002368a8001fe1a8000080fa00cc
:1027a400000006000400fa00881f7800008fbe00b5
:1027b400f1088000f0fc2f0000806000f008880021
:1027c4001e0178009e0190000068290081c1240048
:1027d40023f8070018c0b30002f02f00f377240099
:1027e40063f807000000e00001003c000044eb0037
:1027f4000804e00054003200f1088000f0fc2f00cf
:10280400008060000040a000f00888001e017800ed
:102814009e0190000068290081c1240010f807007f
:1028240002002000031024000df8070018c0b300b4
:1028340002f02f00f37724004df807000000e000b9
:1028440001003c000044eb000804e00032003200c8
:10285400f1088000f0fc2f00008060000050a00010
:10286400f00888001e0178009e019000006829008d
:1028740081c12400faf70700020020000328240085
:10288400f7f7070018c0b30002f02f00f377240015
:1028940037f807000000e00001003c000044eb00b2
:1028a4000804e00010003200f1088000000320005a
:1028b40001007000f00888001e0178009e0190005d
:1028c4000068290081c12400e5f707000200200008
:1028d40003382400e2f7070027f807000000780017
:1028e400d0088800200037001e0178009e01900067
:1028f4000068290081c12400d9f7070002002000e4
:1029040003282400d6f707001bf80700000078000e
:10291400d0088800140037001e0178009e01900042
:102924000068290081c12400cdf7070002002000bf
:1029340003102400caf707000ff80700000078000e
:10294400d0088800080037001e0178009e0190001e
:102954000068290081c12400c1f7070006f80700b8
:1029640000007800d00888004f0478000080fa0046
:10297400000006000000fa001160800080ff2f00b4
:10298400008060001060880000fa20002060880049
:1029940023aca800238ca80011618000f03f2f0015
:1029a4000080600000a0a0001061880030002000ba
:1029b40020618800c3aca800c38ca8001166800005
:1029c400f03f2f000080600000a0a0001066880087
:1029d400300020002066880001eca8000080fa0086
:1029e400000006000000fa00889fbe008481800079
:1029f40095818000608180007181800018c0b300df
:102a04000001be000400be00d7f707000000e0008c
:102a1400010035000044eb000804e0000d00320022
:102a240068818000798180008481800095818000a4
:102a340030808000418080000001be000400be00a0
:102a44002af707000801be00c7000700808188003c
:102a5400918188008481800095818000608180005c
:102a64007181800018c0b3000001be000400be00e4
:102a7400bff707000000e00001003c000044eb0049
:102a84000804e0000d003200688180007981800034
:102a940084818000958180003080800041808000a6
:102aa4000001be000400be000ff707000801be00cd
:102ab40095000700808188009181880080818000d2
:102ac4009181800018c0b3006011b800a8f7070016
:102ad4000000e00001003c000044eb000804e000ba
:102ae40004003200c3cca90024eea800c3eca80063
:102af40003003700c3eca90024cea800c3cca8006f
:102b0400808180009181800069000700020020001c
:102b1400032224002cf80700b8f70700000078000f
:102b240030668800448180005581800020818000c7
:102b34003181800018c0b3000001be000400be0053
:102b440089f707000000e000010035000044eb00b5
:102b54000804e0000d0032002881800039818000e3
:102b64004481800055818000308080004180800055
:102b74000001be000400be00dcf607000801be0030
:102b840079000700408188005181880044818000d9
:102b940055818000208180003181800018c0b300fd
:102ba4000001be000400be0071f707000000e00051
:102bb40001003c000044eb000804e0000d0032007a
:102bc4002881800039818000448180005581800003
:102bd40030808000418080000001be000400be00ff
:102be400c1f607000801be004700070040818800c5
:102bf40051818800408180005181800018c0b30059
:102c04006011b8005af707000000e00001003c0022
:102c14000044eb000804e0000400320023cca900c7
:102c240015eea80023eca8000300370023eca9004c
:102c340015cea80023cca8004081800051818000db
:102c44001b0007000200200003222400def7070017
:102c54006af7070000007800306188004f04be0066
:102c64000080fa00000006000600fa00008fbe0093
:102c7400424798004e4090000004e00005003a00ee
:102c84001e0178009e019000228188003381880013
:102c9400050037001e0078009e00900001f0a2009d
:102ca40060818800718188000080fa0000000600bd
:102cb4000400fa00881f7800008fbe0018c0b3001b
:102cc4006011b8001e0078009e00900028f70700ed
:102cd4000000e00001003d000044eb000804e000b7
:102ce400030032001e0078009e00900003003700ad
:102cf4001e0078009e00900001f0a2004f047800ae
:102d04000080fa00000006000800fa00881f78001e
:102d1400008fbe00220798003307980018c0b30044
:102d24002e019000be0190001e0078009e009000cd
:102d34000ff707000000e00001003c000044eb0036
:102d44000804e000030032001e0078009e0090009a
:102d5400020037002e009000be0090004f0478005f
:102d64000080fa00000006000800fa00881f7800be
:102d7400008fbe00220798003307980018c0b300e4
:102d84002e019000be0190001e0078009e0090006d
:102d9400f5f607000000e000010035000044eb00f8
:102da4000804e000030032001e0078009e0090003a
:102db400020037002e009000be0090004f047800ff
:102dc4000080fa00000006000c00fa00881f78005a
:102dd400008fbe002207980033079800440798002c
:102de4005507980018c0b3004e019000de01900012
:102df4001e0078009e009000ddf607000000e00051
:102e040001003c000044eb000804e0000400320030
:102e14004e019000de019000028fbe000e003700cc
:102e240018c0b3002e019000be0190001e0078006f
:102e34009e009000ccf607000000e0000100350081
:102e44000044eb000804e000030032002e0190006f
:102e5400be019000028fbe001e0078009e0090000c
:102e64004f0478000080fa00000006000400fa0015
:102e7400008fbe00b2fd2000930424001e007800e1
:102e84009e00900076f607000200200043332400e1
:102e94004df707000080fa00000006000400fa0065
:102ea400008fbe00b2fd2000930424001e007800b1
:102eb4009e00900044f707000200200043332400e2
:102ec40067f607000080fa00000006000000fa0020
:102ed40021e3a9002143a80001198000f0cf2f00ad
:102ee40000806000001988002043a90001198000b7
:102ef400000e2000010070000019880011198000e4
:102f0400f0ff210000806000101988002343a8000e
:102f140011198000f0cf2f00008060001019880084
:102f24001119800030f82f00008060000040a000dc
:102f3400101988002203a9002223a90025e3a9006f
:102f4400f0c0b30024e3b70021198000f00f2e0075
:102f54008080600000f020000100700020198800cb
:102f64003303a9002e0ea8002f6ea8006f2ea80010
:102f74001e2ea8004feea8003063a80030c3a8009e
:102f84003163a80031e3a8002e03a8004119800092
:102f940000fc2f00008060004019880028e3a9008d
:102fa40001a8a90021a8a80021e3a8000080fa0034
:102fb400000006000000fa002023a8000080fa00a8
:102fc400000006000000fa00400321000080fa001f
:102fd400000006000000fa000dd0bf000080fa00d7
:102fe400000006000000fa000d70ef000080fa00f7
:102ff400000006000000fa00f0032000303a8800c8
:10300400213a8000f0f32f0000806000203a88000d
:10301400213a800000fe2f00008060000000a00024
:10302400203a88001200200080072000a109200017
:1030340033742000804978008149780082497800ff
:10304400103a8000000178000200a0006004200013
:10305400710520002374200080497800814978009c
:103064008249780000000000113a80000000270027
:103074008080600000002100808f5000faff3a0039
:1030840000000000113a800000022000008060006f
:103094000000e000fbff32000080fa0000000600a0
:1030a4000000fa000e2eef001e2eef002e2eef0071
:1030b4003e2eef004e2eef005e2eef006e2eef0040
:1030c400214ea90060cea90060eea900016ea800ff
:1030d40011cea90011eea90020cea90020eea9006e
:1030e400200ea800216ea800612ea800102ea800b2
:0c30f40041cea8000080fa000000060099
:020000040000fa
:103100000a10000002000000800000000010000013
:1031100006000000800000000e10000026000000e5
:103120008000000006100000040000008200000083
:103130000000200041000000341000000a000000e0
:10314000800000000c100000020000008000000061
:04315000000000007b
:020000040000fa
:02000004000af0
:04afe000cfff00009f
:020000040000fa
:02000004000af0
:04afe400ffff00006b
:020000040000fa
:02000004000af0
:04afe8007fff0000e7
:020000040000fa
:02000004000af0
:04afec005fff000003
:020000040000fa
:02000004000af0
:04aff00038ff000026
:020000040000fa
:02000004000af0
:04aff400ffff00005b
:00000001FF
