:020000040000fa
:080000000002040000000000f2
:020000040000fa
:04000800a20300004f
:020000040000fa
:04000c00a20300004b
:020000040000fa
:04001000a203000047
:020000040000fa
:04001400a203000043
:020000040000fa
:04001800a20300003f
:020000040000fa
:04001c00a20300003b
:020000040000fa
:04002000a203000037
:020000040000fa
:04002400a203000033
:020000040000fa
:04002800a20300002f
:020000040000fa
:04002c00a20300002b
:020000040000fa
:04003000a203000027
:020000040000fa
:0400340002030000c3
:020000040000fa
:04003800a20300001f
:020000040000fa
:04003c00a20300001b
:020000040000fa
:04004000a203000017
:020000040000fa
:04004400a203000013
:020000040000fa
:04004800fa020000b8
:020000040000fa
:04004c00a20300000b
:020000040000fa
:04005000a203000007
:020000040000fa
:040054007003000035
:020000040000fa
:04005800a2030000ff
:020000040000fa
:04005c004c03000051
:020000040000fa
:04006000a2030000f7
:020000040000fa
:04006400a2030000f3
:020000040000fa
:04006800a2030000ef
:020000040000fa
:04006c00a2030000eb
:020000040000fa
:04007000a2030000e7
:020000040000fa
:04007400a2030000e3
:020000040000fa
:04007800a2030000df
:020000040000fa
:04007c00a2030000db
:020000040000fa
:04008000a2030000d7
:020000040000fa
:04008400a2030000d3
:020000040000fa
:04008800a2030000cf
:020000040000fa
:04008c00a2030000cb
:020000040000fa
:04009000a2030000c7
:020000040000fa
:040094002203000043
:020000040000fa
:04009800a2030000bf
:020000040000fa
:04009c00a2030000bb
:020000040000fa
:0400a000a2030000b7
:020000040000fa
:0400a400a2030000b3
:020000040000fa
:0400a800a2030000af
:020000040000fa
:0400ac00a2030000ab
:020000040000fa
:0400b000a2030000a7
:020000040000fa
:0400b400a2030000a3
:020000040000fa
:0400b800a20300009f
:020000040000fa
:0400bc00a20300009b
:020000040000fa
:0400c000a203000097
:020000040000fa
:0400c400a203000093
:020000040000fa
:0400c800a20300008f
:020000040000fa
:0400cc00a20300008b
:020000040000fa
:0400d000a203000087
:020000040000fa
:0400d400a203000083
:020000040000fa
:0400d800a20300007f
:020000040000fa
:0400dc00a20300007b
:020000040000fa
:0400e000a203000077
:020000040000fa
:0400e400a203000073
:020000040000fa
:0400e800a20300006f
:020000040000fa
:0400ec00a20300006b
:020000040000fa
:0400f000a203000067
:020000040000fa
:0400f400a203000063
:020000040000fa
:0400f800a20300005f
:020000040000fa
:0400fc00a20300005b
:020000040000fa
:04010000a203000056
:020000040000fa
:04010400a203000052
:020000040000fa
:04010800a20300004e
:020000040000fa
:04010c00a20300004a
:020000040000fa
:04011000a203000046
:020000040000fa
:04011400a203000042
:020000040000fa
:04011800a20300003e
:020000040000fa
:04011c00a20300003a
:020000040000fa
:04012000a203000036
:020000040000fa
:04012400a203000032
:020000040000fa
:04012800a20300002e
:020000040000fa
:04012c00a20300002a
:020000040000fa
:04013000a203000026
:020000040000fa
:04013400a203000022
:020000040000fa
:04013800a20300001e
:020000040000fa
:04013c00a20300001a
:020000040000fa
:04014000a203000016
:020000040000fa
:04014400a203000012
:020000040000fa
:04014800a20300000e
:020000040000fa
:04014c00a20300000a
:020000040000fa
:04015000a203000006
:020000040000fa
:04015400a203000002
:020000040000fa
:04015800a2030000fe
:020000040000fa
:04015c00a2030000fa
:020000040000fa
:04016000a2030000f6
:020000040000fa
:04016400a2030000f2
:020000040000fa
:04016800a2030000ee
:020000040000fa
:04016c00a2030000ea
:020000040000fa
:04017000a2030000e6
:020000040000fa
:04017400a2030000e2
:020000040000fa
:04017800a2030000de
:020000040000fa
:04017c00a2030000da
:020000040000fa
:04018000a2030000d6
:020000040000fa
:04018400a2030000d2
:020000040000fa
:04018800a2030000ce
:020000040000fa
:04018c00a2030000ca
:020000040000fa
:04019000a2030000c6
:020000040000fa
:04019400a2030000c2
:020000040000fa
:04019800a2030000be
:020000040000fa
:04019c00a2030000ba
:020000040000fa
:0401a000a2030000b6
:020000040000fa
:0401a400a2030000b2
:020000040000fa
:0401a800a2030000ae
:020000040000fa
:0401ac00a2030000aa
:020000040000fa
:0401b000a2030000a6
:020000040000fa
:0401b400a2030000a2
:020000040000fa
:0401b800a20300009e
:020000040000fa
:0401bc00a20300009a
:020000040000fa
:0401c000a203000096
:020000040000fa
:0401c400a203000092
:020000040000fa
:0401c800a20300008e
:020000040000fa
:0401cc00a20300008a
:020000040000fa
:0401d000a203000086
:020000040000fa
:0401d400a203000082
:020000040000fa
:0401d800a20300007e
:020000040000fa
:0401dc00a20300007a
:020000040000fa
:0401e000a203000076
:020000040000fa
:0401e400a203000072
:020000040000fa
:0401e800a20300006e
:020000040000fa
:0401ec00a20300006a
:020000040000fa
:0401f000a203000066
:020000040000fa
:0401f400a203000062
:020000040000fa
:0401f800a20300005e
:020000040000fa
:0401fc00a20300005a
:020000040000fa
:04020000a203000055
:020000040000fa
:04020400a203000051
:020000040000fa
:04020800a20300004d
:020000040000fa
:04020c00a203000049
:020000040000fa
:04021000a203000045
:020000040000fa
:04021400a203000041
:020000040000fa
:04021800a20300003d
:020000040000fa
:04021c00a203000039
:020000040000fa
:04022000a203000035
:020000040000fa
:04022400a203000031
:020000040000fa
:04022800a20300002d
:020000040000fa
:04022c00a203000029
:020000040000fa
:04023000a203000025
:020000040000fa
:04023400a203000021
:020000040000fa
:04023800a20300001d
:020000040000fa
:04023c00a203000019
:020000040000fa
:04024000a203000015
:020000040000fa
:04024400a203000011
:020000040000fa
:04024800a20300000d
:020000040000fa
:04024c00a203000009
:020000040000fa
:04025000a203000005
:020000040000fa
:04025400a203000001
:020000040000fa
:04025800a2030000fd
:020000040000fa
:04025c00a2030000f9
:020000040000fa
:04026000a2030000f5
:020000040000fa
:04026400a2030000f1
:020000040000fa
:04026800a2030000ed
:020000040000fa
:04026c00a2030000e9
:020000040000fa
:04027000a2030000e5
:020000040000fa
:04027400a2030000e1
:020000040000fa
:04027800a2030000dd
:020000040000fa
:04027c00a2030000d9
:020000040000fa
:04028000a2030000d5
:020000040000fa
:10040000ef0321000eff2c000e0188000000000009
:10041000000020000000e000020032000001200087
:100420002002880014000700c80007000000e00058
:1004300003003a0000932100010020000200370071
:100440000000200001002000810f70000100320038
:100450000f000700000020000000e0000200320052
:10046000000002000000000034070200000000004d
:100470000040da000000fe00200020000000e00044
:1004800002003200100020009001880000000600e9
:10049000a1028800800478000000eb001f003700f4
:1004a000e284440054a0b4009905ba00e2844400f8
:1004b00054a0b4009906ba00e284440054a0b400e9
:1004c0000006eb00476fde00fd07b200ae018800ba
:1004d000636ce10003003a000ad801000000eb0061
:1004e0000e003700606ce10008003a00004deb00a0
:1004f0000a05e800020039003420ec000af0a000f0
:100500008b05e900f9ff3e00040037006168e10057
:10051000010032000086eb000b00070019c7ba008b
:100520000e04e0001905ba0003003a000a00e000da
:10053000dbff3a0000000600fe07b200ae028800b2
:100540008a047800f5ff37000cd0a300e20f4d00bd
:100550001c00390089027800354dba000a05e80010
:10056000020039003420ec000af0a0008b05e900fd
:100570000f003200254dba000a05e80002003900dc
:100580003420ec000af0a0008b05e90008003200de
:100590000c00e0000600320015cdba000a05e800a4
:1005a000020039003420ec000af0a0008b05e900bd
:1005b0008984e80054a0b4000b00e000e2ff3a0098
:1005c000000006009902ba00055d78008b05e9007d
:1005d000f7ff3200c82ade00055d78008b05e900d0
:1005e000f3ff32000c00e000f1ff320019ddba0029
:1005f000eeff37000000fa000108a9000080fa00b1
:10060000004006003600f800809fbe00829fbe00ba
:10061000849fbe00869fbe000000fa000068a9000b
:100620007f0a07000a0907000080fa004f03be0096
:100630004f02be004f01be004f00be003600f90061
:10064000004006003600f800809fbe00829fbe007a
:10065000849fbe00869fbe000000fa000368a900c8
:10066000108080002180800061004000e080480010
:100670001080880021808800930207000080fa0023
:100680004f03be004f02be004f01be004f00be0030
:100690003600f90000400600801f78000000fa00d4
:1006a00001a8a90000188000a0818800101880000f
:1006b000b081880020188000c08188003018800038
:1006c000d081880040188000e081880010c0b3000d
:1006d0000df0b7000080fa004f00780000400600df
:1006e000801f78000000fa000168a9001011800046
:1006f000640060000000e000010032002242a90016
:1007000010118000620060000000e000050032006f
:100710002222a90004003700301180002011880037
:10072000010037000000000010118000610060002f
:100730000000e000f8ff3a000080fa004f00780067
:10074000004006000040da000000fe000000050046
:1007500003f0a200889fbe008a9fbe008c1f780015
:100760001b010700220133006450e1004f003200fa
:100770006420e1005200320003826c0007003b005d
:100780000905d0000306d000820f54000c065d005e
:100790000200390002003200890178000306780067
:1007a0008582550004003d000003fd008103fd002b
:1007b0008502ea008b854200840f720002003b0034
:1007c00060001000e08018006011b8000005eb0028
:1007d0007a28e1000a00390006007800c75ddd00d4
:1007e000f707b200878075002d0037008281710005
:1007f0000a017800610560008180d1000080d3008b
:100800008502e900f9ff3b000604400087844800a8
:1008100002003b0060041400e0841c000988a3006f
:10082000070032008a8171008281710061016400d9
:100830008904d1000884d3008b05e8001700370035
:100840000978a30013003a000b00e0001300340005
:100850008b05e9000804440089844c000a447400b4
:100860000978a3000d003a000b00e00007003400f7
:100870008b05e9000804440089844c0001003a001b
:100880000b0020000978a300f7ff32000001eb0005
:1008900002003700828171000a0178009100070090
:1008a0000cf0a70001f0a000da0037006420e1009e
:1008b00002003a00838f6c00da0033000801be00aa
:1008c0000200be00d3003700889fbe008a9fbe0092
:1008d0008c1f7800be000700c500330003866c0043
:1008e0006450e1002e0032006420e1003300320049
:1008f0006150e1002f0032006120e1003100320040
:1009000085855500eb07b000090020000804200091
:10091000050037000804440089844c000a003100b7
:100920000603430087834b000001530081815b0075
:10093000f8ff33000203be000800a00008044400d2
:1009400089844c00f6ff3900c639dd00830173004d
:1009500001003200130020008904d1000884d30074
:100960000998a300050032000800a7000300a000ba
:100970008904d1000884d3008b05e8008904d100e4
:100980000884d3000001eb000281d200550007006b
:1009900001f0a1000cf0a70001f0a0009d003700bd
:1009a0006420e1009f0032000801be000200be008a
:1009b000f7ff37006120e1009a0032006000b800c4
:1009c000f3ff37000000200001f82700f0ff370098
:1009d00014002000ca003700f4ff2f00c8003700c1
:1009e0000001be00650007000470a70003f0a1002d
:1009f0006509b100160032000d0035006828e100dd
:100a000006003500f0ff2f00f1ff27000300e00093
:100a100013003b000100280000000500000040001a
:100a2000818048008502e900fcff3a000800370099
:100a3000f88f420002003c008000eb00000005003f
:100a40008100d1000080d3008502e800fcff3a005d
:100a50000300e00002003b0060001000e08018008e
:100a6000000006000001be00440007000470a7005b
:100a700003f0a10003f8a30013003a006509b100d8
:100a800010003200090035006928e100020035003d
:100a9000010028000000050000004000818048009f
:100aa0008502e900fcff3a0000000600f88f4200d2
:100ab000050035008100d1000080d3008502e800e8
:100ac000fcff3a00000006008000eb00000005007b
:100ad0004f89de0082017800a40037006011b80061
:100ae000b200370081002000618055000b003d00fe
:100af0000b00200061fe2f000100e1001d0034000a
:100b000082817100610164008904d1000884d300ee
:100b10000000e800faff3a00710020006100640064
:100b2000030070000200600009003200610444000c
:100b3000e0844c000988a500050032008b05e80020
:100b40006808e10002003a008904d1000884d3005b
:100b5000f20f20000258e10005003d00c75ddd00f6
:100b6000f907b200898075000800780000000600cf
:100b70000bf827008b00780000000500c70ade0094
:100b8000f107b200f50fb20008003200e1cf4200d9
:100b9000020032000170a00024000500810f7000e7
:100ba000010032000408050044000500810f7000b8
:100bb00002003a00140005008502e9000000400030
:100bc00081c04800fcff3b000170a000240005002c
:100bd0000004be00e9ff07000003be000405be00dc
:100be0000200be00e5ff0700844f7500000006000c
:100bf0000200be006450e100050036006420e10000
:100c0000020036000968a30001003a000800be0097
:100c10000160a0004f0678004f05be004f04be00e3
:100c200000000600f0ff2f00f1ff2700f9ff37005a
:100c3000889fbe008a9fbe008c1f7800e4ff0700db
:100c4000ebff330003866c006450e10024003200a7
:100c50006420e100270032006150e10022003200f0
:100c60006120e100210032008b854200eb07b100da
:100c70000134b800003ab8000804420089844a00f0
:100c8000013ab8000030b8008880400009014a00ed
:100c90000400330000004000818048000201490048
:100ca0008b05e900c909dd008301700001003200f5
:100cb00013002000c814de004814dd004709de00e0
:100cc0001200b200c808de000884700085ff07002b
:100cd00001f0a1000cf0a70001f0a000cdff37004b
:100ce0006120e100cfff32000801be000200be001b
:100cf000f7ff37006150e100fcff3a00c9ff370001
:100d0000889fbe008a9fbe00841f7800b0ff070046
:100d10004f00780011003300f0ff2f00838f6c002c
:100d200006003b00040565000a00a7000800370024
:100d300009f0a6001000200008003700820f5400c0
:100d4000838f5c00030039001000200001003e008a
:100d50000000200009f0a7000000ea004f05be00d7
:100d60004f04be000000e00000000600881f78006d
:100d7000030478000300e00007003d00600010005d
:100d8000e080180060011900e081190002003b00ba
:100d900001f02d00030037000400070008f0a70051
:100da00001f0a0004f04780000000600889fbe00fc
:100db0008a9fbe00008270000402710004827100ec
:100dc000260032000004be000200be006011b80020
:100dd0006b092000950220000182cf000a00390033
:100de0000541b1000082cf00070039000541b10084
:100df0000982cf00040039000541b1000882cf000c
:100e0000010039000541b1000542520012003200d4
:100e10000a003b0082817100610164008100d10001
:100e20000080d3008984d3000884d3008b05e800b8
:100e30000442e800f7ff3a000700370008044400c6
:100e400089844c0000004800818048008b05e9003f
:100e50000442e900f9ff3a0022ff07004f05be00f7
:080e60004f04be000000060073
:020000040000fa
:100e68000600fa00b00807006000b800408188005a
:100e7800518188006000b8008081880091818800d5
:100e8800d4080700d4060700bc050700d4050700ee
:100e980052060700260807006f0807000100370000
:100ea8000000000064080700e14f5000fcff3a0012
:100eb800650807005c080700000f78001e0078002e
:100ec800100078008000eb0002ff07003233230097
:100ed8003305240054ff07000200200003582400b3
:100ee80077fe0700d2cc2c00c30424004eff070075
:100ef80010079800210798001e019000ae0190008d
:100f080000002000812024006dfe07000200200060
:100f1800030a24000cfe0700808088009180880066
:100f28001e80e800100078008000eb00e9fe070052
:100f380032332300330524003bff07000200200062
:100f4800035824005efe0700d2cc2c00c304240002
:100f580035ff070010079800210798001e01900030
:100f6800ae019000000020008120240054fe0700fc
:100f780002002000030a2400f3fd0700a080880077
:100f8800b18088009e0078006480400010007800de
:100f98008000eb00cffe0700323323003305240026
:100fa80021ff0700020020000358240044fe070028
:100fb800d2cc2c00c30424001bff070010079800a4
:100fc800210798001e019000ae019000000020004b
:100fd800812024003afe070002002000030a2400b2
:100fe800d9fd0700c0808800d18088009e00780065
:100ff80068804000100078008000eb00b5fe070014
:10100800323323003305240007ff070002002000c5
:10101800035824002afe0700d2cc2c00c304240065
:1010280001ff070010079800210798001e01900093
:10103800ae019000000020008120240020fe07005f
:1010480002002000030a2400bffd0700e08088009a
:10105800f18088009e0078006680400010007800cb
:101068008000eb009bfe0700323323003305240089
:10107800edfe0700020020000358240010fe0700c0
:10108800d2cc2c00c3042400e7fe07001007980008
:10109800210798001e019000ae019000000020007a
:1010a8008120240006fe070002002000030a240015
:1010b800a5fd0700008188001181880079ff3700ad
:1010c8000000fa001170800000802000008060009d
:1010d8000000e000ac0032000ad0bf000080fb0036
:1010e800cf80de005201200003002000820f500054
:1010f800838f5800a2003e0000060100150037004b
:101108001e00370027003700330037004300370040
:101118004e0037004f0037005a003700790037007b
:1011280085003700860037009200370057003700e7
:101138006300370064003700700037009000370004
:101148008f0037008e0037008d00370024003700ed
:10115800300037000230ef000430ef0012c0b30057
:101168006000b800d90607000041eb006000b80035
:10117800d606070010c0b3000af0b700128080003e
:1011880023808000803e200001002000800f510055
:10119800818f59008700360020c0b3000af0b700dd
:1011a8008500370012c0b30000002000011f240092
:1011b800c60607000041eb0000002000011f2400c4
:1011c800c206070030c0b3000af0b70064cea90019
:1011d80064eea90078003700790007007600370030
:1011e80012c0b3000000200001222400b706070047
:1011f8000041eb000000200001222400b306070094
:1012080050c1b3000af0b70064cea90064eea8008c
:10121800690037006a0007006700370012c0b30092
:1012280000002000011a2400a80607000041eb0076
:101238006000b800a506070050c0b3000af0b70068
:1012480064cea90064eea9005b0037005c000700cb
:101258005900370012c0b3006000b8009b060700b1
:101268000041eb0000002000011a24009706070047
:1012780064cea90064eea90070c0b3000af0b700fc
:101288004d0037004e0007004b00370012c0b30076
:101298000000200001122c008c0607000041eb0022
:1012a80000002000011a240088060700d0c0b300ff
:1012b8000af0b70064cea90064eea9003e0037002a
:1012c8003f0007003c00370012c0b30000002000b8
:1012d800011a24007d0607000041eb0000002000f1
:1012e80001122c007906070064cea90064eea9005b
:1012f800d0c0b3000af0b7002f0037003000070055
:101308002d00370012c0b30000002000011a24008d
:101318006e0607000041eb0000002000011a2c00b7
:101328006a06070090c0b3000af0b70064cea900af
:1013380064eea90020003700210007001e003700d6
:1013480012c0b30000002000011a2c005f0607003d
:101358000041eb0000002000011a24005b06070092
:10136800b0c0b3000af0b70064cea90064eea900cb
:101378001100370012000700000000000e003700bf
:101388000a70ef000c0037000230ef000430ef0065
:1013980012c0b3006000b8004c0607000041eb0023
:1013a8006000b8004906070020c0b3000af0b70083
:1013b80001003700000000000080fa00000006006d
:1013c8000c00fa00889fbe008a1f78000040eb00de
:1013d800004f7800600120001007980000022000ec
:1013e80020079800500220003007980000022000d3
:1013f800400798006001200050079800088180008d
:10140800198180001e009000cf80de00aefd07002d
:101418001ac0b3000001be000800be006cfd070042
:101428000000e00001003c000045eb000a04e00079
:101438003b003200e8808000f98080002e00900098
:10144800cf80de00a0fd07001ac0b3000001be0077
:101458000800be005efd07000000e00001003c003f
:101468000045eb000a04e0002d003200c88080002f
:10147800d98080003e009000cf80de0092fd0700fa
:101488001ac0b3000001be000800be004efd0700f0
:101498000000e000010035000045eb000a04e00010
:1014a8001f003200a8808000b98080004e009000a4
:1014b800cf80de0084fd07001ac0b3000001be0023
:1014c8000800be0042fd07000000e00001003c00eb
:1014d8000045eb000a04e00011003200888080001b
:1014e800998080005e009000cf80de0076fd0700c6
:1014f8001ac0b3000001be000800be0034fd07009a
:101508000000e00001003c000045eb000a04e00098
:101518000300320030c0b300004f7800e103370009
:10152800e0808000f180800018c0b3000200200035
:101538000317240024fd07000000e0000100350027
:101548000044eb000804e0000e003200a080800098
:10155800b180800018c0b3000200200003172400e7
:1015680019fd07000000e000010035000044eb0011
:101578000804e0000300320030c0b300004f7800d8
:10158800c803370008818000198180001e00900080
:10159800cf80de004cfd07001ac0b3000001be007a
:1015a8000800be000afd07000000e00001003c0042
:1015b8000045eb000a04e0003b003200e8808000b0
:1015c800f98080002e009000cf80de003efd0700ed
:1015d8001ac0b3000001be000800be00fcfc0700f2
:1015e8000000e00001003c000045eb000a04e000b8
:1015f8002d003200c8808000d98080003e00900015
:10160800cf80de0030fd07001ac0b3000001be0025
:101618000800be00eefc07000000e00001003c00ee
:101628000045eb000a04e0001f003200a88080009b
:10163800b98080004e009000cf80de0022fd0700b8
:101648001ac0b3000001be000800be00e0fc07009d
:101658000000e00001003c000045eb000a04e00047
:101668001100320088808000998080005e00900020
:10167800cf80de0014fd07001ac0b3000001be00d1
:101688000800be00d2fc07000000e00001003c009a
:101698000045eb000a04e0000300320060c0b3001c
:1016a800004f78007f03370008818000198180008f
:1016b8001e009000cf80de0003fd07001ac0b300b3
:1016c8000001be000800be00c1fc07000000e000e9
:1016d80001003c000045eb000a04e0003b0032003a
:1016e800e8808000f98080002e009000cf80de0026
:1016f800f5fc07001ac0b3000001be000800be00d8
:10170800b3fc07000000e00001003c000045eb00ce
:101718000a04e0002d003200c8808000d9808000d3
:101728003e009000cf80de00e7fc07001ac0b3003f
:101738000001be000800be00a5fc07000000e00094
:1017480001003c000045eb000a04e0001f003200e5
:10175800a8808000b98080004e009000cf80de0015
:10176800d9fc07001ac0b3000001be000800be0083
:1017780097fc07000000e00001003c000045eb007a
:101788000a04e000110032008880800099808000ff
:101798005e009000cf80de00cbfc07001ac0b300cb
:1017a8000001be000800be0087fc07000000e00042
:1017b800010035000045eb000a04e0000300320098
:1017c80050c0b300004f780036033700088180000e
:1017d800198180001e009000cf80de00bafc07004f
:1017e8001ac0b3000001be000800be0078fc070064
:1017f8000000e00001003c000045eb000a04e000a6
:101808003b003200e8808000f98080002e009000c4
:10181800cf80de00acfc07001ac0b3000001be0098
:101828000800be006afc07000000e00001003c0060
:101838000045eb000a04e0002d003200c88080005b
:10184800d98080003e009000cf80de009efc07001b
:101858001ac0b3000001be000800be005cfc07000f
:101868000000e00001003c000045eb000a04e00035
:101878001f003200a8808000b98080004e009000d0
:10188800cf80de0090fc07001ac0b3000001be0044
:101898000800be004cfc07000000e0000100350015
:1018a8000045eb000a04e000110032008880800047
:1018b800998080005e009000cf80de0082fc0700e7
:1018c8001ac0b3000001be000800be003efc0700bd
:1018d8000000e000010035000045eb000a04e000cc
:1018e8000300320020c0b300004f7800ed0237003b
:1018f80008818000198180001e009000cf80de00e2
:1019080071fc07001ac0b3000001be000800be0049
:101918002ffc07000000e00001003c000045eb0040
:101928000a04e0003b003200e8808000f980800073
:101938002e009000cf80de0063fc07001ac0b300c1
:101948000001be000800be0021fc07000000e00006
:1019580001003c000045eb000a04e0002d003200c5
:10196800c8808000d98080003e009000cf80de00d3
:1019780055fc07001ac0b3000001be000800be00f5
:1019880013fc07000000e00001003c000045eb00ec
:101998000a04e0001f003200a8808000b98080009f
:1019a8004e009000cf80de0047fc07001ac0b3004d
:1019b8000001be000800be0003fc07000000e000b4
:1019c800010035000045eb000a04e0001100320078
:1019d80088808000998080005e009000cf80de00c3
:1019e80039fc07001ac0b3000001be000800be00a1
:1019f800f7fb07000000e00001003c000045eb0099
:101a08000a04e0000300320020c0b300004f780051
:101a1800a402370008818000198180001e00900010
:101a2800cf80de0028fc07001ac0b3000001be000a
:101a38000800be00e4fb07000000e00001003500dc
:101a48000045eb000a04e0003b003200e88080001b
:101a5800f98080002e009000cf80de001afc07007d
:101a68001ac0b3000001be000800be00d8fb070082
:101a78000000e00001003c000045eb000a04e00023
:101a88002d003200c8808000d98080003e00900080
:101a9800cf80de000cfc07001ac0b3000001be00b6
:101aa8000800be00cafb07000000e00001003c007f
:101ab8000045eb000a04e0001f003200a880800007
:101ac800b98080004e009000cf80de00fefb07004a
:101ad8001ac0b3000001be000800be00bcfb07002e
:101ae8000000e00001003c000045eb000a04e000b3
:101af8001100320088808000998080005e0090008c
:101b0800cf80de00f0fb07001ac0b3000001be0062
:101b18000800be00aefb07000000e00001003c002a
:101b28000045eb000a04e0000300320040c0b300a7
:101b3800004f78005b02370008818000198180001f
:101b48001e009000cf80de00dffb07001ac0b30044
:101b58000001be000800be009bfb07000000e0007b
:101b6800010035000045eb000a04e0003b003200ac
:101b7800e8808000f98080002e009000cf80de0091
:101b8800d1fb07001ac0b3000001be000800be0068
:101b98008dfb07000000e000010035000045eb0068
:101ba8000a04e0002d003200c8808000d98080003f
:101bb8003e009000cf80de00c3fb07001ac0b300d0
:101bc8000001be000800be0081fb07000000e00025
:101bd80001003c000045eb000a04e0001f00320051
:101be800a8808000b98080004e009000cf80de0081
:101bf800b5fb07001ac0b3000001be000800be0014
:101c080073fb07000000e00001003c000045eb000a
:101c18000a04e0001100320088808000998080006a
:101c28005e009000cf80de00a7fb07001ac0b3005b
:101c38000001be000800be0065fb07000000e000d0
:101c480001003c000045eb000a04e00003003200fc
:101c580010c0b300004f78001202370008818000de
:101c6800198180001e009000cf80de0096fb0700df
:101c78001ac0b3000001be000800be0054fb0700f4
:101c88000000e00001003c000045eb000a04e00011
:101c98003b003200e8808000f98080002e00900030
:101ca800cf80de0088fb07001ac0b3000001be0029
:101cb8000800be0044fb07000000e00001003500fa
:101cc8000045eb000a04e0002d003200c8808000c7
:101cd800d98080003e009000cf80de007afb0700ac
:101ce8001ac0b3000001be000800be0038fb0700a0
:101cf8000000e00001003c000045eb000a04e000a1
:101d08001f003200a8808000b98080004e0090003b
:101d1800cf80de006cfb07001ac0b3000001be00d4
:101d28000800be002afb07000000e00001003c009c
:101d38000045eb000a04e0001100320088808000b2
:101d4800998080005e009000cf80de005efb070077
:101d58001ac0b3000001be000800be001cfb07004b
:101d68000000e00001003c000045eb000a04e00030
:101d78000300320010c0b300004f7800c9013700db
:101d880008818000198180001e009000cf80de004d
:101d98004dfb07001ac0b3000001be000800be00da
:101da8000bfb07000000e00001003c000045eb00d1
:101db8000a04e0003b003200e8808000f9808000df
:101dc8002e009000cf80de003ffb07001ac0b30052
:101dd8000001be000800be00fdfa07000000e00098
:101de80001003c000045eb000a04e0002d00320031
:101df800c8808000d98080003e009000cf80de003f
:101e080031fb07001ac0b3000001be000800be0085
:101e1800edfa07000000e000010035000045eb0086
:101e28000a04e0001f003200a8808000b98080000a
:101e38004e009000cf80de0023fb07001ac0b300dd
:101e48000001be000800be00dffa07000000e00045
:101e5800010035000045eb000a04e00011003200e3
:101e680088808000998080005e009000cf80de002e
:101e780015fb07001ac0b3000001be000800be0031
:101e8800d3fa07000000e00001003c000045eb0029
:101e98000a04e0000300320030c0b300004f7800ad
:101ea8008001370008818000198180001e009000a1
:101eb800cf80de0004fb07001ac0b3000001be009b
:101ec8000800be00c2fa07000000e00001003c0064
:101ed8000045eb000a04e0003b003200e880800087
:101ee800f98080002e009000cf80de00f6fa07000f
:101ef8001ac0b3000001be000800be00b2fa070015
:101f08000000e000010035000045eb000a04e00095
:101f18002d003200c8808000d98080003e009000eb
:101f2800cf80de00e8fa07001ac0b3000001be0047
:101f38000800be00a4fa07000000e0000100350018
:101f48000045eb000a04e0001f003200a880800072
:101f5800b98080004e009000cf80de00dafa0700da
:101f68001ac0b3000001be000800be0098fa0700be
:101f78000000e00001003c000045eb000a04e0001e
:101f88001100320088808000998080005e009000f7
:101f9800cf80de00ccfa07001ac0b3000001be00f3
:101fa8000800be008afa07000000e00001003c00bb
:101fb8000045eb000a04e0000300320030c0b30023
:101fc800004f7800370137000881800019818000b0
:101fd8001e009000cf80de00bbfa07001ac0b300d5
:101fe8000001be000800be0079fa07000000e0000a
:101ff80001003c000045eb000a04e0003b00320011
:10200800e8808000f98080002e009000cf80de00fc
:10201800adfa07001ac0b3000001be000800be00f8
:1020280069fa07000000e000010035000045eb00f8
:102038000a04e0002d003200c8808000d9808000aa
:102048003e009000cf80de009ffa07001ac0b30060
:102058000001be000800be005bfa07000000e000b7
:10206800010035000045eb000a04e0001f003200c3
:10207800a8808000b98080004e009000cf80de00ec
:1020880091fa07001ac0b3000001be000800be00a4
:102098004dfa07000000e000010035000045eb00a4
:1020a8000a04e000110032008880800099808000d6
:1020b8005e009000cf80de0083fa07001ac0b300ec
:1020c8000001be000800be0041fa07000000e00061
:1020d80001003c000045eb000a04e0000300320068
:1020e80030c0b300004f7800ee0037000881800050
:1020f800198180001e009000cf80de0072fa070070
:102108001ac0b3000001be000800be0030fa070084
:102118000000e00001003c000045eb000a04e0007c
:102128003b003200e8808000f98080002e0090009b
:10213800cf80de0064fa07001ac0b3000001be00b9
:102148000800be0022fa07000000e00001003c0081
:102158000045eb000a04e0002d003200c880800032
:10216800d98080003e009000cf80de0056fa07003c
:102178001ac0b3000001be000800be0012fa070032
:102188000000e000010035000045eb000a04e00013
:102198001f003200a8808000b98080004e009000a7
:1021a800cf80de0048fa07001ac0b3000001be0065
:1021b8000800be0004fa07000000e0000100350036
:1021c8000045eb000a04e00011003200888080001e
:1021d800998080005e009000cf80de003afa070008
:1021e8001ac0b3000001be000800be00f6f90700df
:1021f8000000e000010035000045eb000a04e000a3
:102208000300320020c0b300004f7800a50037005b
:1022180008818000198180001e009000cf80de00b8
:1022280029fa07001ac0b3000001be000800be006a
:10223800e5f907000000e000010035000045eb006b
:102248000a04e0003b003200e8808000f98080004a
:102258002e009000cf80de001bfa07001ac0b300e2
:102268000001be000800be00d7f907000000e0002a
:10227800010035000045eb000a04e0002d003200a3
:10228800c8808000d98080003e009000cf80de00aa
:102298000dfa07001ac0b3000001be000800be0016
:1022a800c9f907000000e000010035000045eb0017
:1022b8000a04e0001f003200a8808000b980800076
:1022c8004e009000cf80de00fff907001ac0b3006f
:1022d8000001be000800be00bbf907000000e000d6
:1022e800010035000045eb000a04e000110032004f
:1022f80088808000998080005e009000cf80de009a
:10230800f1f907001ac0b3000001be000800be00c2
:10231800aff907000000e00001003c000045eb00b9
:102328000a04e0000300320010c0b300004f780038
:102338005c00370008818000198180001e00900031
:10234800cf80de00e0f907001ac0b3000001be002c
:102358000800be009cf907000000e00001003500fd
:102368000045eb000a04e0003b003200e8808000f2
:10237800f98080002e009000cf80de00d2f907009f
:102388001ac0b3000001be000800be0090f90700a3
:102398000000e00001003c000045eb000a04e000fa
:1023a8002d003200c8808000d98080003e00900057
:1023b800cf80de00c4f907001ac0b3000001be00d8
:1023c8000800be0082f907000000e00001003c00a0
:1023d8000045eb000a04e0001f003200a8808000de
:1023e800b98080004e009000cf80de00b6f907006b
:1023f8001ac0b3000001be000800be0074f907004f
:102408000000e00001003c000045eb000a04e00089
:102418001100320088808000998080005e00900062
:10242800cf80de00a8f907001ac0b3000001be0083
:102438000800be0064f907000000e0000100350054
:102448000045eb000a04e000030032000040eb0006
:10245800004f780013003700c8808000d9808000c2
:102468003e009000cf80de0097f907001ac0b30045
:102478000001be000800be0053f907000000e0009c
:10248800010035000045eb000a04e00003003200bb
:1024980030c0b300004f7800020037000040eb0066
:1024a800004f78001e4078000004e00003003a0066
:1024b80020c0b3000bf0b700230037001e4078009f
:1024c800e64f500003003a0040c1b3000bf0b700dc
:1024d8001d0037001e407800e24f500003003a000c
:1024e80040c0b3000bf0b700170037001e4078005b
:1024f800e54f500003003a00e0c0b3000bf0b7000e
:10250800110037001e407800e14f500003003a00e8
:1025180060c0b3000bf0b7000b0037001e40780016
:10252800e44f500003003a00c0c0b3000bf0b700fe
:10253800050037001e407800e34f500002003a00c3
:1025480080c0b3000bf0b7000bd0bf008080fb0049
:102558000ad0bf000080fb000000e900808f500017
:10256800020032000bd0bf000af0b7004f05780018
:102578004f04be000080fa00000006000000fa00c8
:1025880013e1a90011e1a9001061a8001021a90018
:1025980081088000f0fc2f0000806000800888001f
:1025a8000a21ef000621ef0020262000700888008d
:1025b80000a02500600888002142800080ff2f00cd
:1025c800008060000000a000204288000108a900e7
:1025d8002108a80011e1a8000080fa000000060008
:1025e8000000fa0005e1a9000421a900000020006c
:1025f800812c2400050007000068a9002068a800b5
:1026080005e1a8000080fa00000006000400fa00b6
:10261800881f7800008fbe0021088000f0fc2f0082
:1026280000806000200888001e0178009e0190004c
:102638000068290081c12400a1f8070018c0b30070
:1026480002f02f00f3772400e1f807000000e00013
:1026580001003c000044eb000804e0005400320094
:1026680021088000f0fc2f00008060000040a000de
:10267800200888001e0178009e019000006829004b
:1026880081c124008ef807000200200003102400f6
:102698008bf8070018c0b30002f02f00f37724006e
:1026a800cbf807000000e00001003c000044eb000c
:1026b8000804e0003200320021088000f0fc2f00fe
:1026c800008060000050a000200888001e017800eb
:1026d8009e0190000068290081c1240078f8070055
:1026e800020020000328240075f8070018c0b30072
:1026f80002f02f00f3772400b5f807000000e0008f
:1027080001003c000044eb000804e0001000320027
:1027180021088000000320000100700020088800c4
:102728001e0178009e0190000068290081c12400e4
:1027380063f80700020020000338240060f807004f
:10274800a5f807000000780010088800200037006e
:102758001e0178009e0190000068290081c12400b4
:1027680057f80700020020000328240054f8070047
:1027780099f8070000007800100888001400370056
:102788001e0178009e0190000068290081c1240084
:102798004bf80700020020000310240048f8070047
:1027a8008df807000000780010088800080037003e
:1027b8001e0178009e0190000068290081c1240054
:1027c8003ff8070084f80700000078001008880028
:1027d8004f0478000080fa00000006000000fa00ac
:1027e8001fe1a9001e21a90000002000a147240024
:1027f800050007000368a9002368a8001fe1a800d6
:102808000080fa00000006000400fa00881f780023
:10281800008fbe00f1088000f0fc2f0000806000ef
:10282800f00888001e0178009e01900000682900c9
:1028380081c1240022f8070018c0b30002f02f005d
:10284800f377240062f807000000e00001003c0074
:102858000044eb000804e00054003200f108800056
:10286800f0fc2f00008060000040a000f008880005
:102878001e0178009e0190000068290081c1240093
:102888000ff8070002002000031024000cf80700ce
:1028980018c0b30002f02f00f37724004cf80700ab
:1028a8000000e00001003c000044eb000804e000e8
:1028b80032003200f1088000f0fc2f000080600038
:1028c8000050a000f00888001e0178009e019000ca
:1028d8000068290081c12400f9f7070002002000e0
:1028e80003282400f6f7070018c0b30002f02f00f1
:1028f800f377240036f807000000e00001003c00f0
:102908000044eb000804e00010003200f1088000e9
:102918000003200001007000f00888001e01780004
:102928009e0190000068290081c12400e4f7070097
:102938000200200003382400e1f7070026f807000a
:1029480000007800d0088800200037001e017800b9
:102958009e0190000068290081c12400d8f7070073
:102968000200200003282400d5f707001af8070002
:1029780000007800d0088800140037001e01780095
:102988009e0190000068290081c12400ccf707004f
:102998000200200003102400c9f707000ef8070002
:1029a80000007800d0088800080037001e01780071
:1029b8009e0190000068290081c12400c0f707002b
:1029c80005f8070000007800d00888004f04780058
:1029d8000080fa00000006000000fa001160800084
:1029e80080ff2f00008060001060880000fa20003f
:1029f8002060880023aca800238ca8001161800007
:102a0800f03f2f000080600000a0a0001061880047
:102a18003000200020618800c3aca800c38ca80047
:102a280011668000f03f2f000080600000a0a00029
:102a380010668800300020002066880001eca8009d
:102a48000080fa00000006000000fa00889fbe001f
:102a58008481800095818000608180007181800080
:102a680018c0b3000001be000400be00d6f707007e
:102a78000000e000010035000044eb000804e0001d
:102a88000d00320068818000798180008481800097
:102a98009581800030808000418080000001be0068
:102aa8000400be0029f707000801be00c7000700a0
:102ab80080818800918188008481800095818000d0
:102ac800608180007181800018c0b3000001be00e1
:102ad8000400be00bef707000000e00001003c0053
:102ae8000044eb000804e0000d003200688180001b
:102af8007981800084818000958180003080800009
:102b0800418080000001be000400be000ef70700ef
:102b18000801be0095000700808188009181880027
:102b2800808180009181800018c0b3006011b800d6
:102b3800a7f707000000e00001003c000044eb009c
:102b48000804e00004003200c3cca90024eea80069
:102b5800c3eca80003003700c3eca90024cea800ea
:102b6800c3cca800808180009181800069000700a3
:102b780002002000032224002bf80700b7f7070003
:102b8800000078003066880044818000558180000c
:102b9800208180003181800018c0b3000001be0090
:102ba8000400be0088f707000000e00001003500bf
:102bb8000044eb000804e0000d003200288180008a
:102bc80039818000448180005581800030808000f8
:102bd800418080000001be000400be00dbf6070053
:102be8000801be00790007004081880051818800f3
:102bf80044818000558180002081800031818000df
:102c080018c0b3000001be000400be0070f7070042
:102c18000000e00001003c000044eb000804e00074
:102c28000d003200288180003981800044818000b5
:102c38005581800030808000418080000001be0006
:102c48000400be00c0f607000801be0047000700e8
:102c58004081880051818800408180005181800036
:102c680018c0b3006011b80059f707000000e00071
:102c780001003c000044eb000804e00004003200be
:102c880023cca90015eea80023eca8000300370008
:102c980023eca90015cea80023cca8004081800011
:102ca800518180001b00070002002000032224003d
:102cb800ddf7070069f70700000078003061880039
:102cc8004f04be000080fa00000006000600fa006b
:102cd800008fbe00424798004e4090000004e0007c
:102ce80005003a001e0178009e01900022818800ac
:102cf80033818800050037001e0078009e00900090
:102d080001f0a20060818800718188000080fa00cb
:102d1800000006000400fa00881f7800008fbe003b
:102d280018c0b3006011b8001e0078009e00900023
:102d380027f707000000e00001003d000044eb0019
:102d48000804e000030032001e0078009e00900096
:102d5800030037001e0078009e00900001f0a200da
:102d68004f0478000080fa00000006000800fa000e
:102d7800881f7800008fbe0022079800330798004c
:102d880018c0b3002e019000be0190001e0078000c
:102d98009e0090000ef707000000e00001003c00d4
:102da8000044eb000804e000030032001e00780035
:102db8009e009000020037002e009000be00900098
:102dc8004f0478000080fa00000006000800fa00ae
:102dd800881f7800008fbe002207980033079800ec
:102de80018c0b3002e019000be0190001e007800ac
:102df8009e009000f4f607000000e0000100350096
:102e08000044eb000804e000030032001e007800d4
:102e18009e009000020037002e009000be00900037
:102e28004f0478000080fa00000006000c00fa0049
:102e3800881f7800008fbe0022079800330798008b
:102e4800440798005507980018c0b3004e01900039
:102e5800de0190001e0078009e009000dcf607005e
:102e68000000e00001003c000044eb000804e00022
:102e7800040032004e019000de019000028fbe0077
:102e88000e00370018c0b3002e019000be0190005c
:102e98001e0078009e009000cbf607000000e000be
:102ea800010035000044eb000804e0000300320094
:102eb8002e019000be019000028fbe001e00780017
:102ec8009e0090004f0478000080fa000000060081
:102ed8000400fa00008fbe00b2fd20009304240015
:102ee8001e0078009e00900075f607000200200082
:102ef800433324004cf707000080fa000000060066
:102f08000400fa00008fbe00b2fd200093042400e4
:102f18001e0078009e00900043f707000200200082
:102f28004333240066f607000080fa00000006001c
:102f38000000fa0021e3a9002143a800011980003c
:102f4800f0cf2f0000806000001988002043a900fe
:102f580001198000000e200001007000001988008f
:102f680011198000f0ff210000806000101988000e
:102f78002343a80011198000f0cf2f0000806000c3
:102f8800101988001119800030f82f0000806000a7
:102f98000040a000101988002203a9002223a900dc
:102fa80025e3a900f0c0b30024e3b700211980008d
:102fb800f00f2e008080600000f0200001007000fb
:102fc800201988003303a9002e0ea8002f6ea80030
:102fd8006f2ea8001e2ea8004feea8003063a80090
:102fe80030c3a8003163a80031e3a8002e03a8006d
:102ff8004119800000fc2f00008060004019880003
:1030080028e3a90001a8a90021a8a80021e3a80095
:103018000080fa00000006000000fa002023a80043
:103028000080fa00000006000000fa0040032100ba
:103038000080fa00000006000000fa000dd0bf0072
:103048000080fa00000006000000fa000d70ef0092
:103058000080fa00000006000000fa002002a90023
:103068000111800090ff2f0000806000001188008f
:1030780020a2a9002062a800500520004011880065
:1030880023a2a90023e2a9000188a9002188a90098
:1030980011118000f0f32f000080600010118800eb
:1030a8000168a9002168a80021e2a8002342a8001d
:1030b8000080fa00000006000600fa0010079800d9
:1030c800210798000040eb00004f78000040eb001b
:1030d800004f78000e00370000000000111180003a
:1030e80000202000008060000000e000fbff3a00a4
:1030f8001e009000104078000080fb00201188001e
:103108001e0090000000e800100798001e4fe8001d
:103118009e80fb002e009000808f5000eeff35004f
:103128000080fa00000006000000fa00f00320000a
:10313800303a8800213a8000f0f32f0000806000c8
:10314800203a8800213a800000fe2f0000806000ad
:103158000000a000203a880012002000800720000c
:10316800a109200033742000804978008149780043
:1031780082497800103a8000000178000200a0001f
:103188006004200071052000237420008049780025
:10319800814978008249780000000000113a8000d7
:1031a800000027008080600000002100808f500010
:1031b800faff3a0000000000113a800000022000e7
:1031c800008060000000e000fbff32000080fa0091
:1031d800000006000000fa000e2eef001e2eef0081
:1031e8002e2eef003e2eef004e2eef005e2eef004b
:1031f8006e2eef00214ea90060cea90060eea90056
:10320800016ea80011cea90011eea90020cea900d8
:1032180020eea900200ea800216ea800612ea800ab
:10322800102ea80041cea8002136800000f82f00fb
:10323800008060008001b3002036880011348000cf
:1032480000fc2f00008060000000a00010348800ff
:083258000080fa0000000600ee
:020000040000fa
:103260000a100000020000008000000000100000b2
:1032700006000000800000000e1000002600000084
:103280008000000006100000040000008200000022
:103290000000200041000000341000000a0000007f
:1032a000800000000c100000020000008000000000
:0432b000000000001a
:020000040000fa
:02000004000af0
:04afe000cfff00009f
:020000040000fa
:02000004000af0
:04afe400ffff00006b
:020000040000fa
:02000004000af0
:04afe8007fff0000e7
:020000040000fa
:02000004000af0
:04afec005fff000003
:020000040000fa
:02000004000af0
:04aff00038ff000026
:020000040000fa
:02000004000af0
:04aff400ffff00005b
:00000001FF
