:020000040000fa
:080000000002040000000000f2
:020000040000fa
:0400080004040000ec
:020000040000fa
:04000c0004040000e8
:020000040000fa
:0400100004040000e4
:020000040000fa
:0400140004040000e0
:020000040000fa
:0400180004040000dc
:020000040000fa
:04001c0004040000d8
:020000040000fa
:0400200004040000d4
:020000040000fa
:0400240004040000d0
:020000040000fa
:0400280004040000cc
:020000040000fa
:04002c0004040000c8
:020000040000fa
:0400300004040000c4
:020000040000fa
:0400340002030000c3
:020000040000fa
:0400380004040000bc
:020000040000fa
:04003c0004040000b8
:020000040000fa
:0400400004040000b4
:020000040000fa
:0400440004040000b0
:020000040000fa
:04004800fa020000b8
:020000040000fa
:04004c0004040000a8
:020000040000fa
:0400500004040000a4
:020000040000fa
:04005400c0030000e5
:020000040000fa
:04005800960300000b
:020000040000fa
:04005c00720300002b
:020000040000fa
:040060000404000094
:020000040000fa
:040064000404000090
:020000040000fa
:04006800040400008c
:020000040000fa
:04006c000404000088
:020000040000fa
:040070000404000084
:020000040000fa
:040074000404000080
:020000040000fa
:04007800040400007c
:020000040000fa
:04007c000404000078
:020000040000fa
:040080000404000074
:020000040000fa
:040084000404000070
:020000040000fa
:04008800040400006c
:020000040000fa
:04008c000404000068
:020000040000fa
:040090000404000064
:020000040000fa
:04009400480300001d
:020000040000fa
:04009800040400005c
:020000040000fa
:04009c000404000058
:020000040000fa
:0400a0000404000054
:020000040000fa
:0400a4000404000050
:020000040000fa
:0400a800040400004c
:020000040000fa
:0400ac000404000048
:020000040000fa
:0400b0000404000044
:020000040000fa
:0400b4000404000040
:020000040000fa
:0400b800040400003c
:020000040000fa
:0400bc000404000038
:020000040000fa
:0400c0000404000034
:020000040000fa
:0400c4000404000030
:020000040000fa
:0400c800040400002c
:020000040000fa
:0400cc000404000028
:020000040000fa
:0400d0000404000024
:020000040000fa
:0400d4000404000020
:020000040000fa
:0400d800040400001c
:020000040000fa
:0400dc000404000018
:020000040000fa
:0400e0000404000014
:020000040000fa
:0400e4000404000010
:020000040000fa
:0400e800040400000c
:020000040000fa
:0400ec000404000008
:020000040000fa
:0400f0000404000004
:020000040000fa
:0400f4000404000000
:020000040000fa
:0400f80004040000fc
:020000040000fa
:0400fc0004040000f8
:020000040000fa
:0401000004040000f3
:020000040000fa
:0401040004040000ef
:020000040000fa
:0401080004040000eb
:020000040000fa
:04010c0004040000e7
:020000040000fa
:0401100004040000e3
:020000040000fa
:0401140004040000df
:020000040000fa
:0401180004040000db
:020000040000fa
:04011c0004040000d7
:020000040000fa
:0401200004040000d3
:020000040000fa
:0401240004040000cf
:020000040000fa
:0401280004040000cb
:020000040000fa
:04012c0004040000c7
:020000040000fa
:0401300004040000c3
:020000040000fa
:0401340004040000bf
:020000040000fa
:0401380004040000bb
:020000040000fa
:04013c0004040000b7
:020000040000fa
:0401400004040000b3
:020000040000fa
:0401440004040000af
:020000040000fa
:0401480004040000ab
:020000040000fa
:04014c0004040000a7
:020000040000fa
:0401500004040000a3
:020000040000fa
:04015400040400009f
:020000040000fa
:04015800040400009b
:020000040000fa
:04015c000404000097
:020000040000fa
:040160000404000093
:020000040000fa
:04016400040400008f
:020000040000fa
:04016800040400008b
:020000040000fa
:04016c000404000087
:020000040000fa
:040170000404000083
:020000040000fa
:04017400040400007f
:020000040000fa
:04017800040400007b
:020000040000fa
:04017c000404000077
:020000040000fa
:040180000404000073
:020000040000fa
:04018400040400006f
:020000040000fa
:04018800040400006b
:020000040000fa
:04018c000404000067
:020000040000fa
:040190000404000063
:020000040000fa
:04019400040400005f
:020000040000fa
:04019800040400005b
:020000040000fa
:04019c000404000057
:020000040000fa
:0401a0000404000053
:020000040000fa
:0401a400040400004f
:020000040000fa
:0401a800040400004b
:020000040000fa
:0401ac000404000047
:020000040000fa
:0401b0000404000043
:020000040000fa
:0401b400040400003f
:020000040000fa
:0401b800040400003b
:020000040000fa
:0401bc000404000037
:020000040000fa
:0401c0000404000033
:020000040000fa
:0401c400040400002f
:020000040000fa
:0401c800040400002b
:020000040000fa
:0401cc000404000027
:020000040000fa
:0401d0000404000023
:020000040000fa
:0401d400040400001f
:020000040000fa
:0401d800040400001b
:020000040000fa
:0401dc000404000017
:020000040000fa
:0401e0000404000013
:020000040000fa
:0401e400040400000f
:020000040000fa
:0401e800040400000b
:020000040000fa
:0401ec000404000007
:020000040000fa
:0401f0000404000003
:020000040000fa
:0401f40004040000ff
:020000040000fa
:0401f80004040000fb
:020000040000fa
:0401fc0004040000f7
:020000040000fa
:0402000004040000f2
:020000040000fa
:0402040004040000ee
:020000040000fa
:0402080004040000ea
:020000040000fa
:04020c0004040000e6
:020000040000fa
:0402100004040000e2
:020000040000fa
:0402140004040000de
:020000040000fa
:0402180004040000da
:020000040000fa
:04021c0004040000d6
:020000040000fa
:0402200004040000d2
:020000040000fa
:0402240004040000ce
:020000040000fa
:0402280004040000ca
:020000040000fa
:04022c0004040000c6
:020000040000fa
:0402300004040000c2
:020000040000fa
:0402340004040000be
:020000040000fa
:0402380004040000ba
:020000040000fa
:04023c0004040000b6
:020000040000fa
:0402400004040000b2
:020000040000fa
:0402440004040000ae
:020000040000fa
:0402480004040000aa
:020000040000fa
:04024c0004040000a6
:020000040000fa
:0402500004040000a2
:020000040000fa
:04025400040400009e
:020000040000fa
:04025800040400009a
:020000040000fa
:04025c000404000096
:020000040000fa
:040260000404000092
:020000040000fa
:04026400040400008e
:020000040000fa
:04026800040400008a
:020000040000fa
:04026c000404000086
:020000040000fa
:040270000404000082
:020000040000fa
:04027400040400007e
:020000040000fa
:04027800040400007a
:020000040000fa
:04027c000404000076
:020000040000fa
:040280000404000072
:020000040000fa
:10040000ef2321000eff2c000e01880000000000e9
:10041000000020000000e000020032000001200087
:100420002002880014000700f90007000000e00027
:1004300003003a00003522000100200002003700ce
:100440000000200001002000810f70000100320038
:100450000f000700000020000000e0000200320052
:100460000000020000000000dc09020000000000a3
:100470000040da000000fe00200020000000e00044
:1004800002003200100020009001880000000600e9
:10049000a1028800800478000000eb001f003700f4
:1004a000e284440054a0b4009905ba00e2844400f8
:1004b00054a0b4009906ba00e284440054a0b400e9
:1004c0000006eb00476fde00fd07b200ae018800ba
:1004d000636ce10003003a000ad801000000eb0061
:1004e0000e003700606ce10008003a00004deb00a0
:1004f0000a05e800020039003420ec000af0a000f0
:100500008b05e900f9ff3e00040037006168e10057
:10051000010032000086eb000b00070019c7ba008b
:100520000e04e0001905ba0003003a000a00e000da
:10053000dbff3a0000000600fe07b200ae028800b2
:100540008a047800f5ff37000cd0a300e20f4d00bd
:100550001c00390089027800354dba000a05e80010
:10056000020039003420ec000af0a0008b05e900fd
:100570000f003200254dba000a05e80002003900dc
:100580003420ec000af0a0008b05e90008003200de
:100590000c00e0000600320015cdba000a05e800a4
:1005a000020039003420ec000af0a0008b05e900bd
:1005b0008984e80054a0b4000b00e000e2ff3a0098
:1005c000000006009902ba00055d78008b05e9007d
:1005d000f7ff3200c82ade00055d78008b05e900d0
:1005e000f3ff32000c00e000f1ff320019ddba0029
:1005f000eeff37000000fa000108a9000080fa00b1
:10060000004006003600f800809fbe00829fbe00ba
:10061000849fbe00869fbe000200fa000068a90009
:10062000650f07001b0e070010828000000f780086
:10063000a10020001e00780081017800110009004f
:100640000300d80001f0a7008100ea008100e90062
:10065000cf08de00814078001e0178000200e8002b
:10066000108288000104e00002003200b30b070092
:100670004230ef000080fa004f03be004f02be0080
:100680004f01be004f00be003600f90000400600da
:100690003600f800809fbe00829fbe00849fbe008f
:1006a000869fbe000000fa000368a900f081800068
:1006b0000182800061004000e0804800f0818800f5
:1006c00001828800fa0307000080fa004f03be0091
:1006d0004f02be004f01be004f00be003600f900c1
:1006e00000400600801f78000000fa0001a8a90061
:1006f00000188000a091880010188000b091880038
:1007000020188000c091880030188000d0918800a7
:1007100040188000e091880010c0b30061f0b7007d
:100720000080fa004f007800004006003600f80014
:10073000809fbe00829fbe00849fbe00869fbe0039
:100740000000fa000188a9007182800060828000a8
:10075000808f500002003200bb0e070001003700fe
:100760005070ef000080fa004f03be004f02be0041
:100770004f01be004f00be003600f90000400600e9
:100780003600f800809fbe00829fbe00849fbe009e
:10079000869fbe000000fa000168a90010118000c9
:1007a000640060000000e000010032002242a90065
:1007b00010118000620060000000e00006003200be
:1007c0002222a90005003700301180000040780087
:1007d000090f070001003700000000001011800021
:1007e000610060000000e000f7ff3a000080fa00be
:1007f0004f03be004f02be004f01be004f00be00bf
:100800003600f900004006000040da000000fe005b
:100810000000050003f0a200889fbe008a9fbe0072
:100820008c1f7800d3010700da0133006450e10027
:100830004f0032006420e1005200320003826c005d
:1008400007003b000905d0000306d000820f5400ca
:100850000c065d00020039000200320089017800b8
:10086000030678008582550004003d000003fd006a
:100870008103fd008502ea008b854200840f72002f
:1008800002003b0060001000e08018006011b8001a
:100890000005eb007a28e1000a0039000600780024
:1008a000c75ddd00f707b200878075002d003700b7
:1008b000828171000a017800610560008180d100a9
:1008c0000080d3008502e900f9ff3b0006044000e8
:1008d0008784480002003b0060041400e0841c0090
:1008e0000988a300070032008a81710082817100ab
:1008f000610164008904d1000884d3008b05e800fd
:10090000170037000978a30013003a000b00e0003d
:10091000130034008b05e9000804440089844c006e
:100920000a4474000978a3000d003a000b00e000af
:10093000070034008b05e9000804440089844c005a
:1009400001003a000b0020000978a300f7ff3200f5
:100950000001eb0002003700828171000a0178007b
:10096000490107000cf0a70001f0a0009201370038
:100970006420e10002003a00838f6c009201330092
:100980000801be000200be008b013700889fbe0038
:100990008a9fbe008c9fbe000004be00600107005d
:1009a0000800be00890678006420e10008003900d4
:1009b000040032000160a0001202200012838800af
:1009c0005300370091fc2300b0fd20004e0037009b
:1009d0000006eb0009f0a10003f82300020020004c
:1009e0000800be00920007000600340001f8230052
:1009f000000020000801be004b0007000004be00fc
:100a00002c0020000800be0093e82300320a2300d7
:100a100087000700120034000801be00d1fd23004a
:100a2000703d2b007cff07000005be00b3f32300e0
:100a3000f27a26000800be006601070003f82300d2
:100a40000200200073ff07000801be0072ff0700cc
:100a50000a01be00340007000004be000c06e800d6
:100a60000800be0001f0a10002002000039823004e
:100a70006f0007000800be00160035000801be0028
:100a8000540107000005be0032cd2c0043fb2300bb
:100a900061ff0700809fbe001269280003d52b006c
:100aa0000a00be004b010700620f210013ef2b006c
:100ab00059ff07000a01be00460107004f01be00b2
:100ac000190007000801be00420107000801be002e
:100ad00051ff07000c00e0000b0032000c10a700d3
:100ae00001f0a200b2fd200093fc23006260e1004f
:100af0000400320022a9200063f023000c10a7009c
:100b000063f8230044ff07000df0a70001f0a200e6
:100b10004f06be004f05be004f04be000000060099
:100b20000081eb005f013700889fbe008a9fbe00f6
:100b30008c1f78000f0107001601330003866c003c
:100b40006450e1002e0032006420e10033003200e6
:100b50006150e1002f0032006120e10031003200dd
:100b600085855500eb07b00009002000080420002f
:100b7000050037000804440089844c000a00310055
:100b80000603430087834b000001530081815b0013
:100b9000f8ff33000203be000800a0000804440070
:100ba00089844c00f6ff3900c639dd0083017300eb
:100bb00001003200130020008904d1000884d30012
:100bc0000998a300050032000800a7000300a00058
:100bd0008904d1000884d3008b05e8008904d10082
:100be0000884d3000001eb000281d200a6000700b8
:100bf00001f0a1000cf0a70001f0a000ee0037000a
:100c00006420e100f00032000801be000200be00d6
:100c1000f7ff37006120e100eb0032006000b80010
:100c2000f3ff37000000200001f82700f0ff370035
:100c30001400200086013700f4ff2f0084013700e4
:100c40000001be00b60007000470a70003f0a10079
:100c50006509b100160032000d0035006828e1007a
:100c600006003500f0ff2f00f1ff27000300e00031
:100c700013003b00010028000000050000004000b8
:100c8000818048008502e900fcff3a000800370037
:100c9000f88f420002003c008000eb0000000500dd
:100ca0008100d1000080d3008502e800fcff3a00fb
:100cb0000300e00002003b0060001000e08018002c
:100cc000000006000001be00950007000470a700a8
:100cd00003f0a10003f8a30013003a006509b10076
:100ce00010003200090035006928e10002003500db
:100cf000010028000000050000004000818048003d
:100d00008502e900fcff3a0000000600f88f42006f
:100d1000050035008100d1000080d3008502e80085
:100d2000fcff3a00000006008000eb000000050018
:100d30004f89de0082017800600137006011b80041
:100d40006e0137000400200000003700889fbe00bd
:100d50008a9fbe008c1f78004f26dd0085000700ab
:100d60008c0033006120e100430032006250e1005a
:100d700041003e003e0039006420e1003c003200aa
:100d8000058255000f003b000402e80038003a00dd
:100d9000800f5300818f5b00350034000800be00d7
:100da00003f0a10001f0a60003f0a0000cf0a700e2
:100db00099fe0700800037000603430087834b003d
:100dc0000c4646000005530081855b00020033009d
:100dd0000a03be000c00a0000402e900f6ff3b007d
:100de000850578000602430087824b0004003a0024
:100df0006000b80009f0a70001f0a0006e00370005
:100e00000002520081825a000704e000040033000f
:100e10000603430087834b008b05e900faff370088
:100e2000090578000604be000203be006011b80088
:100e300015000700e00f5200e08f5a000700350050
:100e400002003c000c08a300040032000601be00b2
:100e500003f0a0000cf0a7006ffe07000a856800f1
:100e600001f0a1000af0a70001f0a0005200370035
:100e70000800be0050003700100220000cf0a60051
:100e800010838800500037008100200061805500e9
:100e90000b003d000b00200061fe2f000100e1006f
:100ea0001d00340082817100610164008904d10059
:100eb0000884d3000000e800faff3a007100200027
:100ec000610064000300700002006000090032004d
:100ed00061044400e0844c000988a500050032004c
:100ee0008b05e8006808e10002003a008904d1009f
:100ef0000884d300f20f20000258e10005003d00f5
:100f0000c75ddd00f907b200898075000800780030
:100f1000000006000bf827008b0078000000050099
:100f2000c70ade00f107b200f50fb2000800320078
:100f3000e1cf4200020032000170a0002400050051
:100f4000810f700001003200040805004400050014
:100f5000810f700002003a00140005008502e900cc
:100f60000000400081c04800fcff3b000170a00071
:100f7000240005000004be00e9ff07000003be00d6
:100f80000405be000200be00e5ff0700844f7500a7
:100f9000000006000200be006450e10005003600bb
:100fa0006420e100020036000968a30001003a0055
:100fb0000800be000160a0004f0678004f05be008b
:100fc0004f04be0000000600f0ff2f00f1ff2700d5
:100fd000f9ff3700889fbe008a9fbe008c1f7800f3
:100fe000e4ff0700ebff330003866c006450e10070
:100ff000240032006420e100270032006150e1004b
:10100000220032006120e100210032008b85420085
:10101000eb07b1000134b800003ab8000804420000
:1010200089844a00013ab8000030b8008880400046
:1010300009014a000400330000004000818048009c
:10104000020149008b05e900c909dd008301700038
:101050000100320013002000c814de004814dd0037
:101060004709de001200b200c808de0008847000e4
:1010700085ff070001f0a1000cf0a70001f0a0001f
:10108000cdff37006120e100cfff32000801be0034
:101090000200be00f7ff37006150e100fcff3a009c
:1010a000c9ff3700889fbe008a9fbe008c9fbe008c
:1010b000820578000004be0099ff07000800be000a
:1010c0006420e1000700390002003a00f1ff270028
:1010d000f0ff2f000160a0001202200012838800a0
:1010e000550037006120e10003003a000b00a70023
:1010f00001f823005000370001f0a1000200210098
:1011000093642400cafe07000800be0004003500f6
:10111000b2fd2000930c24000aff07000004be006b
:101120000005eb000b00a6004f0dde0001f0a10052
:101130000004be0032982f0023ea2300a5ff070019
:101140000001eb0003f023000b00a70003f82300cd
:10115000b1fd0700bafe07000000a7000a00a200c8
:10116000f3fe07000b00e000030032000200200045
:1011700003f02300a7fd070001f0a2000006be0057
:10118000020020009304240092ff07000801be0023
:10119000a1fd0700809fbe000c00be0022a22a0015
:1011a000d3a723008bff07004f01be009afd070065
:1011b0000004be0001f0a1000200200003982300fb
:1011c0009bfe07000800be00190035000001be00ac
:1011d00080ff07000006be00b2c52900e3622300bd
:1011e0007cff070022222b00f3942b008afd0700ce
:1011f0000c01be0077ff0700e273280083c02300c4
:1012000085fd07000c01be0072ff070042aa2a00fc
:10121000a3e22b0080fd07000c01be006dff07005c
:101220000801be006bff07000801be007afd070041
:101230000a00a70001f0a2004f06be004f05be0045
:101240004f04be00000006000001eb0095ff3700d0
:10125000889fbe008a9fbe00841f780045ff07005c
:101260004f00780011003300f0ff2f00838f6c00d7
:1012700006003b00040565000a00a70008003700cf
:1012800009f0a6001000200008003700820f54006b
:10129000838f5c00030039001000200001003e0035
:1012a0000000200009f0a7000000ea004f05be0082
:1012b0004f04be000000e00000000600881f780018
:1012c000030478000300e00007003d006000100008
:1012d000e080180060011900e081190002003b0065
:1012e00001f02d00030037000400070008f0a700fc
:1012f00001f0a0004f04780000000600889fbe00a7
:101300008a9fbe0000827000040271000482710096
:10131000260032000004be000200be006011b800ca
:101320006b092000950220000182cf000a003900dd
:101330000541b1000082cf00070039000541b1002e
:101340000982cf00040039000541b1000882cf00b6
:10135000010039000541b10005425200120032007f
:101360000a003b0082817100610164008100d100ac
:101370000080d3008984d3000884d3008b05e80063
:101380000442e800f7ff3a00070037000804440071
:1013900089844c0000004800818048008b05e900ea
:1013a0000442e900f9ff3a00b7fe07004f05be000e
:0813b0004f04be00000006001e
:020000040000fa
:1013b8000c00fa00889fbe00e90c07006000b80026
:1013c80000908800119088006000b8004090880064
:1013d80051908800601e210011c0b30001487800b8
:1013e800400c07008d0a07007d08070095080700d4
:1013f80013090700b40b0700730c07008f090700d7
:10140800970907000100370000000000f00b0700f3
:10141800e14f5000fcff3a00f10b0700e80b070012
:10142800100798001e009000100078008000eb0064
:1014380040fe07003233230033052400e3fe070093
:101448000200200003582400b5fd0700d2cc2c0070
:10145800c3042400ddfe0700200798003107980028
:101468002e019000be019000000020008120240081
:10147800abfd070002002000030a2400e3fc07007c
:10148800408f8800518f88001e0090000080e8007f
:10149800100078008000eb0026fe0700323323009e
:1014a80033052400c9fe0700020020000358240069
:1014b8009bfd0700d2cc2c00c3042400c3fe070008
:1014c80020079800310798002e019000be01900077
:1014d800000020008120240091fd07000200200068
:1014e800030a2400c9fc0700608f8800718f8800f8
:1014f8001e00900064004000100078008000eb009f
:101508000cfe07003233230033052400affe07002a
:10151800020020000358240081fd0700d2cc2c00d3
:10152800c3042400a9fe070020079800310798008b
:101538002e019000be0190000000200081202400b0
:1015480077fd070002002000030a2400affc070013
:10155800808f8800918f88001e00900068004000ee
:10156800100078008000eb00f2fd07003233230002
:101578003305240095fe07000200200003582400cc
:1015880067fd0700d2cc2c00c30424008ffe07009f
:1015980020079800310798002e019000be019000a6
:1015a80000002000812024005dfd070002002000cb
:1015b800030a240095fc0700a08f8800b18f8800db
:1015c8001e00900066004000100078008000eb00cc
:1015d800d8fd070032332300330524007bfe0700c3
:1015e80002002000035824004dfd0700d2cc2c0037
:1015f800c304240075fe07002007980031079800ef
:101608002e019000be0190000000200081202400df
:1016180043fd070002002000030a24007bfc0700aa
:10162800c08f8800d18f8800a08f8000b18f800084
:10163800a2fd070080447800808f8000918f800091
:101648009efd070000447800608f8000718f800045
:101658009afd070000407800194f9800284f98001d
:10166800304f9800690047000001780031002000e1
:1016780000032000c70507000000eb00000f7800fa
:1016880005003700690b0700004f98000e489000ce
:101698002c0607001e0fe8007d0b07009e0f500068
:1016a800f8ff3c0059ff37000000fa001170800075
:1016b80000802000008060000000e000dc003200b4
:1016c800501e2100104078000080fb00cf80de0013
:1016d8005201200003002000820f5000838f580021
:1016e800cf003e0000060100150037001f0037003c
:1016f8002d0037003a003700530037005f003700ed
:1017080064003700700037009d003700aa003700da
:10171800af003700bc003700710037007e0037008b
:101728008300370090003700bd003700bc00370049
:10173800bb003700ba0037002f0037003c003700e5
:101748003e30ef004030ef0012c0b3006000b80038
:101758006f0a07000041eb006000b8006c0a070040
:10176800501e210011c0b30001487800f2818000aa
:1017780003828000803e200001002000800f51007d
:10178800818f5900b6003600601e21001040780095
:10179800e14f5000b4003a00501e210021c0b300b0
:1017a80001487800c100370012c0b30000002000d3
:1017b800011f2400560a07000041eb00000020002a
:1017c800011f2400520a0700501e210031c0b30037
:1017d8000148780064cea90064eea900b300370080
:1017e800601e210010407800e14f5000a0003a0030
:1017f800b0000700ad00370012c0b30000002000a1
:1018080001222400420a07000041eb0000002000ea
:10181800012224003e0a0700501e210051c1b300d6
:101828000148780064cea90064eea8009f00370044
:10183800601e210010407800e14f50008e003a00f1
:101848009c0007009900370012c0b3000000200078
:10185800011a24002e0a07000041eb006000b800be
:101868002b0a0700501e210051c0b3000148780020
:1018780064cea90064eea9008c003700601e210028
:1018880010407800e14f50007d003a0089000700c1
:101898008600370012c0b3006000b8001c0a0700b9
:1018a8000041eb0000002000011a2400180a07007c
:1018b80064cea90064eea900501e210071c0b300d7
:1018c8000148780079003700601e21001040780038
:1018d800e14f50006c003a007600070073003700b3
:1018e80012c0b3000000200001122c00080a0700f3
:1018f8000041eb0000002000011a2400040a070040
:10190800501e2100d1c0b3000148780064cea90060
:1019180064eea90065003700601e210010407800c1
:10192800e14f50005a003a00620007005f0037009c
:1019380012c0b30000002000011a2400f4090700b7
:101948000041eb000000200001122c00f009070004
:1019580064cea90064eea900501e2100d1c0b300d6
:101968000148780051003700601e210010407800bf
:10197800e14f500048003a004e0007004b00370086
:1019880012c0b30000002000011a2400e00907007b
:101998000041eb0000002000011a2c00dc090700c0
:1019a800501e210091c0b3000148780064cea90000
:1019b80064eea9003d003700601e21001040780049
:1019c800e14f500036003a003a0007003700370070
:1019d80012c0b30000002000011a2c00cc09070037
:1019e8000041eb0000002000011a2400c80907008c
:1019f800501e2100b1c0b3000148780064cea90090
:101a080064eea90029003700601e2100104078000c
:101a1800e14f500024003a00260007002300370059
:101a2800501e21008040eb00014878001f0037005d
:101a38003e30ef004030ef0012c0b3006000b80045
:101a4800b30907000041eb006000b800b0090700c7
:101a5800501e210021c0b300014878001300370050
:101a68000000000011003700000000000f003700e0
:101a7800000000000d003700000000000b003700d8
:101a880000000000090037000000000007003700d0
:101a980000000000050037000000000003003700c8
:101aa8000000000001003700000000000080fa007c
:101ab800000006001200fa00889fbe008a1f780006
:101ac8000040eb00004f78006001200010079800ec
:101ad80000022000200798005002200030079800dc
:101ae800000220004007980060012000500798007d
:101af800c88f8000d98f80001e009000cf80de0044
:101b080089fc07001ac0b3000001be000800be002f
:101b180047fc07000000e00001003c000045eb0026
:101b28000a04e0003b003200a88f8000b98f8000d3
:101b38002e009000cf80de007bfc07001ac0b300a7
:101b48000001be000800be0039fc07000000e000ec
:101b580001003c000045eb000a04e0002d003200c3
:101b6800888f8000998f80003e009000cf80de0033
:101b78006dfc07001ac0b3000001be000800be00db
:101b880029fc07000000e000010035000045eb00db
:101b98000a04e0001f003200688f8000798f8000ff
:101ba8004e009000cf80de005ffc07001ac0b30033
:101bb8000001be000800be001dfc07000000e00098
:101bc80001003c000045eb000a04e000110032006f
:101bd800488f8000598f80005e009000cf80de0023
:101be80051fc07001ac0b3000001be000800be0087
:101bf8000ffc07000000e00001003c000045eb007e
:101c08000a04e0000300320030c0b300004f78003f
:101c1800e1033700a08f8000b18f800018c0b300a7
:101c28000200200003172400fffb07000000e0006b
:101c3800010035000044eb000804e0000e0032000b
:101c4800608f8000718f800018c0b30002002000f0
:101c580003172400f4fb07000000e0000100350032
:101c68000044eb000804e0000300320030c0b30079
:101c7800004f7800c8033700c88f8000d98f8000d4
:101c88001e009000cf80de0027fc07001ac0b300ba
:101c98000001be000800be00e5fb07000000e000f0
:101ca80001003c000045eb000a04e0003b00320064
:101cb800a88f8000b98f80002e009000cf80de00b2
:101cc80019fc07001ac0b3000001be000800be00de
:101cd800d7fb07000000e00001003c000045eb00d6
:101ce8000a04e0002d003200888f8000998f800060
:101cf8003e009000cf80de000bfc07001ac0b30046
:101d08000001be000800be00c9fb07000000e0009b
:101d180001003c000045eb000a04e0001f0032000f
:101d2800688f8000798f80004e009000cf80de00a1
:101d3800fdfb07001ac0b3000001be000800be008a
:101d4800bbfb07000000e00001003c000045eb0081
:101d58000a04e00011003200488f8000598f80008b
:101d68005e009000cf80de00effb07001ac0b300d2
:101d78000001be000800be00adfb07000000e00047
:101d880001003c000045eb000a04e00003003200bb
:101d980060c0b300004f78007f033700c88f800011
:101da800d98f80001e009000cf80de00defb070088
:101db8001ac0b3000001be000800be009cfb07006b
:101dc8000000e00001003c000045eb000a04e000d0
:101dd8003b003200a88f8000b98f80002e00900051
:101de800cf80de00d0fb07001ac0b3000001be00a0
:101df8000800be008efb07000000e00001003c0068
:101e08000045eb000a04e0002d003200888f8000b6
:101e1800998f80003e009000cf80de00c2fb070053
:101e28001ac0b3000001be000800be0080fb070016
:101e38000000e00001003c000045eb000a04e0005f
:101e48001f003200688f8000798f80004e0090005c
:101e5800cf80de00b4fb07001ac0b3000001be004b
:101e68000800be0072fb07000000e00001003c0013
:101e78000045eb000a04e00011003200488f8000a2
:101e8800598f80005e009000cf80de00a6fb07001f
:101e98001ac0b3000001be000800be0062fb0700c4
:101ea8000000e000010035000045eb000a04e000f6
:101eb8000300320050c0b300004f780036033700eb
:101ec800c88f8000d98f80001e009000cf80de0070
:101ed80095fb07001ac0b3000001be000800be0051
:101ee80053fb07000000e00001003c000045eb0048
:101ef8000a04e0003b003200a88f8000b98f800000
:101f08002e009000cf80de0087fb07001ac0b300c8
:101f18000001be000800be0045fb07000000e0000d
:101f280001003c000045eb000a04e0002d003200ef
:101f3800888f8000998f80003e009000cf80de005f
:101f480079fb07001ac0b3000001be000800be00fc
:101f580037fb07000000e00001003c000045eb00f3
:101f68000a04e0001f003200688f8000798f80002b
:101f78004e009000cf80de006bfb07001ac0b30054
:101f88000001be000800be0027fb07000000e000bb
:101f9800010035000045eb000a04e00011003200a2
:101fa800488f8000598f80005e009000cf80de004f
:101fb8005dfb07001ac0b3000001be000800be00a8
:101fc80019fb07000000e000010035000045eb00a8
:101fd8000a04e0000300320020c0b300004f78007c
:101fe800ed023700c88f8000d98f80001e00900056
:101ff800cf80de004cfb07001ac0b3000001be0012
:102008000800be000afb07000000e00001003c00d9
:102018000045eb000a04e0003b003200a88f800076
:10202800b98f80002e009000cf80de003efb0700b5
:102038001ac0b3000001be000800be00fcfa070089
:102048000000e00001003c000045eb000a04e0004d
:102058002d003200888f8000998f80003e0090000c
:10206800cf80de0030fb07001ac0b3000001be00bd
:102078000800be00eefa07000000e00001003c0086
:102088000045eb000a04e0001f003200688f800062
:10209800798f80004e009000cf80de0022fb070081
:1020a8001ac0b3000001be000800be00defa070037
:1020b8000000e000010035000045eb000a04e000e4
:1020c80011003200488f8000598f80005e00900018
:1020d800cf80de0014fb07001ac0b3000001be0069
:1020e8000800be00d2fa07000000e00001003c0032
:1020f8000045eb000a04e0000300320020c0b300f2
:10210800004f7800a4023700c88f8000d98f800064
:102118001e009000cf80de0003fb07001ac0b3004a
:102128000001be000800be00bffa07000000e00082
:10213800010035000045eb000a04e0003b003200d6
:10214800a88f8000b98f80002e009000cf80de001d
:10215800f5fa07001ac0b3000001be000800be006f
:10216800b3fa07000000e00001003c000045eb0066
:102178000a04e0002d003200888f8000998f8000cb
:102188003e009000cf80de00e7fa07001ac0b300d7
:102198000001be000800be00a5fa07000000e0002c
:1021a80001003c000045eb000a04e0001f0032007b
:1021b800688f8000798f80004e009000cf80de000d
:1021c800d9fa07001ac0b3000001be000800be001b
:1021d80097fa07000000e00001003c000045eb0012
:1021e8000a04e00011003200488f8000598f8000f7
:1021f8005e009000cf80de00cbfa07001ac0b30063
:102208000001be000800be0089fa07000000e000d7
:1022180001003c000045eb000a04e0000300320026
:1022280040c0b300004f78005b023700c88f8000c1
:10223800d98f80001e009000cf80de00bafa070018
:102248001ac0b3000001be000800be0076fa0700fd
:102258000000e000010035000045eb000a04e00042
:102268003b003200a88f8000b98f80002e009000bc
:10227800cf80de00acfa07001ac0b3000001be0030
:102288000800be0068fa07000000e0000100350001
:102298000045eb000a04e0002d003200888f800022
:1022a800998f80003e009000cf80de009efa0700e4
:1022b8001ac0b3000001be000800be005cfa0700a7
:1022c8000000e00001003c000045eb000a04e000cb
:1022d8001f003200688f8000798f80004e009000c8
:1022e800cf80de0090fa07001ac0b3000001be00dc
:1022f8000800be004efa07000000e00001003c00a4
:102308000045eb000a04e00011003200488f80000d
:10231800598f80005e009000cf80de0082fa0700af
:102328001ac0b3000001be000800be0040fa070052
:102338000000e00001003c000045eb000a04e0005a
:102348000300320010c0b300004f780012023700bb
:10235800c88f8000d98f80001e009000cf80de00db
:1023680071fa07001ac0b3000001be000800be00e1
:102378002ffa07000000e00001003c000045eb00d8
:102388000a04e0003b003200a88f8000b98f80006b
:102398002e009000cf80de0063fa07001ac0b30059
:1023a8000001be000800be001ffa07000000e000a0
:1023b800010035000045eb000a04e0002d00320062
:1023c800888f8000998f80003e009000cf80de00cb
:1023d80055fa07001ac0b3000001be000800be008d
:1023e80013fa07000000e00001003c000045eb0084
:1023f8000a04e0001f003200688f8000798f800097
:102408004e009000cf80de0047fa07001ac0b300e4
:102418000001be000800be0005fa07000000e00049
:1024280001003c000045eb000a04e0001100320006
:10243800488f8000598f80005e009000cf80de00ba
:1024480039fa07001ac0b3000001be000800be0038
:10245800f7f907000000e00001003c000045eb0030
:102468000a04e0000300320010c0b300004f7800f7
:10247800c9013700c88f8000d98f80001e009000e6
:10248800cf80de0028fa07001ac0b3000001be00a2
:102498000800be00e6f907000000e00001003c006b
:1024a8000045eb000a04e0003b003200a88f8000e2
:1024b800b98f80002e009000cf80de001afa070046
:1024c8001ac0b3000001be000800be00d8f907001a
:1024d8000000e00001003c000045eb000a04e000b9
:1024e8002d003200888f8000998f80003e00900078
:1024f800cf80de000cfa07001ac0b3000001be004e
:102508000800be00c8f907000000e000010035001f
:102518000045eb000a04e0001f003200688f8000cd
:10252800798f80004e009000cf80de00fef9070012
:102538001ac0b3000001be000800be00baf90700c7
:102548000000e000010035000045eb000a04e0004f
:1025580011003200488f8000598f80005e00900083
:10256800cf80de00f0f907001ac0b3000001be00fa
:102578000800be00aef907000000e00001003c00c2
:102588000045eb000a04e0000300320030c0b3004d
:10259800004f780080013700c88f8000d98f8000f5
:1025a8001e009000cf80de00dff907001ac0b300dc
:1025b8000001be000800be009df907000000e00011
:1025c80001003c000045eb000a04e0003b0032003b
:1025d800a88f8000b98f80002e009000cf80de0089
:1025e800d1f907001ac0b3000001be000800be0000
:1025f8008df907000000e000010035000045eb0000
:102608000a04e0002d003200888f8000998f800036
:102618003e009000cf80de00c3f907001ac0b30067
:102628000001be000800be007ff907000000e000be
:10263800010035000045eb000a04e0001f003200ed
:10264800688f8000798f80004e009000cf80de0078
:10265800b5f907001ac0b3000001be000800be00ab
:1026680073f907000000e00001003c000045eb00a2
:102678000a04e00011003200488f8000598f800062
:102688005e009000cf80de00a7f907001ac0b300f3
:102698000001be000800be0065f907000000e00068
:1026a80001003c000045eb000a04e0000300320092
:1026b80030c0b300004f780037013700c88f800062
:1026c800d98f80001e009000cf80de0096f90700a9
:1026d8001ac0b3000001be000800be0054f907008c
:1026e8000000e00001003c000045eb000a04e000a7
:1026f8003b003200a88f8000b98f80002e00900028
:10270800cf80de0088f907001ac0b3000001be00c0
:102718000800be0044f907000000e0000100350091
:102728000045eb000a04e0002d003200888f80008d
:10273800998f80003e009000cf80de007af9070074
:102748001ac0b3000001be000800be0036f9070039
:102758000000e000010035000045eb000a04e0003d
:102768001f003200688f8000798f80004e00900033
:10277800cf80de006cf907001ac0b3000001be006c
:102788000800be0028f907000000e000010035003d
:102798000045eb000a04e00011003200488f800079
:1027a800598f80005e009000cf80de005ef9070040
:1027b8001ac0b3000001be000800be001cf90700e3
:1027c8000000e00001003c000045eb000a04e000c6
:1027d8000300320030c0b300004f7800ee0037002d
:1027e800c88f8000d98f80001e009000cf80de0047
:1027f8004df907001ac0b3000001be000800be0072
:102808000bf907000000e00001003c000045eb0068
:102818000a04e0003b003200a88f8000b98f8000d6
:102828002e009000cf80de003ff907001ac0b300e9
:102838000001be000800be00fdf807000000e0002f
:1028480001003c000045eb000a04e0002d003200c6
:10285800888f8000998f80003e009000cf80de0036
:1028680031f907001ac0b3000001be000800be001d
:10287800edf807000000e000010035000045eb001e
:102888000a04e0001f003200688f8000798f800002
:102898004e009000cf80de0023f907001ac0b30075
:1028a8000001be000800be00dff807000000e000dd
:1028b800010035000045eb000a04e0001100320079
:1028c800488f8000598f80005e009000cf80de0026
:1028d80015f907001ac0b3000001be000800be00c9
:1028e800d1f807000000e000010035000045eb00ca
:1028f8000a04e0000300320020c0b300004f780053
:10290800a5003700c88f8000d98f80001e00900076
:10291800cf80de0004f907001ac0b3000001be0032
:102928000800be00c0f807000000e0000100350004
:102938000045eb000a04e0003b003200a88f80004d
:10294800b98f80002e009000cf80de00f6f80700d7
:102958001ac0b3000001be000800be00b2f80700ac
:102968000000e000010035000045eb000a04e0002b
:102978002d003200888f8000998f80003e009000e3
:10298800cf80de00e8f807001ac0b3000001be00df
:102998000800be00a4f807000000e00001003500b0
:1029a8000045eb000a04e0001f003200688f800039
:1029b800798f80004e009000cf80de00daf80700a3
:1029c8001ac0b3000001be000800be0096f8070058
:1029d8000000e000010035000045eb000a04e000bb
:1029e80011003200488f8000598f80005e009000ef
:1029f800cf80de00ccf807001ac0b3000001be008b
:102a08000800be008af807000000e00001003c0052
:102a18000045eb000a04e0000300320010c0b300d8
:102a2800004f78005c003700c88f8000d98f800085
:102a38001e009000cf80de00bbf807001ac0b3006c
:102a48000001be000800be0077f807000000e000a3
:102a5800010035000045eb000a04e0003b003200ad
:102a6800a88f8000b98f80002e009000cf80de00f4
:102a7800adf807001ac0b3000001be000800be0090
:102a88006bf807000000e00001003c000045eb0087
:102a98000a04e0002d003200888f8000998f8000a2
:102aa8003e009000cf80de009ff807001ac0b300f8
:102ab8000001be000800be005df807000000e0004d
:102ac80001003c000045eb000a04e0001f00320052
:102ad800688f8000798f80004e009000cf80de00e4
:102ae80091f807001ac0b3000001be000800be003c
:102af8004ff807000000e00001003c000045eb0033
:102b08000a04e00011003200488f8000598f8000cd
:102b18005e009000cf80de0083f807001ac0b30083
:102b28000001be000800be003ff807000000e000fa
:102b3800010035000045eb000a04e0000300320004
:102b48000040eb00004f780013003700888f8000aa
:102b5800998f80003e009000cf80de0072f8070059
:102b68001ac0b3000001be000800be002ef807001e
:102b78000000e000010035000045eb000a04e00019
:102b88000300320030c0b300004f78000200370065
:102b98000040eb00004f78001e4078000004e00081
:102ba80003003a0020c0b3005ef0b70023003700ee
:102bb8001e407800e64f500003003a0040c1b300c1
:102bc8005ef0b7001d0037001e407800e24f50004d
:102bd80003003a0040c0b3005ef0b70017003700aa
:102be8001e407800e54f500003003a00e0c0b300f3
:102bf8005ef0b700110037001e407800e14f50002a
:102c080003003a0060c0b3005ef0b7000b00370065
:102c18001e407800e44f500003003a00c0c0b300e3
:102c28005ef0b700050037001e407800e34f500003
:102c380002003a0080c0b3005ef0b7005ed0bf006b
:102c48008080fb00501e2100104078000080fb00af
:102c58000000e900808f500022003200e1052100c9
:102c680091407800501e210001487800501e210034
:102c780090427800f0818000018280004808de00e0
:102c880000427800f0818000018280004008de0068
:102c980080417800f0818000018280004809dd00d1
:102ca8004800de0000007100c808de00004178001e
:102cb800f08180000182800000407800454f980034
:102cc800544f9800634f9800724f9800005798002f
:102cd8006c0047000001780051002000000520002a
:102ce8002c0007004f0578004f04be000080fa0052
:102cf800000006000a00fa00200798003107980033
:102d0800420798000040eb00004f7800e0cfb30086
:102d18001e4f68002e0090004880de0000407800ba
:102d28001e4f68002e009000004078001e4f68007b
:102d38003e0090004880de00004078001e4f68008a
:102d48003e009000004078001e4f68000000eb0035
:102d580010079800080037001e009000ce00900071
:102d680000804000104078001e4f68001e00900050
:102d78000000e800100798009e0090003e009000b8
:102d8800808f5000f4ff35001e4078000080fa0064
:102d9800000006000e00fa00889fbe004007980059
:102da80051079800620798000f0478000f00780018
:102db800800478005e009000660040008000e90012
:102dc800210798000000e8000000e8000000d1009a
:102dd800800040000f007800818747000000e8006d
:102de8000000d10000004000300798000000eb0010
:102df80010079800be0090001e0090000080400060
:102e0800e1cfb300014878001e0090000000e80000
:102e1800100798004e0090004880de00804078003f
:102e28003e0190001e00900000004100014878001b
:102e38001e0090000000e800100798004e00900067
:102e4800804078003e0190001e0090000000410084
:102e5800014878001e0090000000e8001007980064
:102e68005e0090004880de00804078003e019000bf
:102e78001e00900000004100014878001e009000ec
:102e88000000e800100798005e009000804078007d
:102e98003e0190001e0090000000410001487800ab
:102ea8001e0090000000e800100798000000eb00ea
:102eb800000f78000c0037001e007800ee0090002c
:102ec80000804000904078003e0190001e00900075
:102ed80000004100014878001e0090000000e80052
:102ee800100798001e0fe8005e0090009e00780012
:102ef800808f5000f0ff35006e019000de009000da
:102f08004e0090007bff07003e0190009e0090005d
:102f180081004100804878001e0090000000e80011
:102f2800100798003e0090009e0090008a04070059
:102f380089077800880778004f04be000080fa00ef
:102f4800000006000400fa00204798005082800024
:102f5800e30f500023003200e30f500005003e004d
:102f6800e10f500010003200e10f500015003e0044
:102f780007003700e50f50002a003200e50f500027
:102f88001f003900e60f50003900320048003700b2
:102f98002e409000e24f400048003a001000200008
:102fa80050828800480037002e4090000080fb00c7
:102fb8004800dd0020828800200020005082880020
:102fc800410037002e4090008080fb002082800066
:102fd8000080400020828800300020005082880055
:102fe800390037002e4090000080fb004800dd00cb
:102ff800308288004000200050828800320037006c
:103008002e4090008080fb003082800000804000cd
:10301800308288004830ef0050002000508288003d
:10302800290037004182800030828000808f500064
:1030380008003d00408280004116210000804000c9
:10304800ae40900001487800408280000000e8000f
:10305800408288004182800030828000808f50004a
:1030680018003500600020005082880016003700e4
:10307800ae409000014f78003182800020828000ad
:10308800421621001bff0700104798001e409000c1
:103098009e4f500004003a00318280002082800058
:1030a800421621000a0007004a30ef0006003700e8
:1030b8004a30ef0000000000030037000000000065
:1030c80001003700000000000080fa000000060040
:1030d8000600fa00000f78001107980022079800f0
:1030e8001e00780011052000810f500004003200f6
:1030f80021052000810f500005003200080037002c
:103108002e009000104078000700070004003700e8
:103118002e00900010407800090007000000000011
:103128000080fa00000006000200fa00004f780054
:10313800501e21001e4878000080fa00000006009a
:103148000200fa00004f7800601e21001e48780037
:10315800601e210010407800e14f500002003a0044
:1031680064eea8000100370064eea9000080fa00b0
:10317800000006000400fa00881f7800008fbe00d7
:1031880018c0b3006011b8001e0078009e009000bf
:10319800a7f607000000e00001003d000044eb0036
:1031a8000804e000030032001e0078009e00900032
:1031b800030037001e0078009e00900001f0a20076
:1031c8004f0478000080fa00000006000800fa00aa
:1031d800881f7800008fbe002207980033079800e8
:1031e80018c0b3002e019000be0190001e007800a8
:1031f8009e0090008ef607000000e00001003c00f1
:103208000044eb000804e000030032001e007800d0
:103218009e009000020037002e009000be00900033
:103228004f0478000080fa00000006000800fa0049
:10323800881f7800008fbe00220798003307980087
:1032480018c0b3002e019000be0190001e00780047
:103258009e00900074f607000000e00001003500b1
:103268000044eb000804e000030032001e00780070
:103278009e009000020037002e009000be009000d3
:103288004f0478000080fa00000006000c00fa00e5
:10329800881f7800008fbe00220798003307980027
:1032a800440798005507980018c0b3002e019000f5
:1032b800be0190001e0078009e0090005af607009c
:1032c8000000e000010035000044eb000804e000c5
:1032d800030032002e009000be009000100037005e
:1032e80018c0b3004e019000de0190001e00780067
:1032f8009e0090004ef607000000e00001003c0030
:103308000044eb000804e000030032004e00900087
:10331800de009000020037001e0078009e0090003a
:103328004f0478000080fa00000006000800fa0048
:103338002007980031079800b2fd2000930424006c
:103348002e009000be00900030f50700b2fd20006e
:10335800930c240079f60700b2fd200093042400a2
:103368002bf50700008fbe00b2fd20009304240057
:103378001e0078009e00900025f50700b2fd200091
:10338800930c24006df60700b2fd2000930424007e
:103398001ef507000080fa00000006000a00fa0087
:1033a8003007980041079800be0090004e0090003a
:1033b800008f40001e0078001001780090019000f6
:1033c80012079800230798001e009000ae00900096
:1033d8000080fa00000006000600fa0010079800b6
:1033e800210798009e0090002e009000008f40005a
:1033f8001e00780090009000100078000080fa000d
:10340800000006000c00fa00200798003107980019
:103418004207980053079800680047001007980073
:103428000000eb00000f78000a0037003e00900013
:103438001e004000ae009000008040009e00780012
:103448001e019000810041009140780001487800f9
:103458001e0fe8001e007800e30f5000f3ff340051
:103468000080fa00000006000c00fa00200798000f
:1034780031079800420798005307980068004700f2
:10348800100798000000eb00000f78000b003700d1
:103498003e0090001e004000ae00900000804000fa
:1034a800320020009e0051001e0190008100410062
:1034b80091407800014878001e0fe8001e0078004f
:1034c800e30f5000f2ff34000080fa00000006000d
:1034d8000c00fa002007980031079800420798006e
:1034e8005307980068004700100798000000eb0099
:1034f800000f78000a0037003e0090001e004000d0
:10350800ae009000008040009e0078001e019000f0
:103518008100410091407800014878001e0fe800c2
:103528001e007800e70f5000f3ff34000080fa0017
:10353800000006001800fa00f08180000182800077
:103548000001be008000eb000e007800c6ff0700f7
:10355800e0908000f19080000001be004100200052
:103568000e007800a7ff07000091800011918000ed
:103578000001be00810020000e007800a1ff0700b6
:1035880080918000919180000001be00c100200060
:103598000e0078009bff0700a0908000b19080008b
:1035a8000001be00010120000e00780095ff070011
:1035b800c0908000d19080000001be004101200031
:1035c8000e0078008fff07000e01780081012000af
:1035d80010062000effd07000080fa00000006003a
:1035e8000000fa0013e1a90011e1a9001061a80088
:1035f8001021a90081088000f0fc2f0000806000e5
:10360800800888000a21ef000621ef00202620000c
:103618007008880000a0250060088800214280000a
:1036280080ff2f00008060000000a000204288007a
:103638000108a9002108a80011e1a8000080fa00eb
:10364800000006000000fa0005e1a9000421a90015
:1036580000002000812c2400050007000068a90054
:103668002068a80005e1a8000080fa000000060014
:103678000400fa00881f7800008fbe00210880002f
:10368800f0fc2f0000806000200888001e017800f0
:103698009e0190000068290081c1240020f50700e0
:1036a80018c0b30002f02f00f377240060f507007c
:1036b8000000e00001003c000044eb000804e000ca
:1036c8005400320021088000f0fc2f0000806000c8
:1036d8000040a000200888001e0178009e0190008c
:1036e8000068290081c124000df5070002002000b0
:1036f800031024000af5070018c0b30002f02f00d9
:10370800f37724004af507000000e00001003c00c0
:103718000044eb000804e000320032002108800079
:10372800f0fc2f00008060000050a00020088800f6
:103738001e0178009e0190000068290081c12400c4
:10374800f7f407000200200003282400f4f407001f
:1037580018c0b30002f02f00f377240034f50700f7
:103768000000e00001003c000044eb000804e00019
:1037780010003200210880000003200001007000c2
:10378800200888001e0178009e019000006829002a
:1037980081c12400e2f4070002002000033824005d
:1037a800dff4070024f507000000780010088800ff
:1037b800200037001e0178009e0190000068290053
:1037c80081c12400d6f40700020020000328240049
:1037d800d3f4070018f507000000780010088800e7
:1037e800140037001e0178009e019000006829002f
:1037f80081c12400caf4070002002000031024003d
:10380800c7f407000cf507000000780010088800ce
:10381800080037001e0178009e019000006829000a
:1038280081c12400bef4070003f5070000007800fa
:10383800100888004f0478000080fa000000060095
:103848000000fa001fe1a9001e21a90000002000c5
:10385800a1472400050007000368a9002368a80001
:103868001fe1a8000080fa00000006000400fa002a
:10387800881f7800008fbe00f1088000f0fc2f0040
:1038880000806000f00888001e0178009e0190000a
:103898000068290081c12400a1f4070018c0b30002
:1038a80002f02f00f3772400e1f407000000e000a5
:1038b80001003c000044eb000804e0005400320022
:1038c800f1088000f0fc2f00008060000040a0009c
:1038d800f00888001e0178009e0190000068290009
:1038e80081c124008ef40700020020000310240088
:1038f8008bf4070018c0b30002f02f00f377240000
:10390800cbf407000000e00001003c000044eb009d
:103918000804e00032003200f1088000f0fc2f00bb
:10392800008060000050a000f00888001e017800a8
:103938009e0190000068290081c1240078f40700e6
:10394800020020000328240075f4070018c0b30003
:1039580002f02f00f3772400b5f407000000e00020
:1039680001003c000044eb000804e00010003200b5
:10397800f10880000003200001007000f0088800b2
:103988001e0178009e0190000068290081c1240072
:1039980063f40700020020000338240060f40700e5
:1039a800a5f4070000007800d00888002000370040
:1039b8001e0178009e0190000068290081c1240042
:1039c80057f40700020020000328240054f40700dd
:1039d80099f4070000007800d00888001400370028
:1039e8001e0178009e0190000068290081c1240012
:1039f8004bf40700020020000310240048f40700dd
:103a08008df4070000007800d0088800080037000f
:103a18001e0178009e0190000068290081c12400e1
:103a28003ff4070084f4070000007800d0088800fd
:103a38004f0478000080fa00000006000000fa0039
:103a4800c301a8000080eb00e00e88000080eb00b6
:103a5800f00e8800c1e1a8000080fa00000006000e
:103a68000000fa00c305a8000080eb00e02e8800e3
:103a78000080eb00f02e8800c1e5a8000080fa0065
:103a8800000006000400fa00889fbe0060808000e5
:103a9800718080000080880011808800408080004c
:103aa800518080002080880031808800300e80009e
:103ab8008000eb00008fbe0000818000cf80de0018
:103ac800c000dd000000200097f407000002be00df
:103ad80080808000918080000001be000400be004c
:103ae8004bf307008080880091808800302e80008a
:103af8008000eb00008fbe0010818000cf80de00c8
:103b0800c000dd000000200087f407000002be00ae
:103b1800a0808000b18080000001be000400be00cb
:103b28003bf30700a0808800b18088008080800077
:103b380091808000928d2b008378230023f5070065
:103b48002081880031818800a0808000b1808000b9
:103b5800928d2b0083782b001cf50700408188008c
:103b68005181880024818000358180006081800037
:103b7800718180000001be000400be0023f307002d
:103b8800c0808800d18088004481800055818000f1
:103b980080818000918180000001be000400be0089
:103ba8001af30700e0808800f1808800c480800054
:103bb800d5808000e0808000f18080000001be0098
:103bc8000400be0011f30700a2992900c33824009d
:103bd800d3f307006bf30700a0818800b181880048
:103be800c4808000d5808000e0808000f180800063
:103bf8000001be000400be0005f30700020020001b
:103c080003002400c6f30700c0818800d181880022
:103c1800c4808000d5808000d0828000e18280004e
:103c28000001be000400be00e8f4070060908800b0
:103c380071908800e4808000f5808000d082800048
:103c4800e18280000001be000400be00dff407002e
:103c58008090880091908800649080007590800022
:103c680080908000919080000001be000400be009a
:103c7800e7f207000200200003002400a8f3070071
:103c8800a0908800b1908800a4818000b581800050
:103c9800d0828000e18280000001be000400be00e6
:103ca800caf40700c0908800d1908800e090800096
:103cb800f190800020918800319188000091800067
:103cc8001191800040918800519188008091800076
:103cd80091918000609188007191880028918000fe
:103ce8003991800080918000919180008af30700cb
:103cf8000002be00c0818000d18180000001be00aa
:103d08000400be00b1f407000001be000800be00b8
:103d1800bff20700e0908800f19088004891800089
:103d280059918000809180009191800044f50700ae
:103d38000002be00c0818000d18180000001be0069
:103d48000400be00a1f407000001be000800be0088
:103d5800aff20700009188001191880064918000fb
:103d680075918000a0818000b18180000001be00b3
:103d78000400be00a6f20700809188009191880097
:103d8800809180009191800018c0b300b2fd20009e
:103d980093042400a6f307000000e00001003c00a3
:103da8000044eb000804e000070032008091800026
:103db80091918000b2fd2000930c240093f207003b
:103dc8008091880091918800809180009191800075
:103dd80018c0b300b2fd200093042c0092f3070032
:103de8000000e000010035000044eb000804e0009a
:103df800070032008091800091918000b2fd200080
:103e0800930c240082f20700809188009191880029
:103e18004f04be000080fa00000006000000fa000f
:103e28001160800080ff2f00008060001060880013
:103e380000fa20002060880023aca800238ca8008a
:103e480011618000f03f2f000080600000a0a000fa
:103e5800106188003000200020618800c3aca800f1
:103e6800c38ca80011668000f03f2f00008060001e
:103e780000a0a0001066880030002000206688009e
:103e880001eca8000080fa00000006000000fa001b
:103e9800889fbe004490800055908000209080004c
:103ea8003190800018c0b3000001be000400be00bd
:103eb8005df307000000e000010035000044eb005e
:103ec8000804e0000d00320028908000399080003e
:103ed800449080005590800090828000a1828000ec
:103ee8000001be000400be0049f207000801be0040
:103ef800cefc0700409088005190880044908000d4
:103f080055908000209080003190800018c0b30048
:103f18000001be000400be0045f307000000e000f9
:103f280001003c000044eb000804e0000d003200f2
:103f3800289080003990800044908000559080003f
:103f480090828000a18280000001be000400be00b3
:103f58002ef207000801be009cfc07004090880074
:103f680051908800409080005190800018c0b300a4
:103f78006011b8002ef307000000e00001003c00cb
:103f88000044eb000804e00004003200c3cca900a0
:103f980024eea800c3eca80003003700c3eca90076
:103fa80024cea800c3cca800409080005190800087
:103fb80070fc0700020020000322240003f407001d
:103fc8003ef3070000007800306688000490800007
:103fd80015908000e08f8000f18f800018c0b3003a
:103fe8000001be000400be000ff307000000e0005f
:103ff800010035000044eb000804e0000d00320029
:10400800e88f8000f98f8000049080001590800070
:1040180090828000a18280000001be000400be00e2
:10402800fbf107000801be0080fc07000090880033
:10403800119088000490800015908000e08f800027
:10404800f18f800018c0b3000001be000400be005c
:10405800f7f207000000e00001003c000044eb001c
:104068000804e0000d003200e88f8000f98f80001e
:10407800049080001590800090828000a1828000ca
:104088000001be000400be00e0f107000801be0008
:104098004efc070000908800119088000090800076
:1040a8001190800018c0b3006011b800e0f207005a
:1040b8000000e00001003c000044eb000804e000c0
:1040c8000400320023cca90015eea80023eca800b8
:1040d8000300370023eca90015cea80023cca800c4
:1040e800009080001190800022fc07000200200050
:1040f80003222400b5f30700f0f20700000078005f
:10410800306188004f04be000080fa0000000600fd
:104118000600fa00008fbe00424798004e4090000b
:104128000004e00005003a001e0178009e0190009e
:10413800e28f8800f38f8800050037001e007800a2
:104148009e00900001f0a200209088003190880025
:104158000080fa00000006000600fa001007980028
:10416800210798000040eb00004f7800500007003e
:10417800ae009000810f5000110035000040eb00a8
:10418800004f7800060037001e80fb009e0090005c
:1041980000804000104078000b0007001e4fe80028
:1041a8009e80fb002e009000808f5000f6ff3500a7
:1041b8002c0007000004e00001003a00200007007e
:1041c8000080fa00000006000200fa00004f7800a4
:1041d8006082800041062100808040009e4878006f
:1041e8000000e800608288006182800000082000ea
:1041f800808f500001003a004c30ef000080fa0038
:10420800000006000200fa007082800041062100ca
:1042180080804000114f78000000e800708288001c
:104228007182800000082000808f500001003a0051
:104238004e30ef001e4078000080fa0000000600b3
:104248000200fa0010c0b30050f0b700edff0700fd
:10425800004f78001e80fb00201188000080fa00c3
:10426800000006000000fa0050d0bf000080fa00ed
:10427800000006000000fa00618280007082800061
:10428800808f5000040035006182800070828000b9
:104298000080500004003700618280007082800036
:1042a800008050000008b0000080fa0000000600fe
:1042b8000000fa00efff070001082000008050000e
:1042c8000080fa00000006000000fa0021e3a900bf
:1042d8002143a80001198000f0cf2f000080600062
:1042e800001988002043a90001198000000e200051
:1042f800010070000019880011198000f0ff2100ea
:1043080000806000101988002343a800111980005c
:10431800f0cf2f000080600010198800111980006c
:1043280030f82f00008060000040a00010198800bd
:104338002203a9002223a90025e3a900f0c0b300a5
:1043480024e3b70021198000f00f2e008080600060
:1043580000f0200001007000201988003303a90034
:104368002e0ea8002f6ea8006f2ea8001e2ea800e3
:104378004feea8003063a80030c3a8003163a8003e
:1043880031e3a8002e03a8004119800000fc2f008b
:10439800008060004019880028e3a90001a8a9004e
:1043a80021a8a80021e3a8000080fa000000060068
:1043b8000000fa002023a8000080fa000000060090
:1043c8000000fa00402321000080fa0000000600e7
:1043d8000000fa0061d0bf000080fa00000006006b
:1043e8000000fa006170ef000080fa00000006008b
:1043f8000200fa00004f7800b0828000410e2100d0
:10440800808040009e4878000000e800b082880064
:10441800b182800000082000808f500001003a001f
:104428005630ef000080fa00000006000200fa0093
:10443800c0828000410e210080804000114f78002a
:104448000000e800c0828800c182800000082000c7
:10445800808f500001003a005830ef001e4078006d
:104468000080fa00000006000000fa00b182800017
:10447800c0828000808f50000200320010c0b3005c
:10448800010037000040eb000080fa000000060041
:104498000000fa00b1828000c0828000808f500046
:1044a80004003500b1828000c08280000080500086
:1044b80004003700b1828000c08280000080500074
:1044c8000008b0000080fa00000006000000fa00b2
:1044d800efff070001082000008050000080fa006c
:1044e800000006000000fa000e2eef001e2eef005e
:1044f8002e2eef003e2eef004e2eef005e2eef0028
:104508006e2eef00214ea90060cea90060eea90032
:10451800016ea80011cea90011eea90020cea900b5
:1045280020eea900200ea800216ea800612ea80088
:10453800102ea80041cea8002136800000f82f00d8
:10454800008060008001b3002036880011348000ac
:1045580000fc2f00008060000000a00010348800dc
:104568000136800000f82f008080600010062000cf
:10457800010070000036880001368000f00f280026
:10458800808060000000260001007000003688006e
:10459800e135800000f82f00808060006004200072
:1045a80001007000e0358800e1358000f00f280038
:1045b800808060000050240001007000e035880011
:1045c8000080fa00000006000000fa002002a9009e
:1045d8000111800090ff2f0000806000001188000a
:1045e80020a2a9002062a8005005200040118800e0
:1045f80023a2a90023e2a9000188a9002188a80014
:1046080011118000f0f32f00008060001011880065
:104618000168a9002168a80021e2a8002342a80097
:104628000080fa00000006000600fa001007980053
:10463800210798000040eb00004f78000040eb0095
:10464800004f78000e0037000000000011118000b4
:1046580000202000008060000000e000fbff3a001e
:104668001e009000104078000080fb002011880098
:104678001e0090000000e800100798001e4fe80098
:104688009e80fb002e009000808f5000eeff3500ca
:084698000080fa00000006009a
:020000040000fa
:1046a0005e10000002000000800000003c100000ce
:1046b0000800000080000000e4110000500000002d
:1046c0008000000052100000040000008200000082
:1046d0000000200041000000341200000a00000029
:1046e0008000000060100000020000008000000058
:1046f0006410000080000000800000004c100000ea
:104700000600000080000000e410000080000000af
:10471000800000005610000004000000800000002f
:1047200064110000800000008000000044100000c0
:104730000800000080000000001000003c000000a5
:10474000800000005a1000000400000082000000f9
:1047500000007a0043000000621000000200000028
:084760008000000000000000d1
:020000040000fa
:104768000000fa00f0032000303a8800213a800067
:10477800f0f32f0000806000203a8800213a800082
:1047880000fe2f00008060000000a000203a880092
:104798001200200080072000a109200033742000a7
:1047a800804978008149780082497800103a800071
:1047b800000178000200a0006004200071052000bc
:1047c8002374200080497800814978008249780064
:1047d80000000000113a800000002700808060007f
:1047e80000002100808f5000faff3a00000000000e
:1047f800113a800000022000008060000000e00004
:10480800fbff32000080fa00000006000400fa00f6
:10481800008fbe00b2fd2000930424001e00780023
:104828009e009000bef007000200200043332400e1
:10483800e6f107000080fa00000006000400fa0014
:10484800008fbe00b2fd2000930424001e007800f3
:104858009e009000ddf10700020020004333240091
:0c486800aff007000080fa00000006001e
:020000040000fa
:02000004000af0
:04afe000cfff00009f
:020000040000fa
:02000004000af0
:04afe400ffff00006b
:020000040000fa
:02000004000af0
:04afe8007fff0000e7
:020000040000fa
:02000004000af0
:04afec005fff000003
:020000040000fa
:02000004000af0
:04aff00038ff000026
:020000040000fa
:02000004000af0
:04aff400ffff00005b
:00000001FF
